{
  "contractName": "BlueToken",
  "abi": [
    {
      "inputs": [],
      "stateMutability": "nonpayable",
      "type": "constructor"
    },
    {
      "anonymous": false,
      "inputs": [
        {
          "indexed": true,
          "internalType": "address",
          "name": "owner",
          "type": "address"
        },
        {
          "indexed": true,
          "internalType": "address",
          "name": "spender",
          "type": "address"
        },
        {
          "indexed": false,
          "internalType": "uint256",
          "name": "value",
          "type": "uint256"
        }
      ],
      "name": "Approval",
      "type": "event"
    },
    {
      "anonymous": false,
      "inputs": [
        {
          "indexed": true,
          "internalType": "string",
          "name": "_name",
          "type": "string"
        },
        {
          "indexed": true,
          "internalType": "address",
          "name": "_from",
          "type": "address"
        },
        {
          "indexed": true,
          "internalType": "address",
          "name": "_to",
          "type": "address"
        }
      ],
      "name": "BeforePurchase",
      "type": "event"
    },
    {
      "anonymous": false,
      "inputs": [
        {
          "indexed": true,
          "internalType": "address",
          "name": "from",
          "type": "address"
        },
        {
          "indexed": true,
          "internalType": "address",
          "name": "to",
          "type": "address"
        },
        {
          "indexed": false,
          "internalType": "uint256",
          "name": "value",
          "type": "uint256"
        }
      ],
      "name": "Transfer",
      "type": "event"
    },
    {
      "inputs": [
        {
          "internalType": "address",
          "name": "owner",
          "type": "address"
        },
        {
          "internalType": "address",
          "name": "spender",
          "type": "address"
        }
      ],
      "name": "allowance",
      "outputs": [
        {
          "internalType": "uint256",
          "name": "",
          "type": "uint256"
        }
      ],
      "stateMutability": "view",
      "type": "function"
    },
    {
      "inputs": [
        {
          "internalType": "address",
          "name": "spender",
          "type": "address"
        },
        {
          "internalType": "uint256",
          "name": "amount",
          "type": "uint256"
        }
      ],
      "name": "approve",
      "outputs": [
        {
          "internalType": "bool",
          "name": "",
          "type": "bool"
        }
      ],
      "stateMutability": "nonpayable",
      "type": "function"
    },
    {
      "inputs": [
        {
          "internalType": "address",
          "name": "account",
          "type": "address"
        }
      ],
      "name": "balanceOf",
      "outputs": [
        {
          "internalType": "uint256",
          "name": "",
          "type": "uint256"
        }
      ],
      "stateMutability": "view",
      "type": "function"
    },
    {
      "inputs": [],
      "name": "decimals",
      "outputs": [
        {
          "internalType": "uint8",
          "name": "",
          "type": "uint8"
        }
      ],
      "stateMutability": "view",
      "type": "function"
    },
    {
      "inputs": [
        {
          "internalType": "address",
          "name": "spender",
          "type": "address"
        },
        {
          "internalType": "uint256",
          "name": "subtractedValue",
          "type": "uint256"
        }
      ],
      "name": "decreaseAllowance",
      "outputs": [
        {
          "internalType": "bool",
          "name": "",
          "type": "bool"
        }
      ],
      "stateMutability": "nonpayable",
      "type": "function"
    },
    {
      "inputs": [
        {
          "internalType": "address",
          "name": "spender",
          "type": "address"
        },
        {
          "internalType": "uint256",
          "name": "addedValue",
          "type": "uint256"
        }
      ],
      "name": "increaseAllowance",
      "outputs": [
        {
          "internalType": "bool",
          "name": "",
          "type": "bool"
        }
      ],
      "stateMutability": "nonpayable",
      "type": "function"
    },
    {
      "inputs": [],
      "name": "name",
      "outputs": [
        {
          "internalType": "string",
          "name": "",
          "type": "string"
        }
      ],
      "stateMutability": "view",
      "type": "function"
    },
    {
      "inputs": [],
      "name": "owner",
      "outputs": [
        {
          "internalType": "address payable",
          "name": "",
          "type": "address"
        }
      ],
      "stateMutability": "view",
      "type": "function"
    },
    {
      "inputs": [],
      "name": "symbol",
      "outputs": [
        {
          "internalType": "string",
          "name": "",
          "type": "string"
        }
      ],
      "stateMutability": "view",
      "type": "function"
    },
    {
      "inputs": [],
      "name": "totalSupply",
      "outputs": [
        {
          "internalType": "uint256",
          "name": "",
          "type": "uint256"
        }
      ],
      "stateMutability": "view",
      "type": "function"
    },
    {
      "inputs": [
        {
          "internalType": "address",
          "name": "to",
          "type": "address"
        },
        {
          "internalType": "uint256",
          "name": "amount",
          "type": "uint256"
        }
      ],
      "name": "transfer",
      "outputs": [
        {
          "internalType": "bool",
          "name": "",
          "type": "bool"
        }
      ],
      "stateMutability": "nonpayable",
      "type": "function"
    },
    {
      "inputs": [
        {
          "internalType": "address",
          "name": "from",
          "type": "address"
        },
        {
          "internalType": "address",
          "name": "to",
          "type": "address"
        },
        {
          "internalType": "uint256",
          "name": "amount",
          "type": "uint256"
        }
      ],
      "name": "transferFrom",
      "outputs": [
        {
          "internalType": "bool",
          "name": "",
          "type": "bool"
        }
      ],
      "stateMutability": "nonpayable",
      "type": "function"
    },
    {
      "inputs": [
        {
          "internalType": "address",
          "name": "_to",
          "type": "address"
        }
      ],
      "name": "mint",
      "outputs": [
        {
          "internalType": "bool",
          "name": "",
          "type": "bool"
        }
      ],
      "stateMutability": "nonpayable",
      "type": "function"
    },
    {
      "inputs": [
        {
          "internalType": "address",
          "name": "_addr",
          "type": "address"
        },
        {
          "internalType": "string",
          "name": "_name",
          "type": "string"
        },
        {
          "internalType": "string",
          "name": "_password",
          "type": "string"
        }
      ],
      "name": "signUp",
      "outputs": [
        {
          "internalType": "bool",
          "name": "",
          "type": "bool"
        }
      ],
      "stateMutability": "nonpayable",
      "type": "function"
    },
    {
      "inputs": [
        {
          "internalType": "string",
          "name": "_name",
          "type": "string"
        }
      ],
      "name": "signIn",
      "outputs": [
        {
          "internalType": "address",
          "name": "",
          "type": "address"
        },
        {
          "internalType": "uint256",
          "name": "",
          "type": "uint256"
        }
      ],
      "stateMutability": "view",
      "type": "function"
    },
    {
      "inputs": [
        {
          "internalType": "address",
          "name": "userAddress",
          "type": "address"
        }
      ],
      "name": "getContractBalance",
      "outputs": [
        {
          "internalType": "uint256",
          "name": "",
          "type": "uint256"
        }
      ],
      "stateMutability": "view",
      "type": "function"
    },
    {
      "inputs": [],
      "name": "destroy",
      "outputs": [],
      "stateMutability": "nonpayable",
      "type": "function"
    }
  ],
  "bytecode": "0x60806040523480156200001157600080fd5b506040518060400160405280600981526020017f426c7565546f6b656e00000000000000000000000000000000000000000000008152506040518060400160405280600381526020017f42544b000000000000000000000000000000000000000000000000000000000081525081600390816200008f9190620005af565b508060049081620000a19190620005af565b505050620000e133620000b96200012860201b60201c565b600a620000c7919062000826565b600a620000d5919062000877565b6200013160201b60201c565b33600560006101000a81548173ffffffffffffffffffffffffffffffffffffffff021916908373ffffffffffffffffffffffffffffffffffffffff16021790555062000a20565b60006012905090565b600073ffffffffffffffffffffffffffffffffffffffff168273ffffffffffffffffffffffffffffffffffffffff1603620001a3576040517f08c379a00000000000000000000000000000000000000000000000000000000081526004016200019a9062000923565b60405180910390fd5b620001b7600083836200029e60201b60201c565b8060026000828254620001cb919062000945565b92505081905550806000808473ffffffffffffffffffffffffffffffffffffffff1673ffffffffffffffffffffffffffffffffffffffff168152602001908152602001600020600082825401925050819055508173ffffffffffffffffffffffffffffffffffffffff16600073ffffffffffffffffffffffffffffffffffffffff167fddf252ad1be2c89b69c2b068fc378daa952ba7f163c4a11628f55a4df523b3ef836040516200027e919062000991565b60405180910390a36200029a600083836200032b60201b60201c565b5050565b620002b68383836200033060201b62000bb91760201c565b8173ffffffffffffffffffffffffffffffffffffffff168373ffffffffffffffffffffffffffffffffffffffff16604051620002f29062000a09565b60405180910390207f8ed05a1139d6b0bcc02a4a8c01f6fdf1dbebe75e3c723db3aa68ee9b4f26434160405160405180910390a4505050565b505050565b505050565b600081519050919050565b7f4e487b7100000000000000000000000000000000000000000000000000000000600052604160045260246000fd5b7f4e487b7100000000000000000000000000000000000000000000000000000000600052602260045260246000fd5b60006002820490506001821680620003b757607f821691505b602082108103620003cd57620003cc6200036f565b5b50919050565b60008190508160005260206000209050919050565b60006020601f8301049050919050565b600082821b905092915050565b600060088302620004377fffffffffffffffffffffffffffffffffffffffffffffffffffffffffffffffff82620003f8565b620004438683620003f8565b95508019841693508086168417925050509392505050565b6000819050919050565b6000819050919050565b6000620004906200048a62000484846200045b565b62000465565b6200045b565b9050919050565b6000819050919050565b620004ac836200046f565b620004c4620004bb8262000497565b84845462000405565b825550505050565b600090565b620004db620004cc565b620004e8818484620004a1565b505050565b5b81811015620005105762000504600082620004d1565b600181019050620004ee565b5050565b601f8211156200055f576200052981620003d3565b6200053484620003e8565b8101602085101562000544578190505b6200055c6200055385620003e8565b830182620004ed565b50505b505050565b600082821c905092915050565b6000620005846000198460080262000564565b1980831691505092915050565b60006200059f838362000571565b9150826002028217905092915050565b620005ba8262000335565b67ffffffffffffffff811115620005d657620005d562000340565b5b620005e282546200039e565b620005ef82828562000514565b600060209050601f83116001811462000627576000841562000612578287015190505b6200061e858262000591565b8655506200068e565b601f1984166200063786620003d3565b60005b8281101562000661578489015182556001820191506020850194506020810190506200063a565b868310156200068157848901516200067d601f89168262000571565b8355505b6001600288020188555050505b505050505050565b7f4e487b7100000000000000000000000000000000000000000000000000000000600052601160045260246000fd5b60008160011c9050919050565b6000808291508390505b60018511156200072457808604811115620006fc57620006fb62000696565b5b60018516156200070c5780820291505b80810290506200071c85620006c5565b9450620006dc565b94509492505050565b6000826200073f576001905062000812565b816200074f576000905062000812565b81600181146200076857600281146200077357620007a9565b600191505062000812565b60ff84111562000788576200078762000696565b5b8360020a915084821115620007a257620007a162000696565b5b5062000812565b5060208310610133831016604e8410600b8410161715620007e35782820a905083811115620007dd57620007dc62000696565b5b62000812565b620007f28484846001620006d2565b925090508184048111156200080c576200080b62000696565b5b81810290505b9392505050565b600060ff82169050919050565b600062000833826200045b565b9150620008408362000819565b92506200086f7fffffffffffffffffffffffffffffffffffffffffffffffffffffffffffffffff84846200072d565b905092915050565b600062000884826200045b565b915062000891836200045b565b9250828202620008a1816200045b565b91508282048414831517620008bb57620008ba62000696565b5b5092915050565b600082825260208201905092915050565b7f45524332303a206d696e7420746f20746865207a65726f206164647265737300600082015250565b60006200090b601f83620008c2565b91506200091882620008d3565b602082019050919050565b600060208201905081810360008301526200093e81620008fc565b9050919050565b600062000952826200045b565b91506200095f836200045b565b92508282019050808211156200097a576200097962000696565b5b92915050565b6200098b816200045b565b82525050565b6000602082019050620009a8600083018462000980565b92915050565b600081905092915050565b7f6265666f72657075726368617365000000000000000000000000000000000000600082015250565b6000620009f1600e83620009ae565b9150620009fe82620009b9565b600e82019050919050565b600062000a1682620009e2565b9150819050919050565b6123718062000a306000396000f3fe608060405234801561001057600080fd5b506004361061010b5760003560e01c806370a08231116100a2578063a457c2d711610071578063a457c2d7146102d0578063a9059cbb14610300578063a9b4d91914610330578063c95f728a14610360578063dd62ed3e146103915761010b565b806370a082311461025a57806383197ef01461028a5780638da5cb5b1461029457806395d89b41146102b25761010b565b8063313ce567116100de578063313ce567146101ac57806339509351146101ca57806343ab265f146101fa5780636a6278421461022a5761010b565b806306fdde0314610110578063095ea7b31461012e57806318160ddd1461015e57806323b872dd1461017c575b600080fd5b6101186103c1565b60405161012591906112fa565b60405180910390f35b610148600480360381019061014391906113c4565b610453565b604051610155919061141f565b60405180910390f35b610166610476565b6040516101739190611449565b60405180910390f35b61019660048036038101906101919190611464565b610480565b6040516101a3919061141f565b60405180910390f35b6101b46104af565b6040516101c191906114d3565b60405180910390f35b6101e460048036038101906101df91906113c4565b6104b8565b6040516101f1919061141f565b60405180910390f35b610214600480360381019061020f91906114ee565b6104ef565b6040516102219190611449565b60405180910390f35b610244600480360381019061023f91906114ee565b610501565b604051610251919061141f565b60405180910390f35b610274600480360381019061026f91906114ee565b610535565b6040516102819190611449565b60405180910390f35b61029261057d565b005b61029c610648565b6040516102a9919061153c565b60405180910390f35b6102ba61066e565b6040516102c791906112fa565b60405180910390f35b6102ea60048036038101906102e591906113c4565b610700565b6040516102f7919061141f565b60405180910390f35b61031a600480360381019061031591906113c4565b610777565b604051610327919061141f565b60405180910390f35b61034a6004803603810190610345919061168c565b61079a565b604051610357919061141f565b60405180910390f35b61037a60048036038101906103759190611717565b6109ea565b60405161038892919061176f565b60405180910390f35b6103ab60048036038101906103a69190611798565b610b32565b6040516103b89190611449565b60405180910390f35b6060600380546103d090611807565b80601f01602080910402602001604051908101604052809291908181526020018280546103fc90611807565b80156104495780601f1061041e57610100808354040283529160200191610449565b820191906000526020600020905b81548152906001019060200180831161042c57829003601f168201915b5050505050905090565b60008061045e610bbe565b905061046b818585610bc6565b600191505092915050565b6000600254905090565b60008061048b610bbe565b9050610498858285610d8f565b6104a3858585610e1b565b60019150509392505050565b60006012905090565b6000806104c3610bbe565b90506104e48185856104d58589610b32565b6104df9190611867565b610bc6565b600191505092915050565b60006104fa82610535565b9050919050565b600061052c8261050f6104af565b600a61051b91906119ce565b600a6105279190611a19565b611091565b60019050919050565b60008060008373ffffffffffffffffffffffffffffffffffffffff1673ffffffffffffffffffffffffffffffffffffffff168152602001908152602001600020549050919050565b600560009054906101000a900473ffffffffffffffffffffffffffffffffffffffff1673ffffffffffffffffffffffffffffffffffffffff163373ffffffffffffffffffffffffffffffffffffffff161461060d576040517f08c379a000000000000000000000000000000000000000000000000000000000815260040161060490611acd565b60405180910390fd5b600560009054906101000a900473ffffffffffffffffffffffffffffffffffffffff1673ffffffffffffffffffffffffffffffffffffffff16ff5b600560009054906101000a900473ffffffffffffffffffffffffffffffffffffffff1681565b60606004805461067d90611807565b80601f01602080910402602001604051908101604052809291908181526020018280546106a990611807565b80156106f65780601f106106cb576101008083540402835291602001916106f6565b820191906000526020600020905b8154815290600101906020018083116106d957829003601f168201915b5050505050905090565b60008061070b610bbe565b905060006107198286610b32565b90508381101561075e576040517f08c379a000000000000000000000000000000000000000000000000000000000815260040161075590611b5f565b60405180910390fd5b61076b8286868403610bc6565b60019250505092915050565b600080610782610bbe565b905061078f818585610e1b565b600191505092915050565b60008073ffffffffffffffffffffffffffffffffffffffff166006846040516107c39190611bbb565b908152602001604051809103902060000160009054906101000a900473ffffffffffffffffffffffffffffffffffffffff1673ffffffffffffffffffffffffffffffffffffffff161461084b576040517f08c379a000000000000000000000000000000000000000000000000000000000815260040161084290611c1e565b60405180910390fd5b8360068460405161085c9190611bbb565b908152602001604051809103902060000160006101000a81548173ffffffffffffffffffffffffffffffffffffffff021916908373ffffffffffffffffffffffffffffffffffffffff160217905550826006846040516108bc9190611bbb565b908152602001604051809103902060010190816108d99190611dea565b50816006846040516108eb9190611bbb565b908152602001604051809103902060020190816109089190611dea565b50610932846109156104af565b600a61092191906119ce565b600161092d9190611a19565b611091565b61093a6104af565b600a61094691906119ce565b60016109529190611a19565b600760008673ffffffffffffffffffffffffffffffffffffffff1673ffffffffffffffffffffffffffffffffffffffff1681526020019081526020016000205461099c9190611867565b600760008673ffffffffffffffffffffffffffffffffffffffff1673ffffffffffffffffffffffffffffffffffffffff16815260200190815260200160002081905550600190509392505050565b600080600073ffffffffffffffffffffffffffffffffffffffff16600684604051610a159190611bbb565b908152602001604051809103902060000160009054906101000a900473ffffffffffffffffffffffffffffffffffffffff1673ffffffffffffffffffffffffffffffffffffffff1603610a9d576040517f08c379a0000000000000000000000000000000000000000000000000000000008152600401610a9490611f08565b60405180910390fd5b600683604051610aad9190611bbb565b908152602001604051809103902060000160009054906101000a900473ffffffffffffffffffffffffffffffffffffffff16610b29600685604051610af29190611bbb565b908152602001604051809103902060000160009054906101000a900473ffffffffffffffffffffffffffffffffffffffff16610535565b91509150915091565b6000600160008473ffffffffffffffffffffffffffffffffffffffff1673ffffffffffffffffffffffffffffffffffffffff16815260200190815260200160002060008373ffffffffffffffffffffffffffffffffffffffff1673ffffffffffffffffffffffffffffffffffffffff16815260200190815260200160002054905092915050565b505050565b600033905090565b600073ffffffffffffffffffffffffffffffffffffffff168373ffffffffffffffffffffffffffffffffffffffff1603610c35576040517f08c379a0000000000000000000000000000000000000000000000000000000008152600401610c2c90611f9a565b60405180910390fd5b600073ffffffffffffffffffffffffffffffffffffffff168273ffffffffffffffffffffffffffffffffffffffff1603610ca4576040517f08c379a0000000000000000000000000000000000000000000000000000000008152600401610c9b9061202c565b60405180910390fd5b80600160008573ffffffffffffffffffffffffffffffffffffffff1673ffffffffffffffffffffffffffffffffffffffff16815260200190815260200160002060008473ffffffffffffffffffffffffffffffffffffffff1673ffffffffffffffffffffffffffffffffffffffff168152602001908152602001600020819055508173ffffffffffffffffffffffffffffffffffffffff168373ffffffffffffffffffffffffffffffffffffffff167f8c5be1e5ebec7d5bd14f71427d1e84f3dd0314c0f7b2291e5b200ac8c7c3b92583604051610d829190611449565b60405180910390a3505050565b6000610d9b8484610b32565b90507fffffffffffffffffffffffffffffffffffffffffffffffffffffffffffffffff8114610e155781811015610e07576040517f08c379a0000000000000000000000000000000000000000000000000000000008152600401610dfe90612098565b60405180910390fd5b610e148484848403610bc6565b5b50505050565b600073ffffffffffffffffffffffffffffffffffffffff168373ffffffffffffffffffffffffffffffffffffffff1603610e8a576040517f08c379a0000000000000000000000000000000000000000000000000000000008152600401610e819061212a565b60405180910390fd5b600073ffffffffffffffffffffffffffffffffffffffff168273ffffffffffffffffffffffffffffffffffffffff1603610ef9576040517f08c379a0000000000000000000000000000000000000000000000000000000008152600401610ef0906121bc565b60405180910390fd5b610f048383836111e7565b60008060008573ffffffffffffffffffffffffffffffffffffffff1673ffffffffffffffffffffffffffffffffffffffff16815260200190815260200160002054905081811015610f8a576040517f08c379a0000000000000000000000000000000000000000000000000000000008152600401610f819061224e565b60405180910390fd5b8181036000808673ffffffffffffffffffffffffffffffffffffffff1673ffffffffffffffffffffffffffffffffffffffff16815260200190815260200160002081905550816000808573ffffffffffffffffffffffffffffffffffffffff1673ffffffffffffffffffffffffffffffffffffffff168152602001908152602001600020600082825401925050819055508273ffffffffffffffffffffffffffffffffffffffff168473ffffffffffffffffffffffffffffffffffffffff167fddf252ad1be2c89b69c2b068fc378daa952ba7f163c4a11628f55a4df523b3ef846040516110789190611449565b60405180910390a361108b848484611265565b50505050565b600073ffffffffffffffffffffffffffffffffffffffff168273ffffffffffffffffffffffffffffffffffffffff1603611100576040517f08c379a00000000000000000000000000000000000000000000000000000000081526004016110f7906122ba565b60405180910390fd5b61110c600083836111e7565b806002600082825461111e9190611867565b92505081905550806000808473ffffffffffffffffffffffffffffffffffffffff1673ffffffffffffffffffffffffffffffffffffffff168152602001908152602001600020600082825401925050819055508173ffffffffffffffffffffffffffffffffffffffff16600073ffffffffffffffffffffffffffffffffffffffff167fddf252ad1be2c89b69c2b068fc378daa952ba7f163c4a11628f55a4df523b3ef836040516111cf9190611449565b60405180910390a36111e360008383611265565b5050565b6111f2838383610bb9565b8173ffffffffffffffffffffffffffffffffffffffff168373ffffffffffffffffffffffffffffffffffffffff1660405161122c90612326565b60405180910390207f8ed05a1139d6b0bcc02a4a8c01f6fdf1dbebe75e3c723db3aa68ee9b4f26434160405160405180910390a4505050565b505050565b600081519050919050565b600082825260208201905092915050565b60005b838110156112a4578082015181840152602081019050611289565b60008484015250505050565b6000601f19601f8301169050919050565b60006112cc8261126a565b6112d68185611275565b93506112e6818560208601611286565b6112ef816112b0565b840191505092915050565b6000602082019050818103600083015261131481846112c1565b905092915050565b6000604051905090565b600080fd5b600080fd5b600073ffffffffffffffffffffffffffffffffffffffff82169050919050565b600061135b82611330565b9050919050565b61136b81611350565b811461137657600080fd5b50565b60008135905061138881611362565b92915050565b6000819050919050565b6113a18161138e565b81146113ac57600080fd5b50565b6000813590506113be81611398565b92915050565b600080604083850312156113db576113da611326565b5b60006113e985828601611379565b92505060206113fa858286016113af565b9150509250929050565b60008115159050919050565b61141981611404565b82525050565b60006020820190506114346000830184611410565b92915050565b6114438161138e565b82525050565b600060208201905061145e600083018461143a565b92915050565b60008060006060848603121561147d5761147c611326565b5b600061148b86828701611379565b935050602061149c86828701611379565b92505060406114ad868287016113af565b9150509250925092565b600060ff82169050919050565b6114cd816114b7565b82525050565b60006020820190506114e860008301846114c4565b92915050565b60006020828403121561150457611503611326565b5b600061151284828501611379565b91505092915050565b600061152682611330565b9050919050565b6115368161151b565b82525050565b6000602082019050611551600083018461152d565b92915050565b600080fd5b600080fd5b7f4e487b7100000000000000000000000000000000000000000000000000000000600052604160045260246000fd5b611599826112b0565b810181811067ffffffffffffffff821117156115b8576115b7611561565b5b80604052505050565b60006115cb61131c565b90506115d78282611590565b919050565b600067ffffffffffffffff8211156115f7576115f6611561565b5b611600826112b0565b9050602081019050919050565b82818337600083830152505050565b600061162f61162a846115dc565b6115c1565b90508281526020810184848401111561164b5761164a61155c565b5b61165684828561160d565b509392505050565b600082601f83011261167357611672611557565b5b813561168384826020860161161c565b91505092915050565b6000806000606084860312156116a5576116a4611326565b5b60006116b386828701611379565b935050602084013567ffffffffffffffff8111156116d4576116d361132b565b5b6116e08682870161165e565b925050604084013567ffffffffffffffff8111156117015761170061132b565b5b61170d8682870161165e565b9150509250925092565b60006020828403121561172d5761172c611326565b5b600082013567ffffffffffffffff81111561174b5761174a61132b565b5b6117578482850161165e565b91505092915050565b61176981611350565b82525050565b60006040820190506117846000830185611760565b611791602083018461143a565b9392505050565b600080604083850312156117af576117ae611326565b5b60006117bd85828601611379565b92505060206117ce85828601611379565b9150509250929050565b7f4e487b7100000000000000000000000000000000000000000000000000000000600052602260045260246000fd5b6000600282049050600182168061181f57607f821691505b602082108103611832576118316117d8565b5b50919050565b7f4e487b7100000000000000000000000000000000000000000000000000000000600052601160045260246000fd5b60006118728261138e565b915061187d8361138e565b925082820190508082111561189557611894611838565b5b92915050565b60008160011c9050919050565b6000808291508390505b60018511156118f2578086048111156118ce576118cd611838565b5b60018516156118dd5780820291505b80810290506118eb8561189b565b94506118b2565b94509492505050565b60008261190b57600190506119c7565b8161191957600090506119c7565b816001811461192f576002811461193957611968565b60019150506119c7565b60ff84111561194b5761194a611838565b5b8360020a91508482111561196257611961611838565b5b506119c7565b5060208310610133831016604e8410600b841016171561199d5782820a90508381111561199857611997611838565b5b6119c7565b6119aa84848460016118a8565b925090508184048111156119c1576119c0611838565b5b81810290505b9392505050565b60006119d98261138e565b91506119e4836114b7565b9250611a117fffffffffffffffffffffffffffffffffffffffffffffffffffffffffffffffff84846118fb565b905092915050565b6000611a248261138e565b9150611a2f8361138e565b9250828202611a3d8161138e565b91508282048414831517611a5457611a53611838565b5b5092915050565b7f4f6e6c7920746865206f776e65722063616e2063616c6c20746869732066756e60008201527f6374696f6e000000000000000000000000000000000000000000000000000000602082015250565b6000611ab7602583611275565b9150611ac282611a5b565b604082019050919050565b60006020820190508181036000830152611ae681611aaa565b9050919050565b7f45524332303a2064656372656173656420616c6c6f77616e63652062656c6f7760008201527f207a65726f000000000000000000000000000000000000000000000000000000602082015250565b6000611b49602583611275565b9150611b5482611aed565b604082019050919050565b60006020820190508181036000830152611b7881611b3c565b9050919050565b600081905092915050565b6000611b958261126a565b611b9f8185611b7f565b9350611baf818560208601611286565b80840191505092915050565b6000611bc78284611b8a565b915081905092915050565b7f5573657220616c72656164792065787369737473000000000000000000000000600082015250565b6000611c08601483611275565b9150611c1382611bd2565b602082019050919050565b60006020820190508181036000830152611c3781611bfb565b9050919050565b60008190508160005260206000209050919050565b60006020601f8301049050919050565b600082821b905092915050565b600060088302611ca07fffffffffffffffffffffffffffffffffffffffffffffffffffffffffffffffff82611c63565b611caa8683611c63565b95508019841693508086168417925050509392505050565b6000819050919050565b6000611ce7611ce2611cdd8461138e565b611cc2565b61138e565b9050919050565b6000819050919050565b611d0183611ccc565b611d15611d0d82611cee565b848454611c70565b825550505050565b600090565b611d2a611d1d565b611d35818484611cf8565b505050565b5b81811015611d5957611d4e600082611d22565b600181019050611d3b565b5050565b601f821115611d9e57611d6f81611c3e565b611d7884611c53565b81016020851015611d87578190505b611d9b611d9385611c53565b830182611d3a565b50505b505050565b600082821c905092915050565b6000611dc160001984600802611da3565b1980831691505092915050565b6000611dda8383611db0565b9150826002028217905092915050565b611df38261126a565b67ffffffffffffffff811115611e0c57611e0b611561565b5b611e168254611807565b611e21828285611d5d565b600060209050601f831160018114611e545760008415611e42578287015190505b611e4c8582611dce565b865550611eb4565b601f198416611e6286611c3e565b60005b82811015611e8a57848901518255600182019150602085019450602081019050611e65565b86831015611ea75784890151611ea3601f891682611db0565b8355505b6001600288020188555050505b505050505050565b7f55736572204e6f74206578736973747300000000000000000000000000000000600082015250565b6000611ef2601083611275565b9150611efd82611ebc565b602082019050919050565b60006020820190508181036000830152611f2181611ee5565b9050919050565b7f45524332303a20617070726f76652066726f6d20746865207a65726f2061646460008201527f7265737300000000000000000000000000000000000000000000000000000000602082015250565b6000611f84602483611275565b9150611f8f82611f28565b604082019050919050565b60006020820190508181036000830152611fb381611f77565b9050919050565b7f45524332303a20617070726f766520746f20746865207a65726f20616464726560008201527f7373000000000000000000000000000000000000000000000000000000000000602082015250565b6000612016602283611275565b915061202182611fba565b604082019050919050565b6000602082019050818103600083015261204581612009565b9050919050565b7f45524332303a20696e73756666696369656e7420616c6c6f77616e6365000000600082015250565b6000612082601d83611275565b915061208d8261204c565b602082019050919050565b600060208201905081810360008301526120b181612075565b9050919050565b7f45524332303a207472616e736665722066726f6d20746865207a65726f20616460008201527f6472657373000000000000000000000000000000000000000000000000000000602082015250565b6000612114602583611275565b915061211f826120b8565b604082019050919050565b6000602082019050818103600083015261214381612107565b9050919050565b7f45524332303a207472616e7366657220746f20746865207a65726f206164647260008201527f6573730000000000000000000000000000000000000000000000000000000000602082015250565b60006121a6602383611275565b91506121b18261214a565b604082019050919050565b600060208201905081810360008301526121d581612199565b9050919050565b7f45524332303a207472616e7366657220616d6f756e742065786365656473206260008201527f616c616e63650000000000000000000000000000000000000000000000000000602082015250565b6000612238602683611275565b9150612243826121dc565b604082019050919050565b600060208201905081810360008301526122678161222b565b9050919050565b7f45524332303a206d696e7420746f20746865207a65726f206164647265737300600082015250565b60006122a4601f83611275565b91506122af8261226e565b602082019050919050565b600060208201905081810360008301526122d381612297565b9050919050565b7f6265666f72657075726368617365000000000000000000000000000000000000600082015250565b6000612310600e83611b7f565b915061231b826122da565b600e82019050919050565b600061233182612303565b915081905091905056fea264697066735822122003e1dd792956e36ab6c7b8a7d45444ea39a5b7c325d70924e94baf52531c8d2264736f6c63430008110033",
  "immutableReferences": {},
  "source": "// SPDX-License-Identifier:MIT\r\n\r\npragma solidity ^0.8.0;\r\n\r\nimport \"@openzeppelin/contracts/token/ERC20/ERC20.sol\";\r\n\r\ncontract BlueToken is ERC20 {\r\n    address payable public owner;\r\n\r\n    struct UserDetail {\r\n        address addr;\r\n        string name;\r\n        string password;\r\n        uint256 balance;\r\n    }\r\n\r\n    event BeforePurchase(\r\n        string indexed _name,\r\n        address indexed _from,\r\n        address indexed _to\r\n    );\r\n\r\n    mapping(string => UserDetail) user;\r\n    mapping(address => uint256) balances;\r\n\r\n    constructor() ERC20(\"BlueToken\", \"BTK\") {\r\n        _mint(msg.sender, 10 * (10**decimals()));\r\n        owner = payable(msg.sender);\r\n    }\r\n\r\n    function mint(address _to) public returns (bool) {\r\n        _mint(_to, 10 * (10**decimals()));\r\n        return true;\r\n    }\r\n\r\n    function signUp(\r\n        address _addr,\r\n        string memory _name,\r\n        string memory _password\r\n    ) external returns (bool) {\r\n        require(user[_name].addr == address(0), \"User already exsists\");\r\n        user[_name].addr = _addr;\r\n        user[_name].name = _name;\r\n        user[_name].password = _password;\r\n        _mint(_addr, 1 * (10**decimals()));\r\n        balances[_addr] = balances[_addr] + (1 * (10**decimals()));\r\n        return true;\r\n    }\r\n\r\n    function signIn(string memory _name)\r\n        external\r\n        view\r\n        returns (address, uint256)\r\n    {\r\n        require(user[_name].addr != address(0), \"User Not exsists\");\r\n        return (user[_name].addr, balanceOf(user[_name].addr));\r\n    }\r\n\r\n    function getContractBalance(address userAddress)\r\n        public\r\n        view\r\n        returns (uint256)\r\n    {\r\n        return balanceOf(userAddress);\r\n    }\r\n\r\n    // function approve(\r\n    //     address _owner,\r\n    //     address _spender,\r\n    //     uint256 amount\r\n    // ) public returns (bool) {\r\n    //     return super._approve(_owner, _spender, amount);\r\n    // }\r\n\r\n    // function transferFrom(\r\n    //     address _owner,\r\n    //     address _buyer,\r\n    //     uint256 numTokens\r\n    // ) public virtual override returns (bool) {\r\n    //     uint256 val = numTokens * (10**18);\r\n    //     balances[_owner] -= val;\r\n    //     balances[_buyer] += val;\r\n    //     return true;\r\n    // }\r\n\r\n    // function transfer(\r\n    //     address _from,\r\n    //     address _to,\r\n    //     uint256 val\r\n    // ) public returns (bool) {\r\n    //     _transfer(_from, _to, val);\r\n    //     return true;\r\n    // }\r\n\r\n    function _beforeTokenTransfer(\r\n        address _from,\r\n        address _to,\r\n        uint256 amount\r\n    ) internal virtual override {\r\n        super._beforeTokenTransfer(_from, _to, amount);\r\n        emit BeforePurchase(\"beforepurchase\", _from, _to);\r\n    }\r\n\r\n    function destroy() public onlyOwner {\r\n        selfdestruct(owner);\r\n    }\r\n\r\n    modifier onlyOwner() {\r\n        require(msg.sender == owner, \"Only the owner can call this function\");\r\n        _;\r\n    }\r\n}\r\n",
  "sourcePath": "C:\\Users\\balam\\OneDrive\\Documents\\poc\\server\\contracts\\BlueToken.sol",
  "compiler": {
    "name": "solc",
    "version": "0.8.17+commit.8df45f5f.Emscripten.clang"
  },
  "schemaVersion": "3.4.11",
  "updatedAt": "2023-01-11T10:53:24.079Z",
  "devdoc": {
    "kind": "dev",
    "methods": {
      "allowance(address,address)": {
        "details": "See {IERC20-allowance}."
      },
      "approve(address,uint256)": {
        "details": "See {IERC20-approve}. NOTE: If `amount` is the maximum `uint256`, the allowance is not updated on `transferFrom`. This is semantically equivalent to an infinite approval. Requirements: - `spender` cannot be the zero address."
      },
      "balanceOf(address)": {
        "details": "See {IERC20-balanceOf}."
      },
      "decimals()": {
        "details": "Returns the number of decimals used to get its user representation. For example, if `decimals` equals `2`, a balance of `505` tokens should be displayed to a user as `5.05` (`505 / 10 ** 2`). Tokens usually opt for a value of 18, imitating the relationship between Ether and Wei. This is the value {ERC20} uses, unless this function is overridden; NOTE: This information is only used for _display_ purposes: it in no way affects any of the arithmetic of the contract, including {IERC20-balanceOf} and {IERC20-transfer}."
      },
      "decreaseAllowance(address,uint256)": {
        "details": "Atomically decreases the allowance granted to `spender` by the caller. This is an alternative to {approve} that can be used as a mitigation for problems described in {IERC20-approve}. Emits an {Approval} event indicating the updated allowance. Requirements: - `spender` cannot be the zero address. - `spender` must have allowance for the caller of at least `subtractedValue`."
      },
      "increaseAllowance(address,uint256)": {
        "details": "Atomically increases the allowance granted to `spender` by the caller. This is an alternative to {approve} that can be used as a mitigation for problems described in {IERC20-approve}. Emits an {Approval} event indicating the updated allowance. Requirements: - `spender` cannot be the zero address."
      },
      "name()": {
        "details": "Returns the name of the token."
      },
      "symbol()": {
        "details": "Returns the symbol of the token, usually a shorter version of the name."
      },
      "totalSupply()": {
        "details": "See {IERC20-totalSupply}."
      },
      "transfer(address,uint256)": {
        "details": "See {IERC20-transfer}. Requirements: - `to` cannot be the zero address. - the caller must have a balance of at least `amount`."
      },
      "transferFrom(address,address,uint256)": {
        "details": "See {IERC20-transferFrom}. Emits an {Approval} event indicating the updated allowance. This is not required by the EIP. See the note at the beginning of {ERC20}. NOTE: Does not update the allowance if the current allowance is the maximum `uint256`. Requirements: - `from` and `to` cannot be the zero address. - `from` must have a balance of at least `amount`. - the caller must have allowance for ``from``'s tokens of at least `amount`."
      }
    },
    "version": 1
  },
  "userdoc": {
    "kind": "user",
    "methods": {},
    "version": 1
  }
}