{
  "contractName": "BlueToken",
  "abi": [
    {
      "inputs": [],
      "stateMutability": "nonpayable",
      "type": "constructor"
    },
    {
      "anonymous": false,
      "inputs": [
        {
          "indexed": true,
          "internalType": "address",
          "name": "owner",
          "type": "address"
        },
        {
          "indexed": true,
          "internalType": "address",
          "name": "spender",
          "type": "address"
        },
        {
          "indexed": false,
          "internalType": "uint256",
          "name": "value",
          "type": "uint256"
        }
      ],
      "name": "Approval",
      "type": "event"
    },
    {
      "anonymous": false,
      "inputs": [
        {
          "indexed": true,
          "internalType": "string",
          "name": "_name",
          "type": "string"
        },
        {
          "indexed": true,
          "internalType": "address",
          "name": "_from",
          "type": "address"
        },
        {
          "indexed": true,
          "internalType": "address",
          "name": "_to",
          "type": "address"
        }
      ],
      "name": "BeforePurchase",
      "type": "event"
    },
    {
      "anonymous": false,
      "inputs": [
        {
          "indexed": true,
          "internalType": "address",
          "name": "from",
          "type": "address"
        },
        {
          "indexed": true,
          "internalType": "address",
          "name": "to",
          "type": "address"
        },
        {
          "indexed": false,
          "internalType": "uint256",
          "name": "value",
          "type": "uint256"
        }
      ],
      "name": "Transfer",
      "type": "event"
    },
    {
      "inputs": [
        {
          "internalType": "address",
          "name": "owner",
          "type": "address"
        },
        {
          "internalType": "address",
          "name": "spender",
          "type": "address"
        }
      ],
      "name": "allowance",
      "outputs": [
        {
          "internalType": "uint256",
          "name": "",
          "type": "uint256"
        }
      ],
      "stateMutability": "view",
      "type": "function"
    },
    {
      "inputs": [
        {
          "internalType": "address",
          "name": "spender",
          "type": "address"
        },
        {
          "internalType": "uint256",
          "name": "amount",
          "type": "uint256"
        }
      ],
      "name": "approve",
      "outputs": [
        {
          "internalType": "bool",
          "name": "",
          "type": "bool"
        }
      ],
      "stateMutability": "nonpayable",
      "type": "function"
    },
    {
      "inputs": [
        {
          "internalType": "address",
          "name": "account",
          "type": "address"
        }
      ],
      "name": "balanceOf",
      "outputs": [
        {
          "internalType": "uint256",
          "name": "",
          "type": "uint256"
        }
      ],
      "stateMutability": "view",
      "type": "function"
    },
    {
      "inputs": [],
      "name": "decimals",
      "outputs": [
        {
          "internalType": "uint8",
          "name": "",
          "type": "uint8"
        }
      ],
      "stateMutability": "view",
      "type": "function"
    },
    {
      "inputs": [
        {
          "internalType": "address",
          "name": "spender",
          "type": "address"
        },
        {
          "internalType": "uint256",
          "name": "subtractedValue",
          "type": "uint256"
        }
      ],
      "name": "decreaseAllowance",
      "outputs": [
        {
          "internalType": "bool",
          "name": "",
          "type": "bool"
        }
      ],
      "stateMutability": "nonpayable",
      "type": "function"
    },
    {
      "inputs": [
        {
          "internalType": "address",
          "name": "spender",
          "type": "address"
        },
        {
          "internalType": "uint256",
          "name": "addedValue",
          "type": "uint256"
        }
      ],
      "name": "increaseAllowance",
      "outputs": [
        {
          "internalType": "bool",
          "name": "",
          "type": "bool"
        }
      ],
      "stateMutability": "nonpayable",
      "type": "function"
    },
    {
      "inputs": [],
      "name": "name",
      "outputs": [
        {
          "internalType": "string",
          "name": "",
          "type": "string"
        }
      ],
      "stateMutability": "view",
      "type": "function"
    },
    {
      "inputs": [],
      "name": "owner",
      "outputs": [
        {
          "internalType": "address payable",
          "name": "",
          "type": "address"
        }
      ],
      "stateMutability": "view",
      "type": "function"
    },
    {
      "inputs": [],
      "name": "rate",
      "outputs": [
        {
          "internalType": "uint256",
          "name": "",
          "type": "uint256"
        }
      ],
      "stateMutability": "view",
      "type": "function"
    },
    {
      "inputs": [],
      "name": "symbol",
      "outputs": [
        {
          "internalType": "string",
          "name": "",
          "type": "string"
        }
      ],
      "stateMutability": "view",
      "type": "function"
    },
    {
      "inputs": [],
      "name": "totalSupply",
      "outputs": [
        {
          "internalType": "uint256",
          "name": "",
          "type": "uint256"
        }
      ],
      "stateMutability": "view",
      "type": "function"
    },
    {
      "inputs": [
        {
          "internalType": "address",
          "name": "to",
          "type": "address"
        },
        {
          "internalType": "uint256",
          "name": "amount",
          "type": "uint256"
        }
      ],
      "name": "transfer",
      "outputs": [
        {
          "internalType": "bool",
          "name": "",
          "type": "bool"
        }
      ],
      "stateMutability": "nonpayable",
      "type": "function"
    },
    {
      "inputs": [
        {
          "internalType": "address",
          "name": "from",
          "type": "address"
        },
        {
          "internalType": "address",
          "name": "to",
          "type": "address"
        },
        {
          "internalType": "uint256",
          "name": "amount",
          "type": "uint256"
        }
      ],
      "name": "transferFrom",
      "outputs": [
        {
          "internalType": "bool",
          "name": "",
          "type": "bool"
        }
      ],
      "stateMutability": "nonpayable",
      "type": "function"
    },
    {
      "stateMutability": "payable",
      "type": "receive"
    },
    {
      "inputs": [
        {
          "internalType": "address payable",
          "name": "_to",
          "type": "address"
        },
        {
          "internalType": "uint256",
          "name": "amount",
          "type": "uint256"
        }
      ],
      "name": "mint",
      "outputs": [
        {
          "internalType": "bool",
          "name": "",
          "type": "bool"
        }
      ],
      "stateMutability": "nonpayable",
      "type": "function"
    },
    {
      "inputs": [
        {
          "internalType": "address",
          "name": "_addr",
          "type": "address"
        },
        {
          "internalType": "string",
          "name": "_name",
          "type": "string"
        },
        {
          "internalType": "string",
          "name": "_password",
          "type": "string"
        }
      ],
      "name": "signUp",
      "outputs": [
        {
          "internalType": "bool",
          "name": "",
          "type": "bool"
        }
      ],
      "stateMutability": "nonpayable",
      "type": "function"
    },
    {
      "inputs": [
        {
          "internalType": "string",
          "name": "_name",
          "type": "string"
        }
      ],
      "name": "signIn",
      "outputs": [
        {
          "internalType": "address",
          "name": "",
          "type": "address"
        },
        {
          "internalType": "uint256",
          "name": "",
          "type": "uint256"
        }
      ],
      "stateMutability": "view",
      "type": "function"
    },
    {
      "inputs": [
        {
          "internalType": "address payable",
          "name": "_addr",
          "type": "address"
        }
      ],
      "name": "userBalance",
      "outputs": [
        {
          "internalType": "uint256",
          "name": "",
          "type": "uint256"
        }
      ],
      "stateMutability": "view",
      "type": "function"
    },
    {
      "inputs": [
        {
          "internalType": "address",
          "name": "userAddress",
          "type": "address"
        }
      ],
      "name": "getTokenBalance",
      "outputs": [
        {
          "internalType": "uint256",
          "name": "",
          "type": "uint256"
        }
      ],
      "stateMutability": "view",
      "type": "function"
    },
    {
      "inputs": [],
      "name": "destroy",
      "outputs": [],
      "stateMutability": "nonpayable",
      "type": "function"
    }
  ],
  "bytecode": "0x608060405260016006553480156200001657600080fd5b506040518060400160405280600981526020017f426c7565546f6b656e00000000000000000000000000000000000000000000008152506040518060400160405280600381526020017f42544b00000000000000000000000000000000000000000000000000000000008152508160039081620000949190620005b4565b508060049081620000a69190620005b4565b505050620000e633620000be6200012d60201b60201c565b600a620000cc91906200082b565b600a620000da91906200087c565b6200013660201b60201c565b33600560006101000a81548173ffffffffffffffffffffffffffffffffffffffff021916908373ffffffffffffffffffffffffffffffffffffffff16021790555062000a25565b60006012905090565b600073ffffffffffffffffffffffffffffffffffffffff168273ffffffffffffffffffffffffffffffffffffffff1603620001a8576040517f08c379a00000000000000000000000000000000000000000000000000000000081526004016200019f9062000928565b60405180910390fd5b620001bc60008383620002a360201b60201c565b8060026000828254620001d091906200094a565b92505081905550806000808473ffffffffffffffffffffffffffffffffffffffff1673ffffffffffffffffffffffffffffffffffffffff168152602001908152602001600020600082825401925050819055508173ffffffffffffffffffffffffffffffffffffffff16600073ffffffffffffffffffffffffffffffffffffffff167fddf252ad1be2c89b69c2b068fc378daa952ba7f163c4a11628f55a4df523b3ef8360405162000283919062000996565b60405180910390a36200029f600083836200033060201b60201c565b5050565b620002bb8383836200033560201b62000ca51760201c565b8173ffffffffffffffffffffffffffffffffffffffff168373ffffffffffffffffffffffffffffffffffffffff16604051620002f79062000a0e565b60405180910390207f8ed05a1139d6b0bcc02a4a8c01f6fdf1dbebe75e3c723db3aa68ee9b4f26434160405160405180910390a4505050565b505050565b505050565b600081519050919050565b7f4e487b7100000000000000000000000000000000000000000000000000000000600052604160045260246000fd5b7f4e487b7100000000000000000000000000000000000000000000000000000000600052602260045260246000fd5b60006002820490506001821680620003bc57607f821691505b602082108103620003d257620003d162000374565b5b50919050565b60008190508160005260206000209050919050565b60006020601f8301049050919050565b600082821b905092915050565b6000600883026200043c7fffffffffffffffffffffffffffffffffffffffffffffffffffffffffffffffff82620003fd565b620004488683620003fd565b95508019841693508086168417925050509392505050565b6000819050919050565b6000819050919050565b6000620004956200048f620004898462000460565b6200046a565b62000460565b9050919050565b6000819050919050565b620004b18362000474565b620004c9620004c0826200049c565b8484546200040a565b825550505050565b600090565b620004e0620004d1565b620004ed818484620004a6565b505050565b5b81811015620005155762000509600082620004d6565b600181019050620004f3565b5050565b601f82111562000564576200052e81620003d8565b6200053984620003ed565b8101602085101562000549578190505b620005616200055885620003ed565b830182620004f2565b50505b505050565b600082821c905092915050565b6000620005896000198460080262000569565b1980831691505092915050565b6000620005a4838362000576565b9150826002028217905092915050565b620005bf826200033a565b67ffffffffffffffff811115620005db57620005da62000345565b5b620005e78254620003a3565b620005f482828562000519565b600060209050601f8311600181146200062c576000841562000617578287015190505b62000623858262000596565b86555062000693565b601f1984166200063c86620003d8565b60005b8281101562000666578489015182556001820191506020850194506020810190506200063f565b8683101562000686578489015162000682601f89168262000576565b8355505b6001600288020188555050505b505050505050565b7f4e487b7100000000000000000000000000000000000000000000000000000000600052601160045260246000fd5b60008160011c9050919050565b6000808291508390505b600185111562000729578086048111156200070157620007006200069b565b5b6001851615620007115780820291505b80810290506200072185620006ca565b9450620006e1565b94509492505050565b60008262000744576001905062000817565b8162000754576000905062000817565b81600181146200076d57600281146200077857620007ae565b600191505062000817565b60ff8411156200078d576200078c6200069b565b5b8360020a915084821115620007a757620007a66200069b565b5b5062000817565b5060208310610133831016604e8410600b8410161715620007e85782820a905083811115620007e257620007e16200069b565b5b62000817565b620007f78484846001620006d7565b925090508184048111156200081157620008106200069b565b5b81810290505b9392505050565b600060ff82169050919050565b6000620008388262000460565b915062000845836200081e565b9250620008747fffffffffffffffffffffffffffffffffffffffffffffffffffffffffffffffff848462000732565b905092915050565b6000620008898262000460565b9150620008968362000460565b9250828202620008a68162000460565b91508282048414831517620008c057620008bf6200069b565b5b5092915050565b600082825260208201905092915050565b7f45524332303a206d696e7420746f20746865207a65726f206164647265737300600082015250565b600062000910601f83620008c7565b91506200091d82620008d8565b602082019050919050565b60006020820190508181036000830152620009438162000901565b9050919050565b6000620009578262000460565b9150620009648362000460565b92508282019050808211156200097f576200097e6200069b565b5b92915050565b620009908162000460565b82525050565b6000602082019050620009ad600083018462000985565b92915050565b600081905092915050565b7f6265666f72657075726368617365000000000000000000000000000000000000600082015250565b6000620009f6600e83620009b3565b915062000a0382620009be565b600e82019050919050565b600062000a1b82620009e7565b9150819050919050565b6125628062000a356000396000f3fe6080604052600436106101185760003560e01c806340c10f19116100a0578063a457c2d711610064578063a457c2d7146103e8578063a9059cbb14610425578063a9b4d91914610462578063c95f728a1461049f578063dd62ed3e146104dd5761011f565b806340c10f191461030157806370a082311461033e57806383197ef01461037b5780638da5cb5b1461039257806395d89b41146103bd5761011f565b806323b872dd116100e757806323b872dd146101f45780632c4e722e14610231578063313ce5671461025c57806339509351146102875780633aecd0e3146102c45761011f565b80630103c92b1461012457806306fdde0314610161578063095ea7b31461018c57806318160ddd146101c95761011f565b3661011f57005b600080fd5b34801561013057600080fd5b5061014b600480360381019061014691906113c8565b61051a565b604051610158919061140e565b60405180910390f35b34801561016d57600080fd5b5061017661053b565b60405161018391906114b9565b60405180910390f35b34801561019857600080fd5b506101b360048036038101906101ae9190611545565b6105cd565b6040516101c091906115a0565b60405180910390f35b3480156101d557600080fd5b506101de6105f0565b6040516101eb919061140e565b60405180910390f35b34801561020057600080fd5b5061021b600480360381019061021691906115bb565b6105fa565b60405161022891906115a0565b60405180910390f35b34801561023d57600080fd5b50610246610629565b604051610253919061140e565b60405180910390f35b34801561026857600080fd5b5061027161062f565b60405161027e919061162a565b60405180910390f35b34801561029357600080fd5b506102ae60048036038101906102a99190611545565b610638565b6040516102bb91906115a0565b60405180910390f35b3480156102d057600080fd5b506102eb60048036038101906102e69190611645565b61066f565b6040516102f8919061140e565b60405180910390f35b34801561030d57600080fd5b5061032860048036038101906103239190611672565b610681565b60405161033591906115a0565b60405180910390f35b34801561034a57600080fd5b5061036560048036038101906103609190611645565b6106f7565b604051610372919061140e565b60405180910390f35b34801561038757600080fd5b5061039061073f565b005b34801561039e57600080fd5b506103a761080a565b6040516103b491906116c1565b60405180910390f35b3480156103c957600080fd5b506103d2610830565b6040516103df91906114b9565b60405180910390f35b3480156103f457600080fd5b5061040f600480360381019061040a9190611545565b6108c2565b60405161041c91906115a0565b60405180910390f35b34801561043157600080fd5b5061044c60048036038101906104479190611545565b610939565b60405161045991906115a0565b60405180910390f35b34801561046e57600080fd5b5061048960048036038101906104849190611811565b61095c565b60405161049691906115a0565b60405180910390f35b3480156104ab57600080fd5b506104c660048036038101906104c1919061189c565b610ad6565b6040516104d49291906118f4565b60405180910390f35b3480156104e957600080fd5b5061050460048036038101906104ff919061191d565b610c1e565b604051610511919061140e565b60405180910390f35b60008173ffffffffffffffffffffffffffffffffffffffff16319050919050565b60606003805461054a9061198c565b80601f01602080910402602001604051908101604052809291908181526020018280546105769061198c565b80156105c35780601f10610598576101008083540402835291602001916105c3565b820191906000526020600020905b8154815290600101906020018083116105a657829003601f168201915b5050505050905090565b6000806105d8610caa565b90506105e5818585610cb2565b600191505092915050565b6000600254905090565b600080610605610caa565b9050610612858285610e7b565b61061d858585610f07565b60019150509392505050565b60065481565b60006012905090565b600080610643610caa565b90506106648185856106558589610c1e565b61065f91906119ec565b610cb2565b600191505092915050565b600061067a826106f7565b9050919050565b60008082116106c5576040517f08c379a00000000000000000000000000000000000000000000000000000000081526004016106bc90611a6c565b60405180910390fd5b6106ed836106d161062f565b600a6106dd9190611bbf565b846106e89190611c0a565b61117d565b6001905092915050565b60008060008373ffffffffffffffffffffffffffffffffffffffff1673ffffffffffffffffffffffffffffffffffffffff168152602001908152602001600020549050919050565b600560009054906101000a900473ffffffffffffffffffffffffffffffffffffffff1673ffffffffffffffffffffffffffffffffffffffff163373ffffffffffffffffffffffffffffffffffffffff16146107cf576040517f08c379a00000000000000000000000000000000000000000000000000000000081526004016107c690611cbe565b60405180910390fd5b600560009054906101000a900473ffffffffffffffffffffffffffffffffffffffff1673ffffffffffffffffffffffffffffffffffffffff16ff5b600560009054906101000a900473ffffffffffffffffffffffffffffffffffffffff1681565b60606004805461083f9061198c565b80601f016020809104026020016040519081016040528092919081815260200182805461086b9061198c565b80156108b85780601f1061088d576101008083540402835291602001916108b8565b820191906000526020600020905b81548152906001019060200180831161089b57829003601f168201915b5050505050905090565b6000806108cd610caa565b905060006108db8286610c1e565b905083811015610920576040517f08c379a000000000000000000000000000000000000000000000000000000000815260040161091790611d50565b60405180910390fd5b61092d8286868403610cb2565b60019250505092915050565b600080610944610caa565b9050610951818585610f07565b600191505092915050565b60008073ffffffffffffffffffffffffffffffffffffffff166007846040516109859190611dac565b908152602001604051809103902060000160009054906101000a900473ffffffffffffffffffffffffffffffffffffffff1673ffffffffffffffffffffffffffffffffffffffff1614610a0d576040517f08c379a0000000000000000000000000000000000000000000000000000000008152600401610a0490611e0f565b60405180910390fd5b83600784604051610a1e9190611dac565b908152602001604051809103902060000160006101000a81548173ffffffffffffffffffffffffffffffffffffffff021916908373ffffffffffffffffffffffffffffffffffffffff16021790555082600784604051610a7e9190611dac565b90815260200160405180910390206001019081610a9b9190611fdb565b5081600784604051610aad9190611dac565b90815260200160405180910390206002019081610aca9190611fdb565b50600190509392505050565b600080600073ffffffffffffffffffffffffffffffffffffffff16600784604051610b019190611dac565b908152602001604051809103902060000160009054906101000a900473ffffffffffffffffffffffffffffffffffffffff1673ffffffffffffffffffffffffffffffffffffffff1603610b89576040517f08c379a0000000000000000000000000000000000000000000000000000000008152600401610b80906120f9565b60405180910390fd5b600783604051610b999190611dac565b908152602001604051809103902060000160009054906101000a900473ffffffffffffffffffffffffffffffffffffffff16610c15600785604051610bde9190611dac565b908152602001604051809103902060000160009054906101000a900473ffffffffffffffffffffffffffffffffffffffff166106f7565b91509150915091565b6000600160008473ffffffffffffffffffffffffffffffffffffffff1673ffffffffffffffffffffffffffffffffffffffff16815260200190815260200160002060008373ffffffffffffffffffffffffffffffffffffffff1673ffffffffffffffffffffffffffffffffffffffff16815260200190815260200160002054905092915050565b505050565b600033905090565b600073ffffffffffffffffffffffffffffffffffffffff168373ffffffffffffffffffffffffffffffffffffffff1603610d21576040517f08c379a0000000000000000000000000000000000000000000000000000000008152600401610d189061218b565b60405180910390fd5b600073ffffffffffffffffffffffffffffffffffffffff168273ffffffffffffffffffffffffffffffffffffffff1603610d90576040517f08c379a0000000000000000000000000000000000000000000000000000000008152600401610d879061221d565b60405180910390fd5b80600160008573ffffffffffffffffffffffffffffffffffffffff1673ffffffffffffffffffffffffffffffffffffffff16815260200190815260200160002060008473ffffffffffffffffffffffffffffffffffffffff1673ffffffffffffffffffffffffffffffffffffffff168152602001908152602001600020819055508173ffffffffffffffffffffffffffffffffffffffff168373ffffffffffffffffffffffffffffffffffffffff167f8c5be1e5ebec7d5bd14f71427d1e84f3dd0314c0f7b2291e5b200ac8c7c3b92583604051610e6e919061140e565b60405180910390a3505050565b6000610e878484610c1e565b90507fffffffffffffffffffffffffffffffffffffffffffffffffffffffffffffffff8114610f015781811015610ef3576040517f08c379a0000000000000000000000000000000000000000000000000000000008152600401610eea90612289565b60405180910390fd5b610f008484848403610cb2565b5b50505050565b600073ffffffffffffffffffffffffffffffffffffffff168373ffffffffffffffffffffffffffffffffffffffff1603610f76576040517f08c379a0000000000000000000000000000000000000000000000000000000008152600401610f6d9061231b565b60405180910390fd5b600073ffffffffffffffffffffffffffffffffffffffff168273ffffffffffffffffffffffffffffffffffffffff1603610fe5576040517f08c379a0000000000000000000000000000000000000000000000000000000008152600401610fdc906123ad565b60405180910390fd5b610ff08383836112d3565b60008060008573ffffffffffffffffffffffffffffffffffffffff1673ffffffffffffffffffffffffffffffffffffffff16815260200190815260200160002054905081811015611076576040517f08c379a000000000000000000000000000000000000000000000000000000000815260040161106d9061243f565b60405180910390fd5b8181036000808673ffffffffffffffffffffffffffffffffffffffff1673ffffffffffffffffffffffffffffffffffffffff16815260200190815260200160002081905550816000808573ffffffffffffffffffffffffffffffffffffffff1673ffffffffffffffffffffffffffffffffffffffff168152602001908152602001600020600082825401925050819055508273ffffffffffffffffffffffffffffffffffffffff168473ffffffffffffffffffffffffffffffffffffffff167fddf252ad1be2c89b69c2b068fc378daa952ba7f163c4a11628f55a4df523b3ef84604051611164919061140e565b60405180910390a3611177848484611351565b50505050565b600073ffffffffffffffffffffffffffffffffffffffff168273ffffffffffffffffffffffffffffffffffffffff16036111ec576040517f08c379a00000000000000000000000000000000000000000000000000000000081526004016111e3906124ab565b60405180910390fd5b6111f8600083836112d3565b806002600082825461120a91906119ec565b92505081905550806000808473ffffffffffffffffffffffffffffffffffffffff1673ffffffffffffffffffffffffffffffffffffffff168152602001908152602001600020600082825401925050819055508173ffffffffffffffffffffffffffffffffffffffff16600073ffffffffffffffffffffffffffffffffffffffff167fddf252ad1be2c89b69c2b068fc378daa952ba7f163c4a11628f55a4df523b3ef836040516112bb919061140e565b60405180910390a36112cf60008383611351565b5050565b6112de838383610ca5565b8173ffffffffffffffffffffffffffffffffffffffff168373ffffffffffffffffffffffffffffffffffffffff1660405161131890612517565b60405180910390207f8ed05a1139d6b0bcc02a4a8c01f6fdf1dbebe75e3c723db3aa68ee9b4f26434160405160405180910390a4505050565b505050565b6000604051905090565b600080fd5b600080fd5b600073ffffffffffffffffffffffffffffffffffffffff82169050919050565b60006113958261136a565b9050919050565b6113a58161138a565b81146113b057600080fd5b50565b6000813590506113c28161139c565b92915050565b6000602082840312156113de576113dd611360565b5b60006113ec848285016113b3565b91505092915050565b6000819050919050565b611408816113f5565b82525050565b600060208201905061142360008301846113ff565b92915050565b600081519050919050565b600082825260208201905092915050565b60005b83811015611463578082015181840152602081019050611448565b60008484015250505050565b6000601f19601f8301169050919050565b600061148b82611429565b6114958185611434565b93506114a5818560208601611445565b6114ae8161146f565b840191505092915050565b600060208201905081810360008301526114d38184611480565b905092915050565b60006114e68261136a565b9050919050565b6114f6816114db565b811461150157600080fd5b50565b600081359050611513816114ed565b92915050565b611522816113f5565b811461152d57600080fd5b50565b60008135905061153f81611519565b92915050565b6000806040838503121561155c5761155b611360565b5b600061156a85828601611504565b925050602061157b85828601611530565b9150509250929050565b60008115159050919050565b61159a81611585565b82525050565b60006020820190506115b56000830184611591565b92915050565b6000806000606084860312156115d4576115d3611360565b5b60006115e286828701611504565b93505060206115f386828701611504565b925050604061160486828701611530565b9150509250925092565b600060ff82169050919050565b6116248161160e565b82525050565b600060208201905061163f600083018461161b565b92915050565b60006020828403121561165b5761165a611360565b5b600061166984828501611504565b91505092915050565b6000806040838503121561168957611688611360565b5b6000611697858286016113b3565b92505060206116a885828601611530565b9150509250929050565b6116bb8161138a565b82525050565b60006020820190506116d660008301846116b2565b92915050565b600080fd5b600080fd5b7f4e487b7100000000000000000000000000000000000000000000000000000000600052604160045260246000fd5b61171e8261146f565b810181811067ffffffffffffffff8211171561173d5761173c6116e6565b5b80604052505050565b6000611750611356565b905061175c8282611715565b919050565b600067ffffffffffffffff82111561177c5761177b6116e6565b5b6117858261146f565b9050602081019050919050565b82818337600083830152505050565b60006117b46117af84611761565b611746565b9050828152602081018484840111156117d0576117cf6116e1565b5b6117db848285611792565b509392505050565b600082601f8301126117f8576117f76116dc565b5b81356118088482602086016117a1565b91505092915050565b60008060006060848603121561182a57611829611360565b5b600061183886828701611504565b935050602084013567ffffffffffffffff81111561185957611858611365565b5b611865868287016117e3565b925050604084013567ffffffffffffffff81111561188657611885611365565b5b611892868287016117e3565b9150509250925092565b6000602082840312156118b2576118b1611360565b5b600082013567ffffffffffffffff8111156118d0576118cf611365565b5b6118dc848285016117e3565b91505092915050565b6118ee816114db565b82525050565b600060408201905061190960008301856118e5565b61191660208301846113ff565b9392505050565b6000806040838503121561193457611933611360565b5b600061194285828601611504565b925050602061195385828601611504565b9150509250929050565b7f4e487b7100000000000000000000000000000000000000000000000000000000600052602260045260246000fd5b600060028204905060018216806119a457607f821691505b6020821081036119b7576119b661195d565b5b50919050565b7f4e487b7100000000000000000000000000000000000000000000000000000000600052601160045260246000fd5b60006119f7826113f5565b9150611a02836113f5565b9250828201905080821115611a1a57611a196119bd565b5b92915050565b7f6769766520616d6f756e742067726561746572207468616e207a65726f000000600082015250565b6000611a56601d83611434565b9150611a6182611a20565b602082019050919050565b60006020820190508181036000830152611a8581611a49565b9050919050565b60008160011c9050919050565b6000808291508390505b6001851115611ae357808604811115611abf57611abe6119bd565b5b6001851615611ace5780820291505b8081029050611adc85611a8c565b9450611aa3565b94509492505050565b600082611afc5760019050611bb8565b81611b0a5760009050611bb8565b8160018114611b205760028114611b2a57611b59565b6001915050611bb8565b60ff841115611b3c57611b3b6119bd565b5b8360020a915084821115611b5357611b526119bd565b5b50611bb8565b5060208310610133831016604e8410600b8410161715611b8e5782820a905083811115611b8957611b886119bd565b5b611bb8565b611b9b8484846001611a99565b92509050818404811115611bb257611bb16119bd565b5b81810290505b9392505050565b6000611bca826113f5565b9150611bd58361160e565b9250611c027fffffffffffffffffffffffffffffffffffffffffffffffffffffffffffffffff8484611aec565b905092915050565b6000611c15826113f5565b9150611c20836113f5565b9250828202611c2e816113f5565b91508282048414831517611c4557611c446119bd565b5b5092915050565b7f4f6e6c7920746865206f776e65722063616e2063616c6c20746869732066756e60008201527f6374696f6e000000000000000000000000000000000000000000000000000000602082015250565b6000611ca8602583611434565b9150611cb382611c4c565b604082019050919050565b60006020820190508181036000830152611cd781611c9b565b9050919050565b7f45524332303a2064656372656173656420616c6c6f77616e63652062656c6f7760008201527f207a65726f000000000000000000000000000000000000000000000000000000602082015250565b6000611d3a602583611434565b9150611d4582611cde565b604082019050919050565b60006020820190508181036000830152611d6981611d2d565b9050919050565b600081905092915050565b6000611d8682611429565b611d908185611d70565b9350611da0818560208601611445565b80840191505092915050565b6000611db88284611d7b565b915081905092915050565b7f5573657220616c72656164792065787369737473000000000000000000000000600082015250565b6000611df9601483611434565b9150611e0482611dc3565b602082019050919050565b60006020820190508181036000830152611e2881611dec565b9050919050565b60008190508160005260206000209050919050565b60006020601f8301049050919050565b600082821b905092915050565b600060088302611e917fffffffffffffffffffffffffffffffffffffffffffffffffffffffffffffffff82611e54565b611e9b8683611e54565b95508019841693508086168417925050509392505050565b6000819050919050565b6000611ed8611ed3611ece846113f5565b611eb3565b6113f5565b9050919050565b6000819050919050565b611ef283611ebd565b611f06611efe82611edf565b848454611e61565b825550505050565b600090565b611f1b611f0e565b611f26818484611ee9565b505050565b5b81811015611f4a57611f3f600082611f13565b600181019050611f2c565b5050565b601f821115611f8f57611f6081611e2f565b611f6984611e44565b81016020851015611f78578190505b611f8c611f8485611e44565b830182611f2b565b50505b505050565b600082821c905092915050565b6000611fb260001984600802611f94565b1980831691505092915050565b6000611fcb8383611fa1565b9150826002028217905092915050565b611fe482611429565b67ffffffffffffffff811115611ffd57611ffc6116e6565b5b612007825461198c565b612012828285611f4e565b600060209050601f8311600181146120455760008415612033578287015190505b61203d8582611fbf565b8655506120a5565b601f19841661205386611e2f565b60005b8281101561207b57848901518255600182019150602085019450602081019050612056565b868310156120985784890151612094601f891682611fa1565b8355505b6001600288020188555050505b505050505050565b7f55736572204e6f74206578736973747300000000000000000000000000000000600082015250565b60006120e3601083611434565b91506120ee826120ad565b602082019050919050565b60006020820190508181036000830152612112816120d6565b9050919050565b7f45524332303a20617070726f76652066726f6d20746865207a65726f2061646460008201527f7265737300000000000000000000000000000000000000000000000000000000602082015250565b6000612175602483611434565b915061218082612119565b604082019050919050565b600060208201905081810360008301526121a481612168565b9050919050565b7f45524332303a20617070726f766520746f20746865207a65726f20616464726560008201527f7373000000000000000000000000000000000000000000000000000000000000602082015250565b6000612207602283611434565b9150612212826121ab565b604082019050919050565b60006020820190508181036000830152612236816121fa565b9050919050565b7f45524332303a20696e73756666696369656e7420616c6c6f77616e6365000000600082015250565b6000612273601d83611434565b915061227e8261223d565b602082019050919050565b600060208201905081810360008301526122a281612266565b9050919050565b7f45524332303a207472616e736665722066726f6d20746865207a65726f20616460008201527f6472657373000000000000000000000000000000000000000000000000000000602082015250565b6000612305602583611434565b9150612310826122a9565b604082019050919050565b60006020820190508181036000830152612334816122f8565b9050919050565b7f45524332303a207472616e7366657220746f20746865207a65726f206164647260008201527f6573730000000000000000000000000000000000000000000000000000000000602082015250565b6000612397602383611434565b91506123a28261233b565b604082019050919050565b600060208201905081810360008301526123c68161238a565b9050919050565b7f45524332303a207472616e7366657220616d6f756e742065786365656473206260008201527f616c616e63650000000000000000000000000000000000000000000000000000602082015250565b6000612429602683611434565b9150612434826123cd565b604082019050919050565b600060208201905081810360008301526124588161241c565b9050919050565b7f45524332303a206d696e7420746f20746865207a65726f206164647265737300600082015250565b6000612495601f83611434565b91506124a08261245f565b602082019050919050565b600060208201905081810360008301526124c481612488565b9050919050565b7f6265666f72657075726368617365000000000000000000000000000000000000600082015250565b6000612501600e83611d70565b915061250c826124cb565b600e82019050919050565b6000612522826124f4565b915081905091905056fea264697066735822122072bce57cbcdafa5677756a9f72d8b28ee7ee04f8108acb9ccb68b5ece6f6492c64736f6c63430008110033",
  "immutableReferences": {},
  "source": "// SPDX-License-Identifier:MIT\r\n\r\npragma solidity ^0.8.0;\r\n\r\nimport \"@openzeppelin/contracts/token/ERC20/ERC20.sol\";\r\n\r\ncontract BlueToken is ERC20 {\r\n    address payable public owner;\r\n    uint256 public rate = 1;\r\n\r\n    struct UserDetail {\r\n        address addr;\r\n        string name;\r\n        string password;\r\n        uint256 balance;\r\n    }\r\n\r\n    event BeforePurchase(\r\n        string indexed _name,\r\n        address indexed _from,\r\n        address indexed _to\r\n    );\r\n\r\n    mapping(string => UserDetail) user;\r\n\r\n    constructor() ERC20(\"BlueToken\", \"BTK\") {\r\n        _mint(msg.sender, 10 * (10**decimals()));\r\n        owner = payable(msg.sender);\r\n    }\r\n\r\n    function mint(address payable _to, uint256 amount) public returns (bool) {\r\n        require(amount > 0, \"give amount greater than zero\");\r\n        _mint(_to, amount * (10**decimals()));\r\n        return true;\r\n    }\r\n\r\n    receive() external payable {}\r\n\r\n    function signUp(\r\n        address _addr,\r\n        string memory _name,\r\n        string memory _password\r\n    ) external returns (bool) {\r\n        require(user[_name].addr == address(0), \"User already exsists\");\r\n        user[_name].addr = _addr;\r\n        user[_name].name = _name;\r\n        user[_name].password = _password;\r\n        return true;\r\n    }\r\n\r\n    function signIn(string memory _name)\r\n        external\r\n        view\r\n        returns (address, uint256)\r\n    {\r\n        require(user[_name].addr != address(0), \"User Not exsists\");\r\n        return (user[_name].addr, balanceOf(user[_name].addr));\r\n    }\r\n\r\n    function userBalance(address payable _addr) public view returns (uint256) {\r\n        return _addr.balance;\r\n    }\r\n\r\n    function getTokenBalance(address userAddress)\r\n        public\r\n        view\r\n        returns (uint256)\r\n    {\r\n        return balanceOf(userAddress);\r\n    }\r\n\r\n    // function approve(\r\n    //     address _owner,\r\n    //     address _spender,\r\n    //     uint256 amount\r\n    // ) public returns (bool) {\r\n    //     return super._approve(_owner, _spender, amount);\r\n    // }\r\n\r\n    // function transferFrom(\r\n    //     address _owner,\r\n    //     address _buyer,\r\n    //     uint256 numTokens\r\n    // ) public virtual override returns (bool) {\r\n    //     uint256 val = numTokens * (10**18);\r\n    //     balances[_owner] -= val;\r\n    //     balances[_buyer] += val;\r\n    //     return true;\r\n    // }\r\n\r\n    // function transfer(\r\n    //     address _from,\r\n    //     address _to,\r\n    //     uint256 val\r\n    // ) public returns (bool) {\r\n    //     _transfer(_from, _to, val);\r\n    //     return true;\r\n    // }\r\n\r\n    function _beforeTokenTransfer(\r\n        address _from,\r\n        address _to,\r\n        uint256 amount\r\n    ) internal virtual override {\r\n        super._beforeTokenTransfer(_from, _to, amount);\r\n        emit BeforePurchase(\"beforepurchase\", _from, _to);\r\n    }\r\n\r\n    function destroy() public onlyOwner {\r\n        selfdestruct(owner);\r\n    }\r\n\r\n    modifier onlyOwner() {\r\n        require(msg.sender == owner, \"Only the owner can call this function\");\r\n        _;\r\n    }\r\n}\r\n",
  "sourcePath": "C:\\Users\\balam\\OneDrive\\Documents\\poc\\server\\contracts\\BlueToken.sol",
  "compiler": {
    "name": "solc",
    "version": "0.8.17+commit.8df45f5f.Emscripten.clang"
  },
  "schemaVersion": "3.4.11",
  "updatedAt": "2023-01-13T11:31:01.263Z",
  "devdoc": {
    "kind": "dev",
    "methods": {
      "allowance(address,address)": {
        "details": "See {IERC20-allowance}."
      },
      "approve(address,uint256)": {
        "details": "See {IERC20-approve}. NOTE: If `amount` is the maximum `uint256`, the allowance is not updated on `transferFrom`. This is semantically equivalent to an infinite approval. Requirements: - `spender` cannot be the zero address."
      },
      "balanceOf(address)": {
        "details": "See {IERC20-balanceOf}."
      },
      "decimals()": {
        "details": "Returns the number of decimals used to get its user representation. For example, if `decimals` equals `2`, a balance of `505` tokens should be displayed to a user as `5.05` (`505 / 10 ** 2`). Tokens usually opt for a value of 18, imitating the relationship between Ether and Wei. This is the value {ERC20} uses, unless this function is overridden; NOTE: This information is only used for _display_ purposes: it in no way affects any of the arithmetic of the contract, including {IERC20-balanceOf} and {IERC20-transfer}."
      },
      "decreaseAllowance(address,uint256)": {
        "details": "Atomically decreases the allowance granted to `spender` by the caller. This is an alternative to {approve} that can be used as a mitigation for problems described in {IERC20-approve}. Emits an {Approval} event indicating the updated allowance. Requirements: - `spender` cannot be the zero address. - `spender` must have allowance for the caller of at least `subtractedValue`."
      },
      "increaseAllowance(address,uint256)": {
        "details": "Atomically increases the allowance granted to `spender` by the caller. This is an alternative to {approve} that can be used as a mitigation for problems described in {IERC20-approve}. Emits an {Approval} event indicating the updated allowance. Requirements: - `spender` cannot be the zero address."
      },
      "name()": {
        "details": "Returns the name of the token."
      },
      "symbol()": {
        "details": "Returns the symbol of the token, usually a shorter version of the name."
      },
      "totalSupply()": {
        "details": "See {IERC20-totalSupply}."
      },
      "transfer(address,uint256)": {
        "details": "See {IERC20-transfer}. Requirements: - `to` cannot be the zero address. - the caller must have a balance of at least `amount`."
      },
      "transferFrom(address,address,uint256)": {
        "details": "See {IERC20-transferFrom}. Emits an {Approval} event indicating the updated allowance. This is not required by the EIP. See the note at the beginning of {ERC20}. NOTE: Does not update the allowance if the current allowance is the maximum `uint256`. Requirements: - `from` and `to` cannot be the zero address. - `from` must have a balance of at least `amount`. - the caller must have allowance for ``from``'s tokens of at least `amount`."
      }
    },
    "version": 1
  },
  "userdoc": {
    "kind": "user",
    "methods": {},
    "version": 1
  }
}