{
  "contractName": "BlueToken",
  "abi": [
    {
      "inputs": [],
      "stateMutability": "nonpayable",
      "type": "constructor"
    },
    {
      "anonymous": false,
      "inputs": [
        {
          "indexed": true,
          "internalType": "address",
          "name": "owner",
          "type": "address"
        },
        {
          "indexed": true,
          "internalType": "address",
          "name": "spender",
          "type": "address"
        },
        {
          "indexed": false,
          "internalType": "uint256",
          "name": "value",
          "type": "uint256"
        }
      ],
      "name": "Approval",
      "type": "event"
    },
    {
      "anonymous": false,
      "inputs": [
        {
          "indexed": true,
          "internalType": "address",
          "name": "from",
          "type": "address"
        },
        {
          "indexed": true,
          "internalType": "address",
          "name": "to",
          "type": "address"
        },
        {
          "indexed": false,
          "internalType": "uint256",
          "name": "value",
          "type": "uint256"
        }
      ],
      "name": "Transfer",
      "type": "event"
    },
    {
      "inputs": [
        {
          "internalType": "address",
          "name": "owner",
          "type": "address"
        },
        {
          "internalType": "address",
          "name": "spender",
          "type": "address"
        }
      ],
      "name": "allowance",
      "outputs": [
        {
          "internalType": "uint256",
          "name": "",
          "type": "uint256"
        }
      ],
      "stateMutability": "view",
      "type": "function"
    },
    {
      "inputs": [
        {
          "internalType": "address",
          "name": "spender",
          "type": "address"
        },
        {
          "internalType": "uint256",
          "name": "amount",
          "type": "uint256"
        }
      ],
      "name": "approve",
      "outputs": [
        {
          "internalType": "bool",
          "name": "",
          "type": "bool"
        }
      ],
      "stateMutability": "nonpayable",
      "type": "function"
    },
    {
      "inputs": [
        {
          "internalType": "address",
          "name": "account",
          "type": "address"
        }
      ],
      "name": "balanceOf",
      "outputs": [
        {
          "internalType": "uint256",
          "name": "",
          "type": "uint256"
        }
      ],
      "stateMutability": "view",
      "type": "function"
    },
    {
      "inputs": [],
      "name": "decimals",
      "outputs": [
        {
          "internalType": "uint8",
          "name": "",
          "type": "uint8"
        }
      ],
      "stateMutability": "view",
      "type": "function"
    },
    {
      "inputs": [
        {
          "internalType": "address",
          "name": "spender",
          "type": "address"
        },
        {
          "internalType": "uint256",
          "name": "subtractedValue",
          "type": "uint256"
        }
      ],
      "name": "decreaseAllowance",
      "outputs": [
        {
          "internalType": "bool",
          "name": "",
          "type": "bool"
        }
      ],
      "stateMutability": "nonpayable",
      "type": "function"
    },
    {
      "inputs": [
        {
          "internalType": "address",
          "name": "spender",
          "type": "address"
        },
        {
          "internalType": "uint256",
          "name": "addedValue",
          "type": "uint256"
        }
      ],
      "name": "increaseAllowance",
      "outputs": [
        {
          "internalType": "bool",
          "name": "",
          "type": "bool"
        }
      ],
      "stateMutability": "nonpayable",
      "type": "function"
    },
    {
      "inputs": [],
      "name": "name",
      "outputs": [
        {
          "internalType": "string",
          "name": "",
          "type": "string"
        }
      ],
      "stateMutability": "view",
      "type": "function"
    },
    {
      "inputs": [],
      "name": "owner",
      "outputs": [
        {
          "internalType": "address payable",
          "name": "",
          "type": "address"
        }
      ],
      "stateMutability": "view",
      "type": "function"
    },
    {
      "inputs": [],
      "name": "symbol",
      "outputs": [
        {
          "internalType": "string",
          "name": "",
          "type": "string"
        }
      ],
      "stateMutability": "view",
      "type": "function"
    },
    {
      "inputs": [],
      "name": "totalSupply",
      "outputs": [
        {
          "internalType": "uint256",
          "name": "",
          "type": "uint256"
        }
      ],
      "stateMutability": "view",
      "type": "function"
    },
    {
      "inputs": [
        {
          "internalType": "address",
          "name": "to",
          "type": "address"
        },
        {
          "internalType": "uint256",
          "name": "amount",
          "type": "uint256"
        }
      ],
      "name": "transfer",
      "outputs": [
        {
          "internalType": "bool",
          "name": "",
          "type": "bool"
        }
      ],
      "stateMutability": "nonpayable",
      "type": "function"
    },
    {
      "inputs": [
        {
          "internalType": "address",
          "name": "_to",
          "type": "address"
        }
      ],
      "name": "mint",
      "outputs": [
        {
          "internalType": "bool",
          "name": "",
          "type": "bool"
        }
      ],
      "stateMutability": "nonpayable",
      "type": "function"
    },
    {
      "inputs": [
        {
          "internalType": "address",
          "name": "_addr",
          "type": "address"
        },
        {
          "internalType": "string",
          "name": "_name",
          "type": "string"
        },
        {
          "internalType": "string",
          "name": "_password",
          "type": "string"
        }
      ],
      "name": "signUp",
      "outputs": [
        {
          "internalType": "bool",
          "name": "",
          "type": "bool"
        }
      ],
      "stateMutability": "nonpayable",
      "type": "function"
    },
    {
      "inputs": [
        {
          "internalType": "string",
          "name": "_name",
          "type": "string"
        }
      ],
      "name": "signIn",
      "outputs": [
        {
          "internalType": "address",
          "name": "",
          "type": "address"
        },
        {
          "internalType": "uint256",
          "name": "",
          "type": "uint256"
        }
      ],
      "stateMutability": "view",
      "type": "function"
    },
    {
      "inputs": [
        {
          "internalType": "address",
          "name": "ContractAddress",
          "type": "address"
        }
      ],
      "name": "getContractBalance",
      "outputs": [
        {
          "internalType": "uint256",
          "name": "",
          "type": "uint256"
        }
      ],
      "stateMutability": "view",
      "type": "function"
    },
    {
      "inputs": [
        {
          "internalType": "address",
          "name": "_owner",
          "type": "address"
        },
        {
          "internalType": "address",
          "name": "_buyer",
          "type": "address"
        },
        {
          "internalType": "uint256",
          "name": "numTokens",
          "type": "uint256"
        }
      ],
      "name": "transferFrom",
      "outputs": [
        {
          "internalType": "bool",
          "name": "",
          "type": "bool"
        }
      ],
      "stateMutability": "nonpayable",
      "type": "function"
    },
    {
      "inputs": [],
      "name": "destroy",
      "outputs": [],
      "stateMutability": "nonpayable",
      "type": "function"
    }
  ],
  "bytecode": "0x60806040523480156200001157600080fd5b506040518060400160405280600981526020017f426c7565546f6b656e00000000000000000000000000000000000000000000008152506040518060400160405280600381526020017f42544b000000000000000000000000000000000000000000000000000000000081525081600390816200008f919062000522565b508060049081620000a1919062000522565b505050620000e133620000b96200012860201b60201c565b600a620000c7919062000799565b600a620000d59190620007ea565b6200013160201b60201c565b33600560006101000a81548173ffffffffffffffffffffffffffffffffffffffff021916908373ffffffffffffffffffffffffffffffffffffffff16021790555062000921565b60006012905090565b600073ffffffffffffffffffffffffffffffffffffffff168273ffffffffffffffffffffffffffffffffffffffff1603620001a3576040517f08c379a00000000000000000000000000000000000000000000000000000000081526004016200019a9062000896565b60405180910390fd5b620001b7600083836200029e60201b60201c565b8060026000828254620001cb9190620008b8565b92505081905550806000808473ffffffffffffffffffffffffffffffffffffffff1673ffffffffffffffffffffffffffffffffffffffff168152602001908152602001600020600082825401925050819055508173ffffffffffffffffffffffffffffffffffffffff16600073ffffffffffffffffffffffffffffffffffffffff167fddf252ad1be2c89b69c2b068fc378daa952ba7f163c4a11628f55a4df523b3ef836040516200027e919062000904565b60405180910390a36200029a60008383620002a360201b60201c565b5050565b505050565b505050565b600081519050919050565b7f4e487b7100000000000000000000000000000000000000000000000000000000600052604160045260246000fd5b7f4e487b7100000000000000000000000000000000000000000000000000000000600052602260045260246000fd5b600060028204905060018216806200032a57607f821691505b60208210810362000340576200033f620002e2565b5b50919050565b60008190508160005260206000209050919050565b60006020601f8301049050919050565b600082821b905092915050565b600060088302620003aa7fffffffffffffffffffffffffffffffffffffffffffffffffffffffffffffffff826200036b565b620003b686836200036b565b95508019841693508086168417925050509392505050565b6000819050919050565b6000819050919050565b600062000403620003fd620003f784620003ce565b620003d8565b620003ce565b9050919050565b6000819050919050565b6200041f83620003e2565b620004376200042e826200040a565b84845462000378565b825550505050565b600090565b6200044e6200043f565b6200045b81848462000414565b505050565b5b8181101562000483576200047760008262000444565b60018101905062000461565b5050565b601f821115620004d2576200049c8162000346565b620004a7846200035b565b81016020851015620004b7578190505b620004cf620004c6856200035b565b83018262000460565b50505b505050565b600082821c905092915050565b6000620004f760001984600802620004d7565b1980831691505092915050565b6000620005128383620004e4565b9150826002028217905092915050565b6200052d82620002a8565b67ffffffffffffffff811115620005495762000548620002b3565b5b62000555825462000311565b6200056282828562000487565b600060209050601f8311600181146200059a576000841562000585578287015190505b62000591858262000504565b86555062000601565b601f198416620005aa8662000346565b60005b82811015620005d457848901518255600182019150602085019450602081019050620005ad565b86831015620005f45784890151620005f0601f891682620004e4565b8355505b6001600288020188555050505b505050505050565b7f4e487b7100000000000000000000000000000000000000000000000000000000600052601160045260246000fd5b60008160011c9050919050565b6000808291508390505b600185111562000697578086048111156200066f576200066e62000609565b5b60018516156200067f5780820291505b80810290506200068f8562000638565b94506200064f565b94509492505050565b600082620006b2576001905062000785565b81620006c2576000905062000785565b8160018114620006db5760028114620006e6576200071c565b600191505062000785565b60ff841115620006fb57620006fa62000609565b5b8360020a91508482111562000715576200071462000609565b5b5062000785565b5060208310610133831016604e8410600b8410161715620007565782820a90508381111562000750576200074f62000609565b5b62000785565b62000765848484600162000645565b925090508184048111156200077f576200077e62000609565b5b81810290505b9392505050565b600060ff82169050919050565b6000620007a682620003ce565b9150620007b3836200078c565b9250620007e27fffffffffffffffffffffffffffffffffffffffffffffffffffffffffffffffff8484620006a0565b905092915050565b6000620007f782620003ce565b91506200080483620003ce565b92508282026200081481620003ce565b915082820484148315176200082e576200082d62000609565b5b5092915050565b600082825260208201905092915050565b7f45524332303a206d696e7420746f20746865207a65726f206164647265737300600082015250565b60006200087e601f8362000835565b91506200088b8262000846565b602082019050919050565b60006020820190508181036000830152620008b1816200086f565b9050919050565b6000620008c582620003ce565b9150620008d283620003ce565b9250828201905080821115620008ed57620008ec62000609565b5b92915050565b620008fe81620003ce565b82525050565b60006020820190506200091b6000830184620008f3565b92915050565b6122b680620009316000396000f3fe608060405234801561001057600080fd5b506004361061010b5760003560e01c806370a08231116100a2578063a457c2d711610071578063a457c2d7146102d0578063a9059cbb14610300578063a9b4d91914610330578063c95f728a14610360578063dd62ed3e146103915761010b565b806370a082311461025a57806383197ef01461028a5780638da5cb5b1461029457806395d89b41146102b25761010b565b8063313ce567116100de578063313ce567146101ac57806339509351146101ca57806343ab265f146101fa5780636a6278421461022a5761010b565b806306fdde0314610110578063095ea7b31461012e57806318160ddd1461015e57806323b872dd1461017c575b600080fd5b6101186103c1565b60405161012591906112d8565b60405180910390f35b610148600480360381019061014391906113a2565b610453565b60405161015591906113fd565b60405180910390f35b610166610476565b6040516101739190611427565b60405180910390f35b61019660048036038101906101919190611442565b610480565b6040516101a391906113fd565b60405180910390f35b6101b4610551565b6040516101c191906114b1565b60405180910390f35b6101e460048036038101906101df91906113a2565b61055a565b6040516101f191906113fd565b60405180910390f35b610214600480360381019061020f91906114cc565b610591565b6040516102219190611427565b60405180910390f35b610244600480360381019061023f91906114cc565b6105b2565b60405161025191906113fd565b60405180910390f35b610274600480360381019061026f91906114cc565b6105e6565b6040516102819190611427565b60405180910390f35b61029261062e565b005b61029c6106f9565b6040516102a9919061151a565b60405180910390f35b6102ba61071f565b6040516102c791906112d8565b60405180910390f35b6102ea60048036038101906102e591906113a2565b6107b1565b6040516102f791906113fd565b60405180910390f35b61031a600480360381019061031591906113a2565b610828565b60405161032791906113fd565b60405180910390f35b61034a6004803603810190610345919061166a565b61084b565b60405161035791906113fd565b60405180910390f35b61037a600480360381019061037591906116f5565b610a9b565b60405161038892919061174d565b60405180910390f35b6103ab60048036038101906103a69190611776565b610c1a565b6040516103b89190611427565b60405180910390f35b6060600380546103d0906117e5565b80601f01602080910402602001604051908101604052809291908181526020018280546103fc906117e5565b80156104495780601f1061041e57610100808354040283529160200191610449565b820191906000526020600020905b81548152906001019060200180831161042c57829003601f168201915b5050505050905090565b60008061045e610ca1565b905061046b818585610ca9565b600191505092915050565b6000600254905090565b600080670de0b6b3a7640000836104979190611845565b905080600760008773ffffffffffffffffffffffffffffffffffffffff1673ffffffffffffffffffffffffffffffffffffffff16815260200190815260200160002060008282546104e89190611887565b9250508190555080600760008673ffffffffffffffffffffffffffffffffffffffff1673ffffffffffffffffffffffffffffffffffffffff168152602001908152602001600020600082825461053e91906118bb565b9250508190555060019150509392505050565b60006012905090565b600080610565610ca1565b90506105868185856105778589610c1a565b61058191906118bb565b610ca9565b600191505092915050565b60008173ffffffffffffffffffffffffffffffffffffffff16319050919050565b60006105dd826105c0610551565b600a6105cc9190611a22565b600a6105d89190611845565b610e72565b60019050919050565b60008060008373ffffffffffffffffffffffffffffffffffffffff1673ffffffffffffffffffffffffffffffffffffffff168152602001908152602001600020549050919050565b600560009054906101000a900473ffffffffffffffffffffffffffffffffffffffff1673ffffffffffffffffffffffffffffffffffffffff163373ffffffffffffffffffffffffffffffffffffffff16146106be576040517f08c379a00000000000000000000000000000000000000000000000000000000081526004016106b590611adf565b60405180910390fd5b600560009054906101000a900473ffffffffffffffffffffffffffffffffffffffff1673ffffffffffffffffffffffffffffffffffffffff16ff5b600560009054906101000a900473ffffffffffffffffffffffffffffffffffffffff1681565b60606004805461072e906117e5565b80601f016020809104026020016040519081016040528092919081815260200182805461075a906117e5565b80156107a75780601f1061077c576101008083540402835291602001916107a7565b820191906000526020600020905b81548152906001019060200180831161078a57829003601f168201915b5050505050905090565b6000806107bc610ca1565b905060006107ca8286610c1a565b90508381101561080f576040517f08c379a000000000000000000000000000000000000000000000000000000000815260040161080690611b71565b60405180910390fd5b61081c8286868403610ca9565b60019250505092915050565b600080610833610ca1565b9050610840818585610fc8565b600191505092915050565b60008073ffffffffffffffffffffffffffffffffffffffff166006846040516108749190611bcd565b908152602001604051809103902060000160009054906101000a900473ffffffffffffffffffffffffffffffffffffffff1673ffffffffffffffffffffffffffffffffffffffff16146108fc576040517f08c379a00000000000000000000000000000000000000000000000000000000081526004016108f390611c30565b60405180910390fd5b8360068460405161090d9190611bcd565b908152602001604051809103902060000160006101000a81548173ffffffffffffffffffffffffffffffffffffffff021916908373ffffffffffffffffffffffffffffffffffffffff1602179055508260068460405161096d9190611bcd565b9081526020016040518091039020600101908161098a9190611dfc565b508160068460405161099c9190611bcd565b908152602001604051809103902060020190816109b99190611dfc565b506109e3846109c6610551565b600a6109d29190611a22565b60016109de9190611845565b610e72565b6109eb610551565b600a6109f79190611a22565b6001610a039190611845565b600760008673ffffffffffffffffffffffffffffffffffffffff1673ffffffffffffffffffffffffffffffffffffffff16815260200190815260200160002054610a4d91906118bb565b600760008673ffffffffffffffffffffffffffffffffffffffff1673ffffffffffffffffffffffffffffffffffffffff16815260200190815260200160002081905550600190509392505050565b600080600073ffffffffffffffffffffffffffffffffffffffff16600684604051610ac69190611bcd565b908152602001604051809103902060000160009054906101000a900473ffffffffffffffffffffffffffffffffffffffff1673ffffffffffffffffffffffffffffffffffffffff1603610b4e576040517f08c379a0000000000000000000000000000000000000000000000000000000008152600401610b4590611f1a565b60405180910390fd5b600683604051610b5e9190611bcd565b908152602001604051809103902060000160009054906101000a900473ffffffffffffffffffffffffffffffffffffffff1660076000600686604051610ba49190611bcd565b908152602001604051809103902060000160009054906101000a900473ffffffffffffffffffffffffffffffffffffffff1673ffffffffffffffffffffffffffffffffffffffff1673ffffffffffffffffffffffffffffffffffffffff1681526020019081526020016000205491509150915091565b6000600160008473ffffffffffffffffffffffffffffffffffffffff1673ffffffffffffffffffffffffffffffffffffffff16815260200190815260200160002060008373ffffffffffffffffffffffffffffffffffffffff1673ffffffffffffffffffffffffffffffffffffffff16815260200190815260200160002054905092915050565b600033905090565b600073ffffffffffffffffffffffffffffffffffffffff168373ffffffffffffffffffffffffffffffffffffffff1603610d18576040517f08c379a0000000000000000000000000000000000000000000000000000000008152600401610d0f90611fac565b60405180910390fd5b600073ffffffffffffffffffffffffffffffffffffffff168273ffffffffffffffffffffffffffffffffffffffff1603610d87576040517f08c379a0000000000000000000000000000000000000000000000000000000008152600401610d7e9061203e565b60405180910390fd5b80600160008573ffffffffffffffffffffffffffffffffffffffff1673ffffffffffffffffffffffffffffffffffffffff16815260200190815260200160002060008473ffffffffffffffffffffffffffffffffffffffff1673ffffffffffffffffffffffffffffffffffffffff168152602001908152602001600020819055508173ffffffffffffffffffffffffffffffffffffffff168373ffffffffffffffffffffffffffffffffffffffff167f8c5be1e5ebec7d5bd14f71427d1e84f3dd0314c0f7b2291e5b200ac8c7c3b92583604051610e659190611427565b60405180910390a3505050565b600073ffffffffffffffffffffffffffffffffffffffff168273ffffffffffffffffffffffffffffffffffffffff1603610ee1576040517f08c379a0000000000000000000000000000000000000000000000000000000008152600401610ed8906120aa565b60405180910390fd5b610eed6000838361123e565b8060026000828254610eff91906118bb565b92505081905550806000808473ffffffffffffffffffffffffffffffffffffffff1673ffffffffffffffffffffffffffffffffffffffff168152602001908152602001600020600082825401925050819055508173ffffffffffffffffffffffffffffffffffffffff16600073ffffffffffffffffffffffffffffffffffffffff167fddf252ad1be2c89b69c2b068fc378daa952ba7f163c4a11628f55a4df523b3ef83604051610fb09190611427565b60405180910390a3610fc460008383611243565b5050565b600073ffffffffffffffffffffffffffffffffffffffff168373ffffffffffffffffffffffffffffffffffffffff1603611037576040517f08c379a000000000000000000000000000000000000000000000000000000000815260040161102e9061213c565b60405180910390fd5b600073ffffffffffffffffffffffffffffffffffffffff168273ffffffffffffffffffffffffffffffffffffffff16036110a6576040517f08c379a000000000000000000000000000000000000000000000000000000000815260040161109d906121ce565b60405180910390fd5b6110b183838361123e565b60008060008573ffffffffffffffffffffffffffffffffffffffff1673ffffffffffffffffffffffffffffffffffffffff16815260200190815260200160002054905081811015611137576040517f08c379a000000000000000000000000000000000000000000000000000000000815260040161112e90612260565b60405180910390fd5b8181036000808673ffffffffffffffffffffffffffffffffffffffff1673ffffffffffffffffffffffffffffffffffffffff16815260200190815260200160002081905550816000808573ffffffffffffffffffffffffffffffffffffffff1673ffffffffffffffffffffffffffffffffffffffff168152602001908152602001600020600082825401925050819055508273ffffffffffffffffffffffffffffffffffffffff168473ffffffffffffffffffffffffffffffffffffffff167fddf252ad1be2c89b69c2b068fc378daa952ba7f163c4a11628f55a4df523b3ef846040516112259190611427565b60405180910390a3611238848484611243565b50505050565b505050565b505050565b600081519050919050565b600082825260208201905092915050565b60005b83811015611282578082015181840152602081019050611267565b60008484015250505050565b6000601f19601f8301169050919050565b60006112aa82611248565b6112b48185611253565b93506112c4818560208601611264565b6112cd8161128e565b840191505092915050565b600060208201905081810360008301526112f2818461129f565b905092915050565b6000604051905090565b600080fd5b600080fd5b600073ffffffffffffffffffffffffffffffffffffffff82169050919050565b60006113398261130e565b9050919050565b6113498161132e565b811461135457600080fd5b50565b60008135905061136681611340565b92915050565b6000819050919050565b61137f8161136c565b811461138a57600080fd5b50565b60008135905061139c81611376565b92915050565b600080604083850312156113b9576113b8611304565b5b60006113c785828601611357565b92505060206113d88582860161138d565b9150509250929050565b60008115159050919050565b6113f7816113e2565b82525050565b600060208201905061141260008301846113ee565b92915050565b6114218161136c565b82525050565b600060208201905061143c6000830184611418565b92915050565b60008060006060848603121561145b5761145a611304565b5b600061146986828701611357565b935050602061147a86828701611357565b925050604061148b8682870161138d565b9150509250925092565b600060ff82169050919050565b6114ab81611495565b82525050565b60006020820190506114c660008301846114a2565b92915050565b6000602082840312156114e2576114e1611304565b5b60006114f084828501611357565b91505092915050565b60006115048261130e565b9050919050565b611514816114f9565b82525050565b600060208201905061152f600083018461150b565b92915050565b600080fd5b600080fd5b7f4e487b7100000000000000000000000000000000000000000000000000000000600052604160045260246000fd5b6115778261128e565b810181811067ffffffffffffffff821117156115965761159561153f565b5b80604052505050565b60006115a96112fa565b90506115b5828261156e565b919050565b600067ffffffffffffffff8211156115d5576115d461153f565b5b6115de8261128e565b9050602081019050919050565b82818337600083830152505050565b600061160d611608846115ba565b61159f565b9050828152602081018484840111156116295761162861153a565b5b6116348482856115eb565b509392505050565b600082601f83011261165157611650611535565b5b81356116618482602086016115fa565b91505092915050565b60008060006060848603121561168357611682611304565b5b600061169186828701611357565b935050602084013567ffffffffffffffff8111156116b2576116b1611309565b5b6116be8682870161163c565b925050604084013567ffffffffffffffff8111156116df576116de611309565b5b6116eb8682870161163c565b9150509250925092565b60006020828403121561170b5761170a611304565b5b600082013567ffffffffffffffff81111561172957611728611309565b5b6117358482850161163c565b91505092915050565b6117478161132e565b82525050565b6000604082019050611762600083018561173e565b61176f6020830184611418565b9392505050565b6000806040838503121561178d5761178c611304565b5b600061179b85828601611357565b92505060206117ac85828601611357565b9150509250929050565b7f4e487b7100000000000000000000000000000000000000000000000000000000600052602260045260246000fd5b600060028204905060018216806117fd57607f821691505b6020821081036118105761180f6117b6565b5b50919050565b7f4e487b7100000000000000000000000000000000000000000000000000000000600052601160045260246000fd5b60006118508261136c565b915061185b8361136c565b92508282026118698161136c565b915082820484148315176118805761187f611816565b5b5092915050565b60006118928261136c565b915061189d8361136c565b92508282039050818111156118b5576118b4611816565b5b92915050565b60006118c68261136c565b91506118d18361136c565b92508282019050808211156118e9576118e8611816565b5b92915050565b60008160011c9050919050565b6000808291508390505b60018511156119465780860481111561192257611921611816565b5b60018516156119315780820291505b808102905061193f856118ef565b9450611906565b94509492505050565b60008261195f5760019050611a1b565b8161196d5760009050611a1b565b8160018114611983576002811461198d576119bc565b6001915050611a1b565b60ff84111561199f5761199e611816565b5b8360020a9150848211156119b6576119b5611816565b5b50611a1b565b5060208310610133831016604e8410600b84101617156119f15782820a9050838111156119ec576119eb611816565b5b611a1b565b6119fe84848460016118fc565b92509050818404811115611a1557611a14611816565b5b81810290505b9392505050565b6000611a2d8261136c565b9150611a3883611495565b9250611a657fffffffffffffffffffffffffffffffffffffffffffffffffffffffffffffffff848461194f565b905092915050565b7f4f6e6c7920746865206f776e65722063616e2063616c6c20746869732066756e60008201527f6374696f6e000000000000000000000000000000000000000000000000000000602082015250565b6000611ac9602583611253565b9150611ad482611a6d565b604082019050919050565b60006020820190508181036000830152611af881611abc565b9050919050565b7f45524332303a2064656372656173656420616c6c6f77616e63652062656c6f7760008201527f207a65726f000000000000000000000000000000000000000000000000000000602082015250565b6000611b5b602583611253565b9150611b6682611aff565b604082019050919050565b60006020820190508181036000830152611b8a81611b4e565b9050919050565b600081905092915050565b6000611ba782611248565b611bb18185611b91565b9350611bc1818560208601611264565b80840191505092915050565b6000611bd98284611b9c565b915081905092915050565b7f5573657220616c72656164792065787369737473000000000000000000000000600082015250565b6000611c1a601483611253565b9150611c2582611be4565b602082019050919050565b60006020820190508181036000830152611c4981611c0d565b9050919050565b60008190508160005260206000209050919050565b60006020601f8301049050919050565b600082821b905092915050565b600060088302611cb27fffffffffffffffffffffffffffffffffffffffffffffffffffffffffffffffff82611c75565b611cbc8683611c75565b95508019841693508086168417925050509392505050565b6000819050919050565b6000611cf9611cf4611cef8461136c565b611cd4565b61136c565b9050919050565b6000819050919050565b611d1383611cde565b611d27611d1f82611d00565b848454611c82565b825550505050565b600090565b611d3c611d2f565b611d47818484611d0a565b505050565b5b81811015611d6b57611d60600082611d34565b600181019050611d4d565b5050565b601f821115611db057611d8181611c50565b611d8a84611c65565b81016020851015611d99578190505b611dad611da585611c65565b830182611d4c565b50505b505050565b600082821c905092915050565b6000611dd360001984600802611db5565b1980831691505092915050565b6000611dec8383611dc2565b9150826002028217905092915050565b611e0582611248565b67ffffffffffffffff811115611e1e57611e1d61153f565b5b611e2882546117e5565b611e33828285611d6f565b600060209050601f831160018114611e665760008415611e54578287015190505b611e5e8582611de0565b865550611ec6565b601f198416611e7486611c50565b60005b82811015611e9c57848901518255600182019150602085019450602081019050611e77565b86831015611eb95784890151611eb5601f891682611dc2565b8355505b6001600288020188555050505b505050505050565b7f55736572204e6f74206578736973747300000000000000000000000000000000600082015250565b6000611f04601083611253565b9150611f0f82611ece565b602082019050919050565b60006020820190508181036000830152611f3381611ef7565b9050919050565b7f45524332303a20617070726f76652066726f6d20746865207a65726f2061646460008201527f7265737300000000000000000000000000000000000000000000000000000000602082015250565b6000611f96602483611253565b9150611fa182611f3a565b604082019050919050565b60006020820190508181036000830152611fc581611f89565b9050919050565b7f45524332303a20617070726f766520746f20746865207a65726f20616464726560008201527f7373000000000000000000000000000000000000000000000000000000000000602082015250565b6000612028602283611253565b915061203382611fcc565b604082019050919050565b600060208201905081810360008301526120578161201b565b9050919050565b7f45524332303a206d696e7420746f20746865207a65726f206164647265737300600082015250565b6000612094601f83611253565b915061209f8261205e565b602082019050919050565b600060208201905081810360008301526120c381612087565b9050919050565b7f45524332303a207472616e736665722066726f6d20746865207a65726f20616460008201527f6472657373000000000000000000000000000000000000000000000000000000602082015250565b6000612126602583611253565b9150612131826120ca565b604082019050919050565b6000602082019050818103600083015261215581612119565b9050919050565b7f45524332303a207472616e7366657220746f20746865207a65726f206164647260008201527f6573730000000000000000000000000000000000000000000000000000000000602082015250565b60006121b8602383611253565b91506121c38261215c565b604082019050919050565b600060208201905081810360008301526121e7816121ab565b9050919050565b7f45524332303a207472616e7366657220616d6f756e742065786365656473206260008201527f616c616e63650000000000000000000000000000000000000000000000000000602082015250565b600061224a602683611253565b9150612255826121ee565b604082019050919050565b600060208201905081810360008301526122798161223d565b905091905056fea2646970667358221220f7857561678c346a9ef5b455c54c6a5fc483dc68add072413c55093cafee635c64736f6c63430008110033",
  "immutableReferences": {},
  "source": "// SPDX-License-Identifier:MIT\r\n\r\npragma solidity ^0.8.0;\r\n\r\nimport \"@openzeppelin/contracts/token/ERC20/ERC20.sol\";\r\n\r\ncontract BlueToken is ERC20 {\r\n    address payable public owner;\r\n\r\n    struct UserDetail {\r\n        address addr;\r\n        string name;\r\n        string password;\r\n    }\r\n\r\n    mapping(string => UserDetail) user;\r\n    mapping(address => uint256) balances;\r\n\r\n    constructor() ERC20(\"BlueToken\", \"BTK\") {\r\n        _mint(msg.sender, 10 * (10**decimals()));\r\n        owner = payable(msg.sender);\r\n    }\r\n\r\n    function mint(address _to) public returns (bool) {\r\n        _mint(_to, 10 * (10**decimals()));\r\n        return true;\r\n    }\r\n\r\n    function signUp(\r\n        address _addr,\r\n        string memory _name,\r\n        string memory _password\r\n    ) external returns (bool) {\r\n        require(user[_name].addr == address(0), \"User already exsists\");\r\n        user[_name].addr = _addr;\r\n        user[_name].name = _name;\r\n        user[_name].password = _password;\r\n        _mint(_addr, 1 * (10**decimals()));\r\n        balances[_addr] = balances[_addr] + (1 * (10**decimals()));\r\n        return true;\r\n    }\r\n\r\n    function signIn(string memory _name)\r\n        external\r\n        view\r\n        returns (address, uint256)\r\n    {\r\n        require(user[_name].addr != address(0), \"User Not exsists\");\r\n        return (user[_name].addr, balances[user[_name].addr]);\r\n    }\r\n\r\n    function getContractBalance(address ContractAddress)\r\n        public\r\n        view\r\n        returns (uint256)\r\n    {\r\n        return ContractAddress.balance;\r\n    }\r\n\r\n    function transferFrom(\r\n        address _owner,\r\n        address _buyer,\r\n        uint256 numTokens\r\n    ) public virtual override returns (bool) {\r\n        uint256 val = numTokens * (10**18);\r\n        balances[_owner] -= val;\r\n        balances[_buyer] += val;\r\n        return true;\r\n    }\r\n\r\n    function destroy() public onlyOwner {\r\n        selfdestruct(owner);\r\n    }\r\n\r\n    modifier onlyOwner() {\r\n        require(msg.sender == owner, \"Only the owner can call this function\");\r\n        _;\r\n    }\r\n}\r\n",
  "sourcePath": "C:\\Users\\balam\\OneDrive\\Documents\\poc\\server\\contracts\\BlueToken.sol",
  "compiler": {
    "name": "solc",
    "version": "0.8.17+commit.8df45f5f.Emscripten.clang"
  },
  "schemaVersion": "3.4.11",
  "updatedAt": "2023-01-05T16:14:45.230Z",
  "devdoc": {
    "kind": "dev",
    "methods": {
      "allowance(address,address)": {
        "details": "See {IERC20-allowance}."
      },
      "approve(address,uint256)": {
        "details": "See {IERC20-approve}. NOTE: If `amount` is the maximum `uint256`, the allowance is not updated on `transferFrom`. This is semantically equivalent to an infinite approval. Requirements: - `spender` cannot be the zero address."
      },
      "balanceOf(address)": {
        "details": "See {IERC20-balanceOf}."
      },
      "decimals()": {
        "details": "Returns the number of decimals used to get its user representation. For example, if `decimals` equals `2`, a balance of `505` tokens should be displayed to a user as `5.05` (`505 / 10 ** 2`). Tokens usually opt for a value of 18, imitating the relationship between Ether and Wei. This is the value {ERC20} uses, unless this function is overridden; NOTE: This information is only used for _display_ purposes: it in no way affects any of the arithmetic of the contract, including {IERC20-balanceOf} and {IERC20-transfer}."
      },
      "decreaseAllowance(address,uint256)": {
        "details": "Atomically decreases the allowance granted to `spender` by the caller. This is an alternative to {approve} that can be used as a mitigation for problems described in {IERC20-approve}. Emits an {Approval} event indicating the updated allowance. Requirements: - `spender` cannot be the zero address. - `spender` must have allowance for the caller of at least `subtractedValue`."
      },
      "increaseAllowance(address,uint256)": {
        "details": "Atomically increases the allowance granted to `spender` by the caller. This is an alternative to {approve} that can be used as a mitigation for problems described in {IERC20-approve}. Emits an {Approval} event indicating the updated allowance. Requirements: - `spender` cannot be the zero address."
      },
      "name()": {
        "details": "Returns the name of the token."
      },
      "symbol()": {
        "details": "Returns the symbol of the token, usually a shorter version of the name."
      },
      "totalSupply()": {
        "details": "See {IERC20-totalSupply}."
      },
      "transfer(address,uint256)": {
        "details": "See {IERC20-transfer}. Requirements: - `to` cannot be the zero address. - the caller must have a balance of at least `amount`."
      }
    },
    "version": 1
  },
  "userdoc": {
    "kind": "user",
    "methods": {},
    "version": 1
  }
}