{
  "contractName": "BlueToken",
  "abi": [
    {
      "inputs": [],
      "stateMutability": "nonpayable",
      "type": "constructor"
    },
    {
      "anonymous": false,
      "inputs": [
        {
          "indexed": true,
          "internalType": "address",
          "name": "owner",
          "type": "address"
        },
        {
          "indexed": true,
          "internalType": "address",
          "name": "spender",
          "type": "address"
        },
        {
          "indexed": false,
          "internalType": "uint256",
          "name": "value",
          "type": "uint256"
        }
      ],
      "name": "Approval",
      "type": "event"
    },
    {
      "anonymous": false,
      "inputs": [
        {
          "indexed": true,
          "internalType": "address",
          "name": "from",
          "type": "address"
        },
        {
          "indexed": true,
          "internalType": "address",
          "name": "to",
          "type": "address"
        },
        {
          "indexed": false,
          "internalType": "uint256",
          "name": "value",
          "type": "uint256"
        }
      ],
      "name": "Transfer",
      "type": "event"
    },
    {
      "inputs": [
        {
          "internalType": "address",
          "name": "owner",
          "type": "address"
        },
        {
          "internalType": "address",
          "name": "spender",
          "type": "address"
        }
      ],
      "name": "allowance",
      "outputs": [
        {
          "internalType": "uint256",
          "name": "",
          "type": "uint256"
        }
      ],
      "stateMutability": "view",
      "type": "function"
    },
    {
      "inputs": [
        {
          "internalType": "address",
          "name": "spender",
          "type": "address"
        },
        {
          "internalType": "uint256",
          "name": "amount",
          "type": "uint256"
        }
      ],
      "name": "approve",
      "outputs": [
        {
          "internalType": "bool",
          "name": "",
          "type": "bool"
        }
      ],
      "stateMutability": "nonpayable",
      "type": "function"
    },
    {
      "inputs": [
        {
          "internalType": "address",
          "name": "account",
          "type": "address"
        }
      ],
      "name": "balanceOf",
      "outputs": [
        {
          "internalType": "uint256",
          "name": "",
          "type": "uint256"
        }
      ],
      "stateMutability": "view",
      "type": "function"
    },
    {
      "inputs": [],
      "name": "decimals",
      "outputs": [
        {
          "internalType": "uint8",
          "name": "",
          "type": "uint8"
        }
      ],
      "stateMutability": "view",
      "type": "function"
    },
    {
      "inputs": [
        {
          "internalType": "address",
          "name": "spender",
          "type": "address"
        },
        {
          "internalType": "uint256",
          "name": "subtractedValue",
          "type": "uint256"
        }
      ],
      "name": "decreaseAllowance",
      "outputs": [
        {
          "internalType": "bool",
          "name": "",
          "type": "bool"
        }
      ],
      "stateMutability": "nonpayable",
      "type": "function"
    },
    {
      "inputs": [
        {
          "internalType": "address",
          "name": "spender",
          "type": "address"
        },
        {
          "internalType": "uint256",
          "name": "addedValue",
          "type": "uint256"
        }
      ],
      "name": "increaseAllowance",
      "outputs": [
        {
          "internalType": "bool",
          "name": "",
          "type": "bool"
        }
      ],
      "stateMutability": "nonpayable",
      "type": "function"
    },
    {
      "inputs": [],
      "name": "name",
      "outputs": [
        {
          "internalType": "string",
          "name": "",
          "type": "string"
        }
      ],
      "stateMutability": "view",
      "type": "function"
    },
    {
      "inputs": [],
      "name": "owner",
      "outputs": [
        {
          "internalType": "address payable",
          "name": "",
          "type": "address"
        }
      ],
      "stateMutability": "view",
      "type": "function"
    },
    {
      "inputs": [],
      "name": "symbol",
      "outputs": [
        {
          "internalType": "string",
          "name": "",
          "type": "string"
        }
      ],
      "stateMutability": "view",
      "type": "function"
    },
    {
      "inputs": [],
      "name": "totalSupply",
      "outputs": [
        {
          "internalType": "uint256",
          "name": "",
          "type": "uint256"
        }
      ],
      "stateMutability": "view",
      "type": "function"
    },
    {
      "inputs": [
        {
          "internalType": "address",
          "name": "_to",
          "type": "address"
        }
      ],
      "name": "mint",
      "outputs": [
        {
          "internalType": "bool",
          "name": "",
          "type": "bool"
        }
      ],
      "stateMutability": "nonpayable",
      "type": "function"
    },
    {
      "inputs": [
        {
          "internalType": "address",
          "name": "_addr",
          "type": "address"
        },
        {
          "internalType": "string",
          "name": "_name",
          "type": "string"
        },
        {
          "internalType": "string",
          "name": "_password",
          "type": "string"
        }
      ],
      "name": "signUp",
      "outputs": [
        {
          "internalType": "bool",
          "name": "",
          "type": "bool"
        }
      ],
      "stateMutability": "nonpayable",
      "type": "function"
    },
    {
      "inputs": [
        {
          "internalType": "string",
          "name": "_name",
          "type": "string"
        }
      ],
      "name": "signIn",
      "outputs": [
        {
          "internalType": "address",
          "name": "",
          "type": "address"
        },
        {
          "internalType": "uint256",
          "name": "",
          "type": "uint256"
        }
      ],
      "stateMutability": "view",
      "type": "function"
    },
    {
      "inputs": [
        {
          "internalType": "address",
          "name": "userAddress",
          "type": "address"
        }
      ],
      "name": "getContractBalance",
      "outputs": [
        {
          "internalType": "uint256",
          "name": "",
          "type": "uint256"
        }
      ],
      "stateMutability": "view",
      "type": "function"
    },
    {
      "inputs": [
        {
          "internalType": "address",
          "name": "_owner",
          "type": "address"
        },
        {
          "internalType": "address",
          "name": "_buyer",
          "type": "address"
        },
        {
          "internalType": "uint256",
          "name": "numTokens",
          "type": "uint256"
        }
      ],
      "name": "transferFrom",
      "outputs": [
        {
          "internalType": "bool",
          "name": "",
          "type": "bool"
        }
      ],
      "stateMutability": "nonpayable",
      "type": "function"
    },
    {
      "inputs": [
        {
          "internalType": "address",
          "name": "to",
          "type": "address"
        },
        {
          "internalType": "uint256",
          "name": "amount",
          "type": "uint256"
        }
      ],
      "name": "transfer",
      "outputs": [
        {
          "internalType": "bool",
          "name": "",
          "type": "bool"
        }
      ],
      "stateMutability": "nonpayable",
      "type": "function"
    },
    {
      "inputs": [
        {
          "internalType": "address",
          "name": "_from",
          "type": "address"
        },
        {
          "internalType": "address",
          "name": "_to",
          "type": "address"
        },
        {
          "internalType": "uint256",
          "name": "val",
          "type": "uint256"
        }
      ],
      "name": "transfer",
      "outputs": [
        {
          "internalType": "bool",
          "name": "",
          "type": "bool"
        }
      ],
      "stateMutability": "nonpayable",
      "type": "function"
    },
    {
      "inputs": [],
      "name": "destroy",
      "outputs": [],
      "stateMutability": "nonpayable",
      "type": "function"
    }
  ],
  "bytecode": "0x60806040523480156200001157600080fd5b506040518060400160405280600981526020017f426c7565546f6b656e00000000000000000000000000000000000000000000008152506040518060400160405280600381526020017f42544b000000000000000000000000000000000000000000000000000000000081525081600390816200008f919062000522565b508060049081620000a1919062000522565b505050620000e133620000b96200012860201b60201c565b600a620000c7919062000799565b600a620000d59190620007ea565b6200013160201b60201c565b33600560006101000a81548173ffffffffffffffffffffffffffffffffffffffff021916908373ffffffffffffffffffffffffffffffffffffffff16021790555062000921565b60006012905090565b600073ffffffffffffffffffffffffffffffffffffffff168273ffffffffffffffffffffffffffffffffffffffff1603620001a3576040517f08c379a00000000000000000000000000000000000000000000000000000000081526004016200019a9062000896565b60405180910390fd5b620001b7600083836200029e60201b60201c565b8060026000828254620001cb9190620008b8565b92505081905550806000808473ffffffffffffffffffffffffffffffffffffffff1673ffffffffffffffffffffffffffffffffffffffff168152602001908152602001600020600082825401925050819055508173ffffffffffffffffffffffffffffffffffffffff16600073ffffffffffffffffffffffffffffffffffffffff167fddf252ad1be2c89b69c2b068fc378daa952ba7f163c4a11628f55a4df523b3ef836040516200027e919062000904565b60405180910390a36200029a60008383620002a360201b60201c565b5050565b505050565b505050565b600081519050919050565b7f4e487b7100000000000000000000000000000000000000000000000000000000600052604160045260246000fd5b7f4e487b7100000000000000000000000000000000000000000000000000000000600052602260045260246000fd5b600060028204905060018216806200032a57607f821691505b60208210810362000340576200033f620002e2565b5b50919050565b60008190508160005260206000209050919050565b60006020601f8301049050919050565b600082821b905092915050565b600060088302620003aa7fffffffffffffffffffffffffffffffffffffffffffffffffffffffffffffffff826200036b565b620003b686836200036b565b95508019841693508086168417925050509392505050565b6000819050919050565b6000819050919050565b600062000403620003fd620003f784620003ce565b620003d8565b620003ce565b9050919050565b6000819050919050565b6200041f83620003e2565b620004376200042e826200040a565b84845462000378565b825550505050565b600090565b6200044e6200043f565b6200045b81848462000414565b505050565b5b8181101562000483576200047760008262000444565b60018101905062000461565b5050565b601f821115620004d2576200049c8162000346565b620004a7846200035b565b81016020851015620004b7578190505b620004cf620004c6856200035b565b83018262000460565b50505b505050565b600082821c905092915050565b6000620004f760001984600802620004d7565b1980831691505092915050565b6000620005128383620004e4565b9150826002028217905092915050565b6200052d82620002a8565b67ffffffffffffffff811115620005495762000548620002b3565b5b62000555825462000311565b6200056282828562000487565b600060209050601f8311600181146200059a576000841562000585578287015190505b62000591858262000504565b86555062000601565b601f198416620005aa8662000346565b60005b82811015620005d457848901518255600182019150602085019450602081019050620005ad565b86831015620005f45784890151620005f0601f891682620004e4565b8355505b6001600288020188555050505b505050505050565b7f4e487b7100000000000000000000000000000000000000000000000000000000600052601160045260246000fd5b60008160011c9050919050565b6000808291508390505b600185111562000697578086048111156200066f576200066e62000609565b5b60018516156200067f5780820291505b80810290506200068f8562000638565b94506200064f565b94509492505050565b600082620006b2576001905062000785565b81620006c2576000905062000785565b8160018114620006db5760028114620006e6576200071c565b600191505062000785565b60ff841115620006fb57620006fa62000609565b5b8360020a91508482111562000715576200071462000609565b5b5062000785565b5060208310610133831016604e8410600b8410161715620007565782820a90508381111562000750576200074f62000609565b5b62000785565b62000765848484600162000645565b925090508184048111156200077f576200077e62000609565b5b81810290505b9392505050565b600060ff82169050919050565b6000620007a682620003ce565b9150620007b3836200078c565b9250620007e27fffffffffffffffffffffffffffffffffffffffffffffffffffffffffffffffff8484620006a0565b905092915050565b6000620007f782620003ce565b91506200080483620003ce565b92508282026200081481620003ce565b915082820484148315176200082e576200082d62000609565b5b5092915050565b600082825260208201905092915050565b7f45524332303a206d696e7420746f20746865207a65726f206164647265737300600082015250565b60006200087e601f8362000835565b91506200088b8262000846565b602082019050919050565b60006020820190508181036000830152620008b1816200086f565b9050919050565b6000620008c582620003ce565b9150620008d283620003ce565b9250828201905080821115620008ed57620008ec62000609565b5b92915050565b620008fe81620003ce565b82525050565b60006020820190506200091b6000830184620008f3565b92915050565b6122c380620009316000396000f3fe608060405234801561001057600080fd5b50600436106101165760003560e01c806383197ef0116100a2578063a9059cbb11610071578063a9059cbb1461030b578063a9b4d9191461033b578063beabacc81461036b578063c95f728a1461039b578063dd62ed3e146103cc57610116565b806383197ef0146102955780638da5cb5b1461029f57806395d89b41146102bd578063a457c2d7146102db57610116565b8063313ce567116100e9578063313ce567146101b757806339509351146101d557806343ab265f146102055780636a6278421461023557806370a082311461026557610116565b806306fdde031461011b578063095ea7b31461013957806318160ddd1461016957806323b872dd14610187575b600080fd5b6101236103fc565b60405161013091906112e5565b60405180910390f35b610153600480360381019061014e91906113af565b61048e565b604051610160919061140a565b60405180910390f35b6101716104b1565b60405161017e9190611434565b60405180910390f35b6101a1600480360381019061019c919061144f565b6104bb565b6040516101ae919061140a565b60405180910390f35b6101bf61058c565b6040516101cc91906114be565b60405180910390f35b6101ef60048036038101906101ea91906113af565b610595565b6040516101fc919061140a565b60405180910390f35b61021f600480360381019061021a91906114d9565b6105cc565b60405161022c9190611434565b60405180910390f35b61024f600480360381019061024a91906114d9565b6105de565b60405161025c919061140a565b60405180910390f35b61027f600480360381019061027a91906114d9565b610612565b60405161028c9190611434565b60405180910390f35b61029d61065a565b005b6102a7610725565b6040516102b49190611527565b60405180910390f35b6102c561074b565b6040516102d291906112e5565b60405180910390f35b6102f560048036038101906102f091906113af565b6107dd565b604051610302919061140a565b60405180910390f35b610325600480360381019061032091906113af565b610854565b604051610332919061140a565b60405180910390f35b61035560048036038101906103509190611677565b610877565b604051610362919061140a565b60405180910390f35b6103856004803603810190610380919061144f565b610ac7565b604051610392919061140a565b60405180910390f35b6103b560048036038101906103b09190611702565b610adf565b6040516103c392919061175a565b60405180910390f35b6103e660048036038101906103e19190611783565b610c27565b6040516103f39190611434565b60405180910390f35b60606003805461040b906117f2565b80601f0160208091040260200160405190810160405280929190818152602001828054610437906117f2565b80156104845780601f1061045957610100808354040283529160200191610484565b820191906000526020600020905b81548152906001019060200180831161046757829003601f168201915b5050505050905090565b600080610499610cae565b90506104a6818585610cb6565b600191505092915050565b6000600254905090565b600080670de0b6b3a7640000836104d29190611852565b905080600760008773ffffffffffffffffffffffffffffffffffffffff1673ffffffffffffffffffffffffffffffffffffffff16815260200190815260200160002060008282546105239190611894565b9250508190555080600760008673ffffffffffffffffffffffffffffffffffffffff1673ffffffffffffffffffffffffffffffffffffffff168152602001908152602001600020600082825461057991906118c8565b9250508190555060019150509392505050565b60006012905090565b6000806105a0610cae565b90506105c18185856105b28589610c27565b6105bc91906118c8565b610cb6565b600191505092915050565b60006105d782610612565b9050919050565b6000610609826105ec61058c565b600a6105f89190611a2f565b600a6106049190611852565b610e7f565b60019050919050565b60008060008373ffffffffffffffffffffffffffffffffffffffff1673ffffffffffffffffffffffffffffffffffffffff168152602001908152602001600020549050919050565b600560009054906101000a900473ffffffffffffffffffffffffffffffffffffffff1673ffffffffffffffffffffffffffffffffffffffff163373ffffffffffffffffffffffffffffffffffffffff16146106ea576040517f08c379a00000000000000000000000000000000000000000000000000000000081526004016106e190611aec565b60405180910390fd5b600560009054906101000a900473ffffffffffffffffffffffffffffffffffffffff1673ffffffffffffffffffffffffffffffffffffffff16ff5b600560009054906101000a900473ffffffffffffffffffffffffffffffffffffffff1681565b60606004805461075a906117f2565b80601f0160208091040260200160405190810160405280929190818152602001828054610786906117f2565b80156107d35780601f106107a8576101008083540402835291602001916107d3565b820191906000526020600020905b8154815290600101906020018083116107b657829003601f168201915b5050505050905090565b6000806107e8610cae565b905060006107f68286610c27565b90508381101561083b576040517f08c379a000000000000000000000000000000000000000000000000000000000815260040161083290611b7e565b60405180910390fd5b6108488286868403610cb6565b60019250505092915050565b60008061085f610cae565b905061086c818585610fd5565b600191505092915050565b60008073ffffffffffffffffffffffffffffffffffffffff166006846040516108a09190611bda565b908152602001604051809103902060000160009054906101000a900473ffffffffffffffffffffffffffffffffffffffff1673ffffffffffffffffffffffffffffffffffffffff1614610928576040517f08c379a000000000000000000000000000000000000000000000000000000000815260040161091f90611c3d565b60405180910390fd5b836006846040516109399190611bda565b908152602001604051809103902060000160006101000a81548173ffffffffffffffffffffffffffffffffffffffff021916908373ffffffffffffffffffffffffffffffffffffffff160217905550826006846040516109999190611bda565b908152602001604051809103902060010190816109b69190611e09565b50816006846040516109c89190611bda565b908152602001604051809103902060020190816109e59190611e09565b50610a0f846109f261058c565b600a6109fe9190611a2f565b6001610a0a9190611852565b610e7f565b610a1761058c565b600a610a239190611a2f565b6001610a2f9190611852565b600760008673ffffffffffffffffffffffffffffffffffffffff1673ffffffffffffffffffffffffffffffffffffffff16815260200190815260200160002054610a7991906118c8565b600760008673ffffffffffffffffffffffffffffffffffffffff1673ffffffffffffffffffffffffffffffffffffffff16815260200190815260200160002081905550600190509392505050565b6000610ad4848484610fd5565b600190509392505050565b600080600073ffffffffffffffffffffffffffffffffffffffff16600684604051610b0a9190611bda565b908152602001604051809103902060000160009054906101000a900473ffffffffffffffffffffffffffffffffffffffff1673ffffffffffffffffffffffffffffffffffffffff1603610b92576040517f08c379a0000000000000000000000000000000000000000000000000000000008152600401610b8990611f27565b60405180910390fd5b600683604051610ba29190611bda565b908152602001604051809103902060000160009054906101000a900473ffffffffffffffffffffffffffffffffffffffff16610c1e600685604051610be79190611bda565b908152602001604051809103902060000160009054906101000a900473ffffffffffffffffffffffffffffffffffffffff16610612565b91509150915091565b6000600160008473ffffffffffffffffffffffffffffffffffffffff1673ffffffffffffffffffffffffffffffffffffffff16815260200190815260200160002060008373ffffffffffffffffffffffffffffffffffffffff1673ffffffffffffffffffffffffffffffffffffffff16815260200190815260200160002054905092915050565b600033905090565b600073ffffffffffffffffffffffffffffffffffffffff168373ffffffffffffffffffffffffffffffffffffffff1603610d25576040517f08c379a0000000000000000000000000000000000000000000000000000000008152600401610d1c90611fb9565b60405180910390fd5b600073ffffffffffffffffffffffffffffffffffffffff168273ffffffffffffffffffffffffffffffffffffffff1603610d94576040517f08c379a0000000000000000000000000000000000000000000000000000000008152600401610d8b9061204b565b60405180910390fd5b80600160008573ffffffffffffffffffffffffffffffffffffffff1673ffffffffffffffffffffffffffffffffffffffff16815260200190815260200160002060008473ffffffffffffffffffffffffffffffffffffffff1673ffffffffffffffffffffffffffffffffffffffff168152602001908152602001600020819055508173ffffffffffffffffffffffffffffffffffffffff168373ffffffffffffffffffffffffffffffffffffffff167f8c5be1e5ebec7d5bd14f71427d1e84f3dd0314c0f7b2291e5b200ac8c7c3b92583604051610e729190611434565b60405180910390a3505050565b600073ffffffffffffffffffffffffffffffffffffffff168273ffffffffffffffffffffffffffffffffffffffff1603610eee576040517f08c379a0000000000000000000000000000000000000000000000000000000008152600401610ee5906120b7565b60405180910390fd5b610efa6000838361124b565b8060026000828254610f0c91906118c8565b92505081905550806000808473ffffffffffffffffffffffffffffffffffffffff1673ffffffffffffffffffffffffffffffffffffffff168152602001908152602001600020600082825401925050819055508173ffffffffffffffffffffffffffffffffffffffff16600073ffffffffffffffffffffffffffffffffffffffff167fddf252ad1be2c89b69c2b068fc378daa952ba7f163c4a11628f55a4df523b3ef83604051610fbd9190611434565b60405180910390a3610fd160008383611250565b5050565b600073ffffffffffffffffffffffffffffffffffffffff168373ffffffffffffffffffffffffffffffffffffffff1603611044576040517f08c379a000000000000000000000000000000000000000000000000000000000815260040161103b90612149565b60405180910390fd5b600073ffffffffffffffffffffffffffffffffffffffff168273ffffffffffffffffffffffffffffffffffffffff16036110b3576040517f08c379a00000000000000000000000000000000000000000000000000000000081526004016110aa906121db565b60405180910390fd5b6110be83838361124b565b60008060008573ffffffffffffffffffffffffffffffffffffffff1673ffffffffffffffffffffffffffffffffffffffff16815260200190815260200160002054905081811015611144576040517f08c379a000000000000000000000000000000000000000000000000000000000815260040161113b9061226d565b60405180910390fd5b8181036000808673ffffffffffffffffffffffffffffffffffffffff1673ffffffffffffffffffffffffffffffffffffffff16815260200190815260200160002081905550816000808573ffffffffffffffffffffffffffffffffffffffff1673ffffffffffffffffffffffffffffffffffffffff168152602001908152602001600020600082825401925050819055508273ffffffffffffffffffffffffffffffffffffffff168473ffffffffffffffffffffffffffffffffffffffff167fddf252ad1be2c89b69c2b068fc378daa952ba7f163c4a11628f55a4df523b3ef846040516112329190611434565b60405180910390a3611245848484611250565b50505050565b505050565b505050565b600081519050919050565b600082825260208201905092915050565b60005b8381101561128f578082015181840152602081019050611274565b60008484015250505050565b6000601f19601f8301169050919050565b60006112b782611255565b6112c18185611260565b93506112d1818560208601611271565b6112da8161129b565b840191505092915050565b600060208201905081810360008301526112ff81846112ac565b905092915050565b6000604051905090565b600080fd5b600080fd5b600073ffffffffffffffffffffffffffffffffffffffff82169050919050565b60006113468261131b565b9050919050565b6113568161133b565b811461136157600080fd5b50565b6000813590506113738161134d565b92915050565b6000819050919050565b61138c81611379565b811461139757600080fd5b50565b6000813590506113a981611383565b92915050565b600080604083850312156113c6576113c5611311565b5b60006113d485828601611364565b92505060206113e58582860161139a565b9150509250929050565b60008115159050919050565b611404816113ef565b82525050565b600060208201905061141f60008301846113fb565b92915050565b61142e81611379565b82525050565b60006020820190506114496000830184611425565b92915050565b60008060006060848603121561146857611467611311565b5b600061147686828701611364565b935050602061148786828701611364565b92505060406114988682870161139a565b9150509250925092565b600060ff82169050919050565b6114b8816114a2565b82525050565b60006020820190506114d360008301846114af565b92915050565b6000602082840312156114ef576114ee611311565b5b60006114fd84828501611364565b91505092915050565b60006115118261131b565b9050919050565b61152181611506565b82525050565b600060208201905061153c6000830184611518565b92915050565b600080fd5b600080fd5b7f4e487b7100000000000000000000000000000000000000000000000000000000600052604160045260246000fd5b6115848261129b565b810181811067ffffffffffffffff821117156115a3576115a261154c565b5b80604052505050565b60006115b6611307565b90506115c2828261157b565b919050565b600067ffffffffffffffff8211156115e2576115e161154c565b5b6115eb8261129b565b9050602081019050919050565b82818337600083830152505050565b600061161a611615846115c7565b6115ac565b90508281526020810184848401111561163657611635611547565b5b6116418482856115f8565b509392505050565b600082601f83011261165e5761165d611542565b5b813561166e848260208601611607565b91505092915050565b6000806000606084860312156116905761168f611311565b5b600061169e86828701611364565b935050602084013567ffffffffffffffff8111156116bf576116be611316565b5b6116cb86828701611649565b925050604084013567ffffffffffffffff8111156116ec576116eb611316565b5b6116f886828701611649565b9150509250925092565b60006020828403121561171857611717611311565b5b600082013567ffffffffffffffff81111561173657611735611316565b5b61174284828501611649565b91505092915050565b6117548161133b565b82525050565b600060408201905061176f600083018561174b565b61177c6020830184611425565b9392505050565b6000806040838503121561179a57611799611311565b5b60006117a885828601611364565b92505060206117b985828601611364565b9150509250929050565b7f4e487b7100000000000000000000000000000000000000000000000000000000600052602260045260246000fd5b6000600282049050600182168061180a57607f821691505b60208210810361181d5761181c6117c3565b5b50919050565b7f4e487b7100000000000000000000000000000000000000000000000000000000600052601160045260246000fd5b600061185d82611379565b915061186883611379565b925082820261187681611379565b9150828204841483151761188d5761188c611823565b5b5092915050565b600061189f82611379565b91506118aa83611379565b92508282039050818111156118c2576118c1611823565b5b92915050565b60006118d382611379565b91506118de83611379565b92508282019050808211156118f6576118f5611823565b5b92915050565b60008160011c9050919050565b6000808291508390505b60018511156119535780860481111561192f5761192e611823565b5b600185161561193e5780820291505b808102905061194c856118fc565b9450611913565b94509492505050565b60008261196c5760019050611a28565b8161197a5760009050611a28565b8160018114611990576002811461199a576119c9565b6001915050611a28565b60ff8411156119ac576119ab611823565b5b8360020a9150848211156119c3576119c2611823565b5b50611a28565b5060208310610133831016604e8410600b84101617156119fe5782820a9050838111156119f9576119f8611823565b5b611a28565b611a0b8484846001611909565b92509050818404811115611a2257611a21611823565b5b81810290505b9392505050565b6000611a3a82611379565b9150611a45836114a2565b9250611a727fffffffffffffffffffffffffffffffffffffffffffffffffffffffffffffffff848461195c565b905092915050565b7f4f6e6c7920746865206f776e65722063616e2063616c6c20746869732066756e60008201527f6374696f6e000000000000000000000000000000000000000000000000000000602082015250565b6000611ad6602583611260565b9150611ae182611a7a565b604082019050919050565b60006020820190508181036000830152611b0581611ac9565b9050919050565b7f45524332303a2064656372656173656420616c6c6f77616e63652062656c6f7760008201527f207a65726f000000000000000000000000000000000000000000000000000000602082015250565b6000611b68602583611260565b9150611b7382611b0c565b604082019050919050565b60006020820190508181036000830152611b9781611b5b565b9050919050565b600081905092915050565b6000611bb482611255565b611bbe8185611b9e565b9350611bce818560208601611271565b80840191505092915050565b6000611be68284611ba9565b915081905092915050565b7f5573657220616c72656164792065787369737473000000000000000000000000600082015250565b6000611c27601483611260565b9150611c3282611bf1565b602082019050919050565b60006020820190508181036000830152611c5681611c1a565b9050919050565b60008190508160005260206000209050919050565b60006020601f8301049050919050565b600082821b905092915050565b600060088302611cbf7fffffffffffffffffffffffffffffffffffffffffffffffffffffffffffffffff82611c82565b611cc98683611c82565b95508019841693508086168417925050509392505050565b6000819050919050565b6000611d06611d01611cfc84611379565b611ce1565b611379565b9050919050565b6000819050919050565b611d2083611ceb565b611d34611d2c82611d0d565b848454611c8f565b825550505050565b600090565b611d49611d3c565b611d54818484611d17565b505050565b5b81811015611d7857611d6d600082611d41565b600181019050611d5a565b5050565b601f821115611dbd57611d8e81611c5d565b611d9784611c72565b81016020851015611da6578190505b611dba611db285611c72565b830182611d59565b50505b505050565b600082821c905092915050565b6000611de060001984600802611dc2565b1980831691505092915050565b6000611df98383611dcf565b9150826002028217905092915050565b611e1282611255565b67ffffffffffffffff811115611e2b57611e2a61154c565b5b611e3582546117f2565b611e40828285611d7c565b600060209050601f831160018114611e735760008415611e61578287015190505b611e6b8582611ded565b865550611ed3565b601f198416611e8186611c5d565b60005b82811015611ea957848901518255600182019150602085019450602081019050611e84565b86831015611ec65784890151611ec2601f891682611dcf565b8355505b6001600288020188555050505b505050505050565b7f55736572204e6f74206578736973747300000000000000000000000000000000600082015250565b6000611f11601083611260565b9150611f1c82611edb565b602082019050919050565b60006020820190508181036000830152611f4081611f04565b9050919050565b7f45524332303a20617070726f76652066726f6d20746865207a65726f2061646460008201527f7265737300000000000000000000000000000000000000000000000000000000602082015250565b6000611fa3602483611260565b9150611fae82611f47565b604082019050919050565b60006020820190508181036000830152611fd281611f96565b9050919050565b7f45524332303a20617070726f766520746f20746865207a65726f20616464726560008201527f7373000000000000000000000000000000000000000000000000000000000000602082015250565b6000612035602283611260565b915061204082611fd9565b604082019050919050565b6000602082019050818103600083015261206481612028565b9050919050565b7f45524332303a206d696e7420746f20746865207a65726f206164647265737300600082015250565b60006120a1601f83611260565b91506120ac8261206b565b602082019050919050565b600060208201905081810360008301526120d081612094565b9050919050565b7f45524332303a207472616e736665722066726f6d20746865207a65726f20616460008201527f6472657373000000000000000000000000000000000000000000000000000000602082015250565b6000612133602583611260565b915061213e826120d7565b604082019050919050565b6000602082019050818103600083015261216281612126565b9050919050565b7f45524332303a207472616e7366657220746f20746865207a65726f206164647260008201527f6573730000000000000000000000000000000000000000000000000000000000602082015250565b60006121c5602383611260565b91506121d082612169565b604082019050919050565b600060208201905081810360008301526121f4816121b8565b9050919050565b7f45524332303a207472616e7366657220616d6f756e742065786365656473206260008201527f616c616e63650000000000000000000000000000000000000000000000000000602082015250565b6000612257602683611260565b9150612262826121fb565b604082019050919050565b600060208201905081810360008301526122868161224a565b905091905056fea2646970667358221220af9d128d924505f8e1a271a0a58038dc7319256eaf53351d8e41a4987077f57164736f6c63430008110033",
  "immutableReferences": {},
  "source": "// SPDX-License-Identifier:MIT\r\n\r\npragma solidity ^0.8.0;\r\n\r\nimport \"@openzeppelin/contracts/token/ERC20/ERC20.sol\";\r\n\r\ncontract BlueToken is ERC20 {\r\n    address payable public owner;\r\n\r\n    struct UserDetail {\r\n        address addr;\r\n        string name;\r\n        string password;\r\n        uint256 balance;\r\n    }\r\n\r\n    mapping(string => UserDetail) user;\r\n    mapping(address => uint256) balances;\r\n\r\n    constructor() ERC20(\"BlueToken\", \"BTK\") {\r\n        _mint(msg.sender, 10 * (10**decimals()));\r\n        owner = payable(msg.sender);\r\n    }\r\n\r\n    function mint(address _to) public returns (bool) {\r\n        _mint(_to, 10 * (10**decimals()));\r\n        return true;\r\n    }\r\n\r\n    function signUp(\r\n        address _addr,\r\n        string memory _name,\r\n        string memory _password\r\n    ) external returns (bool) {\r\n        require(user[_name].addr == address(0), \"User already exsists\");\r\n        user[_name].addr = _addr;\r\n        user[_name].name = _name;\r\n        user[_name].password = _password;\r\n        _mint(_addr, 1 * (10**decimals()));\r\n        balances[_addr] = balances[_addr] + (1 * (10**decimals()));\r\n        return true;\r\n    }\r\n\r\n    function signIn(string memory _name)\r\n        external\r\n        view\r\n        returns (address, uint256)\r\n    {\r\n        require(user[_name].addr != address(0), \"User Not exsists\");\r\n        return (user[_name].addr, balanceOf(user[_name].addr));\r\n    }\r\n\r\n    function getContractBalance(address userAddress)\r\n        public\r\n        view\r\n        returns (uint256)\r\n    {\r\n        return balanceOf(userAddress);\r\n    }\r\n\r\n    function transferFrom(\r\n        address _owner,\r\n        address _buyer,\r\n        uint256 numTokens\r\n    ) public virtual override returns (bool) {\r\n        uint256 val = numTokens * (10**18);\r\n        balances[_owner] -= val;\r\n        balances[_buyer] += val;\r\n        return true;\r\n    }\r\n\r\n    function transfer(\r\n        address _from,\r\n        address _to,\r\n        uint256 val\r\n    ) public returns (bool) {\r\n        _transfer(_from, _to, val);\r\n        return true;\r\n    }\r\n\r\n    function destroy() public onlyOwner {\r\n        selfdestruct(owner);\r\n    }\r\n\r\n    modifier onlyOwner() {\r\n        require(msg.sender == owner, \"Only the owner can call this function\");\r\n        _;\r\n    }\r\n}\r\n",
  "sourcePath": "C:\\Users\\balam\\OneDrive\\Documents\\poc\\server\\contracts\\BlueToken.sol",
  "compiler": {
    "name": "solc",
    "version": "0.8.17+commit.8df45f5f.Emscripten.clang"
  },
  "schemaVersion": "3.4.11",
  "updatedAt": "2023-01-09T12:21:06.168Z",
  "devdoc": {
    "kind": "dev",
    "methods": {
      "allowance(address,address)": {
        "details": "See {IERC20-allowance}."
      },
      "approve(address,uint256)": {
        "details": "See {IERC20-approve}. NOTE: If `amount` is the maximum `uint256`, the allowance is not updated on `transferFrom`. This is semantically equivalent to an infinite approval. Requirements: - `spender` cannot be the zero address."
      },
      "balanceOf(address)": {
        "details": "See {IERC20-balanceOf}."
      },
      "decimals()": {
        "details": "Returns the number of decimals used to get its user representation. For example, if `decimals` equals `2`, a balance of `505` tokens should be displayed to a user as `5.05` (`505 / 10 ** 2`). Tokens usually opt for a value of 18, imitating the relationship between Ether and Wei. This is the value {ERC20} uses, unless this function is overridden; NOTE: This information is only used for _display_ purposes: it in no way affects any of the arithmetic of the contract, including {IERC20-balanceOf} and {IERC20-transfer}."
      },
      "decreaseAllowance(address,uint256)": {
        "details": "Atomically decreases the allowance granted to `spender` by the caller. This is an alternative to {approve} that can be used as a mitigation for problems described in {IERC20-approve}. Emits an {Approval} event indicating the updated allowance. Requirements: - `spender` cannot be the zero address. - `spender` must have allowance for the caller of at least `subtractedValue`."
      },
      "increaseAllowance(address,uint256)": {
        "details": "Atomically increases the allowance granted to `spender` by the caller. This is an alternative to {approve} that can be used as a mitigation for problems described in {IERC20-approve}. Emits an {Approval} event indicating the updated allowance. Requirements: - `spender` cannot be the zero address."
      },
      "name()": {
        "details": "Returns the name of the token."
      },
      "symbol()": {
        "details": "Returns the symbol of the token, usually a shorter version of the name."
      },
      "totalSupply()": {
        "details": "See {IERC20-totalSupply}."
      },
      "transfer(address,uint256)": {
        "details": "See {IERC20-transfer}. Requirements: - `to` cannot be the zero address. - the caller must have a balance of at least `amount`."
      }
    },
    "version": 1
  },
  "userdoc": {
    "kind": "user",
    "methods": {},
    "version": 1
  }
}