{
  "contractName": "BlueToken",
  "abi": [
    {
      "inputs": [
        {
          "internalType": "uint256",
          "name": "cap",
          "type": "uint256"
        },
        {
          "internalType": "uint256",
          "name": "reward",
          "type": "uint256"
        }
      ],
      "stateMutability": "nonpayable",
      "type": "constructor"
    },
    {
      "anonymous": false,
      "inputs": [
        {
          "indexed": true,
          "internalType": "address",
          "name": "owner",
          "type": "address"
        },
        {
          "indexed": true,
          "internalType": "address",
          "name": "spender",
          "type": "address"
        },
        {
          "indexed": false,
          "internalType": "uint256",
          "name": "value",
          "type": "uint256"
        }
      ],
      "name": "Approval",
      "type": "event"
    },
    {
      "anonymous": false,
      "inputs": [
        {
          "indexed": true,
          "internalType": "address",
          "name": "from",
          "type": "address"
        },
        {
          "indexed": true,
          "internalType": "address",
          "name": "to",
          "type": "address"
        },
        {
          "indexed": false,
          "internalType": "uint256",
          "name": "value",
          "type": "uint256"
        }
      ],
      "name": "Transfer",
      "type": "event"
    },
    {
      "inputs": [
        {
          "internalType": "address",
          "name": "owner",
          "type": "address"
        },
        {
          "internalType": "address",
          "name": "spender",
          "type": "address"
        }
      ],
      "name": "allowance",
      "outputs": [
        {
          "internalType": "uint256",
          "name": "",
          "type": "uint256"
        }
      ],
      "stateMutability": "view",
      "type": "function"
    },
    {
      "inputs": [
        {
          "internalType": "address",
          "name": "spender",
          "type": "address"
        },
        {
          "internalType": "uint256",
          "name": "amount",
          "type": "uint256"
        }
      ],
      "name": "approve",
      "outputs": [
        {
          "internalType": "bool",
          "name": "",
          "type": "bool"
        }
      ],
      "stateMutability": "nonpayable",
      "type": "function"
    },
    {
      "inputs": [
        {
          "internalType": "address",
          "name": "account",
          "type": "address"
        }
      ],
      "name": "balanceOf",
      "outputs": [
        {
          "internalType": "uint256",
          "name": "",
          "type": "uint256"
        }
      ],
      "stateMutability": "view",
      "type": "function"
    },
    {
      "inputs": [],
      "name": "blockReward",
      "outputs": [
        {
          "internalType": "uint256",
          "name": "",
          "type": "uint256"
        }
      ],
      "stateMutability": "view",
      "type": "function"
    },
    {
      "inputs": [
        {
          "internalType": "uint256",
          "name": "amount",
          "type": "uint256"
        }
      ],
      "name": "burn",
      "outputs": [],
      "stateMutability": "nonpayable",
      "type": "function"
    },
    {
      "inputs": [
        {
          "internalType": "address",
          "name": "account",
          "type": "address"
        },
        {
          "internalType": "uint256",
          "name": "amount",
          "type": "uint256"
        }
      ],
      "name": "burnFrom",
      "outputs": [],
      "stateMutability": "nonpayable",
      "type": "function"
    },
    {
      "inputs": [],
      "name": "cap",
      "outputs": [
        {
          "internalType": "uint256",
          "name": "",
          "type": "uint256"
        }
      ],
      "stateMutability": "view",
      "type": "function"
    },
    {
      "inputs": [],
      "name": "decimals",
      "outputs": [
        {
          "internalType": "uint8",
          "name": "",
          "type": "uint8"
        }
      ],
      "stateMutability": "view",
      "type": "function"
    },
    {
      "inputs": [
        {
          "internalType": "address",
          "name": "spender",
          "type": "address"
        },
        {
          "internalType": "uint256",
          "name": "subtractedValue",
          "type": "uint256"
        }
      ],
      "name": "decreaseAllowance",
      "outputs": [
        {
          "internalType": "bool",
          "name": "",
          "type": "bool"
        }
      ],
      "stateMutability": "nonpayable",
      "type": "function"
    },
    {
      "inputs": [
        {
          "internalType": "address",
          "name": "spender",
          "type": "address"
        },
        {
          "internalType": "uint256",
          "name": "addedValue",
          "type": "uint256"
        }
      ],
      "name": "increaseAllowance",
      "outputs": [
        {
          "internalType": "bool",
          "name": "",
          "type": "bool"
        }
      ],
      "stateMutability": "nonpayable",
      "type": "function"
    },
    {
      "inputs": [],
      "name": "name",
      "outputs": [
        {
          "internalType": "string",
          "name": "",
          "type": "string"
        }
      ],
      "stateMutability": "view",
      "type": "function"
    },
    {
      "inputs": [],
      "name": "owner",
      "outputs": [
        {
          "internalType": "address payable",
          "name": "",
          "type": "address"
        }
      ],
      "stateMutability": "view",
      "type": "function"
    },
    {
      "inputs": [],
      "name": "symbol",
      "outputs": [
        {
          "internalType": "string",
          "name": "",
          "type": "string"
        }
      ],
      "stateMutability": "view",
      "type": "function"
    },
    {
      "inputs": [],
      "name": "totalSupply",
      "outputs": [
        {
          "internalType": "uint256",
          "name": "",
          "type": "uint256"
        }
      ],
      "stateMutability": "view",
      "type": "function"
    },
    {
      "inputs": [
        {
          "internalType": "address",
          "name": "to",
          "type": "address"
        },
        {
          "internalType": "uint256",
          "name": "amount",
          "type": "uint256"
        }
      ],
      "name": "transfer",
      "outputs": [
        {
          "internalType": "bool",
          "name": "",
          "type": "bool"
        }
      ],
      "stateMutability": "nonpayable",
      "type": "function"
    },
    {
      "inputs": [
        {
          "internalType": "address",
          "name": "from",
          "type": "address"
        },
        {
          "internalType": "address",
          "name": "to",
          "type": "address"
        },
        {
          "internalType": "uint256",
          "name": "amount",
          "type": "uint256"
        }
      ],
      "name": "transferFrom",
      "outputs": [
        {
          "internalType": "bool",
          "name": "",
          "type": "bool"
        }
      ],
      "stateMutability": "nonpayable",
      "type": "function"
    },
    {
      "inputs": [
        {
          "internalType": "uint256",
          "name": "reward",
          "type": "uint256"
        }
      ],
      "name": "setBlockReward",
      "outputs": [],
      "stateMutability": "nonpayable",
      "type": "function"
    },
    {
      "inputs": [],
      "name": "destroy",
      "outputs": [],
      "stateMutability": "nonpayable",
      "type": "function"
    },
    {
      "inputs": [
        {
          "internalType": "address",
          "name": "_addr",
          "type": "address"
        },
        {
          "internalType": "string",
          "name": "_name",
          "type": "string"
        },
        {
          "internalType": "string",
          "name": "_password",
          "type": "string"
        }
      ],
      "name": "signUp",
      "outputs": [
        {
          "internalType": "bool",
          "name": "",
          "type": "bool"
        }
      ],
      "stateMutability": "nonpayable",
      "type": "function"
    },
    {
      "inputs": [
        {
          "internalType": "string",
          "name": "_name",
          "type": "string"
        }
      ],
      "name": "signIn",
      "outputs": [
        {
          "internalType": "address",
          "name": "",
          "type": "address"
        },
        {
          "internalType": "uint256",
          "name": "",
          "type": "uint256"
        }
      ],
      "stateMutability": "view",
      "type": "function"
    }
  ],
  "bytecode": "0x60a06040523480156200001157600080fd5b506040516200362438038062003624833981810160405281019062000037919062000603565b620000476200021f60201b60201c565b600a620000559190620007da565b826200006291906200082b565b6040518060400160405280600981526020017f426c7565546f6b656e00000000000000000000000000000000000000000000008152506040518060400160405280600381526020017f42544b00000000000000000000000000000000000000000000000000000000008152508160039081620000df919062000ae6565b508060049081620000f1919062000ae6565b505050600081116200013a576040517f08c379a0000000000000000000000000000000000000000000000000000000008152600401620001319062000c2e565b60405180910390fd5b80608081815250505033600560006101000a81548173ffffffffffffffffffffffffffffffffffffffff021916908373ffffffffffffffffffffffffffffffffffffffff160217905550620001946200021f60201b60201c565b600a620001a29190620007da565b81620001af91906200082b565b60068190555062000217600560009054906101000a900473ffffffffffffffffffffffffffffffffffffffff16620001ec6200021f60201b60201c565b600a620001fa9190620007da565b63042c1d806200020b91906200082b565b6200022860201b60201c565b505062000d9d565b60006012905090565b62000238620002b960201b60201c565b816200024e620002c360201b620004cd1760201c565b6200025a919062000c50565b11156200029e576040517f08c379a0000000000000000000000000000000000000000000000000000000008152600401620002959062000cdb565b60405180910390fd5b620002b58282620002cd60201b62000c8c1760201c565b5050565b6000608051905090565b6000600254905090565b620002dd620002b960201b60201c565b81620002f3620002c360201b620004cd1760201c565b620002ff919062000c50565b111562000343576040517f08c379a00000000000000000000000000000000000000000000000000000000081526004016200033a9062000cdb565b60405180910390fd5b6200035a82826200035e60201b62000cf61760201c565b5050565b600073ffffffffffffffffffffffffffffffffffffffff168273ffffffffffffffffffffffffffffffffffffffff1603620003d0576040517f08c379a0000000000000000000000000000000000000000000000000000000008152600401620003c79062000d4d565b60405180910390fd5b620003e460008383620004cb60201b60201c565b8060026000828254620003f8919062000c50565b92505081905550806000808473ffffffffffffffffffffffffffffffffffffffff1673ffffffffffffffffffffffffffffffffffffffff168152602001908152602001600020600082825401925050819055508173ffffffffffffffffffffffffffffffffffffffff16600073ffffffffffffffffffffffffffffffffffffffff167fddf252ad1be2c89b69c2b068fc378daa952ba7f163c4a11628f55a4df523b3ef83604051620004ab919062000d80565b60405180910390a3620004c760008383620005a360201b60201c565b5050565b600073ffffffffffffffffffffffffffffffffffffffff168373ffffffffffffffffffffffffffffffffffffffff1614158015620005365750600073ffffffffffffffffffffffffffffffffffffffff164173ffffffffffffffffffffffffffffffffffffffff1614155b80156200056f57504173ffffffffffffffffffffffffffffffffffffffff168273ffffffffffffffffffffffffffffffffffffffff1614155b15620005865762000585620005a860201b60201c565b5b6200059e838383620005be60201b62000e4c1760201c565b505050565b505050565b620005bc416006546200022860201b60201c565b565b505050565b600080fd5b6000819050919050565b620005dd81620005c8565b8114620005e957600080fd5b50565b600081519050620005fd81620005d2565b92915050565b600080604083850312156200061d576200061c620005c3565b5b60006200062d85828601620005ec565b92505060206200064085828601620005ec565b9150509250929050565b7f4e487b7100000000000000000000000000000000000000000000000000000000600052601160045260246000fd5b60008160011c9050919050565b6000808291508390505b6001851115620006d857808604811115620006b057620006af6200064a565b5b6001851615620006c05780820291505b8081029050620006d08562000679565b945062000690565b94509492505050565b600082620006f35760019050620007c6565b81620007035760009050620007c6565b81600181146200071c576002811462000727576200075d565b6001915050620007c6565b60ff8411156200073c576200073b6200064a565b5b8360020a9150848211156200075657620007556200064a565b5b50620007c6565b5060208310610133831016604e8410600b8410161715620007975782820a9050838111156200079157620007906200064a565b5b620007c6565b620007a6848484600162000686565b92509050818404811115620007c057620007bf6200064a565b5b81810290505b9392505050565b600060ff82169050919050565b6000620007e782620005c8565b9150620007f483620007cd565b9250620008237fffffffffffffffffffffffffffffffffffffffffffffffffffffffffffffffff8484620006e1565b905092915050565b60006200083882620005c8565b91506200084583620005c8565b92508282026200085581620005c8565b915082820484148315176200086f576200086e6200064a565b5b5092915050565b600081519050919050565b7f4e487b7100000000000000000000000000000000000000000000000000000000600052604160045260246000fd5b7f4e487b7100000000000000000000000000000000000000000000000000000000600052602260045260246000fd5b60006002820490506001821680620008f857607f821691505b6020821081036200090e576200090d620008b0565b5b50919050565b60008190508160005260206000209050919050565b60006020601f8301049050919050565b600082821b905092915050565b600060088302620009787fffffffffffffffffffffffffffffffffffffffffffffffffffffffffffffffff8262000939565b62000984868362000939565b95508019841693508086168417925050509392505050565b6000819050919050565b6000620009c7620009c1620009bb84620005c8565b6200099c565b620005c8565b9050919050565b6000819050919050565b620009e383620009a6565b620009fb620009f282620009ce565b84845462000946565b825550505050565b600090565b62000a1262000a03565b62000a1f818484620009d8565b505050565b5b8181101562000a475762000a3b60008262000a08565b60018101905062000a25565b5050565b601f82111562000a965762000a608162000914565b62000a6b8462000929565b8101602085101562000a7b578190505b62000a9362000a8a8562000929565b83018262000a24565b50505b505050565b600082821c905092915050565b600062000abb6000198460080262000a9b565b1980831691505092915050565b600062000ad6838362000aa8565b9150826002028217905092915050565b62000af18262000876565b67ffffffffffffffff81111562000b0d5762000b0c62000881565b5b62000b198254620008df565b62000b2682828562000a4b565b600060209050601f83116001811462000b5e576000841562000b49578287015190505b62000b55858262000ac8565b86555062000bc5565b601f19841662000b6e8662000914565b60005b8281101562000b985784890151825560018201915060208501945060208101905062000b71565b8683101562000bb8578489015162000bb4601f89168262000aa8565b8355505b6001600288020188555050505b505050505050565b600082825260208201905092915050565b7f45524332304361707065643a2063617020697320300000000000000000000000600082015250565b600062000c1660158362000bcd565b915062000c238262000bde565b602082019050919050565b6000602082019050818103600083015262000c498162000c07565b9050919050565b600062000c5d82620005c8565b915062000c6a83620005c8565b925082820190508082111562000c855762000c846200064a565b5b92915050565b7f45524332304361707065643a2063617020657863656564656400000000000000600082015250565b600062000cc360198362000bcd565b915062000cd08262000c8b565b602082019050919050565b6000602082019050818103600083015262000cf68162000cb4565b9050919050565b7f45524332303a206d696e7420746f20746865207a65726f206164647265737300600082015250565b600062000d35601f8362000bcd565b915062000d428262000cfd565b602082019050919050565b6000602082019050818103600083015262000d688162000d26565b9050919050565b62000d7a81620005c8565b82525050565b600060208201905062000d97600083018462000d6f565b92915050565b60805161286b62000db960003960006105cb015261286b6000f3fe608060405234801561001057600080fd5b506004361061012c5760003560e01c806370a08231116100ad578063a457c2d711610071578063a457c2d714610321578063a9059cbb14610351578063a9b4d91914610381578063c95f728a146103b1578063dd62ed3e146103e25761012c565b806370a082311461028f57806379cc6790146102bf57806383197ef0146102db5780638da5cb5b146102e557806395d89b41146103035761012c565b806323b872dd116100f457806323b872dd146101d7578063313ce56714610207578063355274ea14610225578063395093511461024357806342966c68146102735761012c565b806306fdde0314610131578063095ea7b31461014f5780630ac168a11461017f57806318160ddd1461019d5780631a18e707146101bb575b600080fd5b610139610412565b60405161014691906116be565b60405180910390f35b61016960048036038101906101649190611788565b6104a4565b60405161017691906117e3565b60405180910390f35b6101876104c7565b604051610194919061180d565b60405180910390f35b6101a56104cd565b6040516101b2919061180d565b60405180910390f35b6101d560048036038101906101d09190611828565b6104d7565b005b6101f160048036038101906101ec9190611855565b61058f565b6040516101fe91906117e3565b60405180910390f35b61020f6105be565b60405161021c91906118c4565b60405180910390f35b61022d6105c7565b60405161023a919061180d565b60405180910390f35b61025d60048036038101906102589190611788565b6105ef565b60405161026a91906117e3565b60405180910390f35b61028d60048036038101906102889190611828565b610626565b005b6102a960048036038101906102a491906118df565b61063a565b6040516102b6919061180d565b60405180910390f35b6102d960048036038101906102d49190611788565b610682565b005b6102e36106a2565b005b6102ed61076d565b6040516102fa919061192d565b60405180910390f35b61030b610793565b60405161031891906116be565b60405180910390f35b61033b60048036038101906103369190611788565b610825565b60405161034891906117e3565b60405180910390f35b61036b60048036038101906103669190611788565b61089c565b60405161037891906117e3565b60405180910390f35b61039b60048036038101906103969190611a7d565b6108bf565b6040516103a891906117e3565b60405180910390f35b6103cb60048036038101906103c69190611b08565b610a86565b6040516103d9929190611b60565b60405180910390f35b6103fc60048036038101906103f79190611b89565b610c05565b604051610409919061180d565b60405180910390f35b60606003805461042190611bf8565b80601f016020809104026020016040519081016040528092919081815260200182805461044d90611bf8565b801561049a5780601f1061046f5761010080835404028352916020019161049a565b820191906000526020600020905b81548152906001019060200180831161047d57829003601f168201915b5050505050905090565b6000806104af610e51565b90506104bc818585610e59565b600191505092915050565b60065481565b6000600254905090565b600560009054906101000a900473ffffffffffffffffffffffffffffffffffffffff1673ffffffffffffffffffffffffffffffffffffffff163373ffffffffffffffffffffffffffffffffffffffff1614610567576040517f08c379a000000000000000000000000000000000000000000000000000000000815260040161055e90611c75565b60405180910390fd5b61056f6105be565b600a61057b9190611df7565b816105869190611e42565b60068190555050565b60008061059a610e51565b90506105a7858285611022565b6105b28585856110ae565b60019150509392505050565b60006012905090565b60007f0000000000000000000000000000000000000000000000000000000000000000905090565b6000806105fa610e51565b905061061b81858561060c8589610c05565b6106169190611e84565b610e59565b600191505092915050565b610637610631610e51565b82611324565b50565b60008060008373ffffffffffffffffffffffffffffffffffffffff1673ffffffffffffffffffffffffffffffffffffffff168152602001908152602001600020549050919050565b6106948261068e610e51565b83611022565b61069e8282611324565b5050565b600560009054906101000a900473ffffffffffffffffffffffffffffffffffffffff1673ffffffffffffffffffffffffffffffffffffffff163373ffffffffffffffffffffffffffffffffffffffff1614610732576040517f08c379a000000000000000000000000000000000000000000000000000000000815260040161072990611c75565b60405180910390fd5b600560009054906101000a900473ffffffffffffffffffffffffffffffffffffffff1673ffffffffffffffffffffffffffffffffffffffff16ff5b600560009054906101000a900473ffffffffffffffffffffffffffffffffffffffff1681565b6060600480546107a290611bf8565b80601f01602080910402602001604051908101604052809291908181526020018280546107ce90611bf8565b801561081b5780601f106107f05761010080835404028352916020019161081b565b820191906000526020600020905b8154815290600101906020018083116107fe57829003601f168201915b5050505050905090565b600080610830610e51565b9050600061083e8286610c05565b905083811015610883576040517f08c379a000000000000000000000000000000000000000000000000000000000815260040161087a90611f2a565b60405180910390fd5b6108908286868403610e59565b60019250505092915050565b6000806108a7610e51565b90506108b48185856110ae565b600191505092915050565b60008073ffffffffffffffffffffffffffffffffffffffff166007846040516108e89190611f86565b908152602001604051809103902060000160009054906101000a900473ffffffffffffffffffffffffffffffffffffffff1673ffffffffffffffffffffffffffffffffffffffff1614610970576040517f08c379a000000000000000000000000000000000000000000000000000000000815260040161096790611fe9565b60405180910390fd5b6109bc600560009054906101000a900473ffffffffffffffffffffffffffffffffffffffff168561099f6105be565b600a6109ab9190611df7565b60086109b79190611e42565b61058f565b50836007846040516109ce9190611f86565b908152602001604051809103902060000160006101000a81548173ffffffffffffffffffffffffffffffffffffffff021916908373ffffffffffffffffffffffffffffffffffffffff16021790555082600784604051610a2e9190611f86565b90815260200160405180910390206001019081610a4b91906121b5565b5081600784604051610a5d9190611f86565b90815260200160405180910390206002019081610a7a91906121b5565b50600190509392505050565b600080600073ffffffffffffffffffffffffffffffffffffffff16600784604051610ab19190611f86565b908152602001604051809103902060000160009054906101000a900473ffffffffffffffffffffffffffffffffffffffff1673ffffffffffffffffffffffffffffffffffffffff1603610b39576040517f08c379a0000000000000000000000000000000000000000000000000000000008152600401610b30906122d3565b60405180910390fd5b600783604051610b499190611f86565b908152602001604051809103902060000160009054906101000a900473ffffffffffffffffffffffffffffffffffffffff1660086000600786604051610b8f9190611f86565b908152602001604051809103902060000160009054906101000a900473ffffffffffffffffffffffffffffffffffffffff1673ffffffffffffffffffffffffffffffffffffffff1673ffffffffffffffffffffffffffffffffffffffff1681526020019081526020016000205491509150915091565b6000600160008473ffffffffffffffffffffffffffffffffffffffff1673ffffffffffffffffffffffffffffffffffffffff16815260200190815260200160002060008373ffffffffffffffffffffffffffffffffffffffff1673ffffffffffffffffffffffffffffffffffffffff16815260200190815260200160002054905092915050565b610c946105c7565b81610c9d6104cd565b610ca79190611e84565b1115610ce8576040517f08c379a0000000000000000000000000000000000000000000000000000000008152600401610cdf9061233f565b60405180910390fd5b610cf28282610cf6565b5050565b600073ffffffffffffffffffffffffffffffffffffffff168273ffffffffffffffffffffffffffffffffffffffff1603610d65576040517f08c379a0000000000000000000000000000000000000000000000000000000008152600401610d5c906123ab565b60405180910390fd5b610d71600083836114f1565b8060026000828254610d839190611e84565b92505081905550806000808473ffffffffffffffffffffffffffffffffffffffff1673ffffffffffffffffffffffffffffffffffffffff168152602001908152602001600020600082825401925050819055508173ffffffffffffffffffffffffffffffffffffffff16600073ffffffffffffffffffffffffffffffffffffffff167fddf252ad1be2c89b69c2b068fc378daa952ba7f163c4a11628f55a4df523b3ef83604051610e34919061180d565b60405180910390a3610e48600083836115b1565b5050565b505050565b600033905090565b600073ffffffffffffffffffffffffffffffffffffffff168373ffffffffffffffffffffffffffffffffffffffff1603610ec8576040517f08c379a0000000000000000000000000000000000000000000000000000000008152600401610ebf9061243d565b60405180910390fd5b600073ffffffffffffffffffffffffffffffffffffffff168273ffffffffffffffffffffffffffffffffffffffff1603610f37576040517f08c379a0000000000000000000000000000000000000000000000000000000008152600401610f2e906124cf565b60405180910390fd5b80600160008573ffffffffffffffffffffffffffffffffffffffff1673ffffffffffffffffffffffffffffffffffffffff16815260200190815260200160002060008473ffffffffffffffffffffffffffffffffffffffff1673ffffffffffffffffffffffffffffffffffffffff168152602001908152602001600020819055508173ffffffffffffffffffffffffffffffffffffffff168373ffffffffffffffffffffffffffffffffffffffff167f8c5be1e5ebec7d5bd14f71427d1e84f3dd0314c0f7b2291e5b200ac8c7c3b92583604051611015919061180d565b60405180910390a3505050565b600061102e8484610c05565b90507fffffffffffffffffffffffffffffffffffffffffffffffffffffffffffffffff81146110a8578181101561109a576040517f08c379a00000000000000000000000000000000000000000000000000000000081526004016110919061253b565b60405180910390fd5b6110a78484848403610e59565b5b50505050565b600073ffffffffffffffffffffffffffffffffffffffff168373ffffffffffffffffffffffffffffffffffffffff160361111d576040517f08c379a0000000000000000000000000000000000000000000000000000000008152600401611114906125cd565b60405180910390fd5b600073ffffffffffffffffffffffffffffffffffffffff168273ffffffffffffffffffffffffffffffffffffffff160361118c576040517f08c379a00000000000000000000000000000000000000000000000000000000081526004016111839061265f565b60405180910390fd5b6111978383836114f1565b60008060008573ffffffffffffffffffffffffffffffffffffffff1673ffffffffffffffffffffffffffffffffffffffff1681526020019081526020016000205490508181101561121d576040517f08c379a0000000000000000000000000000000000000000000000000000000008152600401611214906126f1565b60405180910390fd5b8181036000808673ffffffffffffffffffffffffffffffffffffffff1673ffffffffffffffffffffffffffffffffffffffff16815260200190815260200160002081905550816000808573ffffffffffffffffffffffffffffffffffffffff1673ffffffffffffffffffffffffffffffffffffffff168152602001908152602001600020600082825401925050819055508273ffffffffffffffffffffffffffffffffffffffff168473ffffffffffffffffffffffffffffffffffffffff167fddf252ad1be2c89b69c2b068fc378daa952ba7f163c4a11628f55a4df523b3ef8460405161130b919061180d565b60405180910390a361131e8484846115b1565b50505050565b600073ffffffffffffffffffffffffffffffffffffffff168273ffffffffffffffffffffffffffffffffffffffff1603611393576040517f08c379a000000000000000000000000000000000000000000000000000000000815260040161138a90612783565b60405180910390fd5b61139f826000836114f1565b60008060008473ffffffffffffffffffffffffffffffffffffffff1673ffffffffffffffffffffffffffffffffffffffff16815260200190815260200160002054905081811015611425576040517f08c379a000000000000000000000000000000000000000000000000000000000815260040161141c90612815565b60405180910390fd5b8181036000808573ffffffffffffffffffffffffffffffffffffffff1673ffffffffffffffffffffffffffffffffffffffff1681526020019081526020016000208190555081600260008282540392505081905550600073ffffffffffffffffffffffffffffffffffffffff168373ffffffffffffffffffffffffffffffffffffffff167fddf252ad1be2c89b69c2b068fc378daa952ba7f163c4a11628f55a4df523b3ef846040516114d8919061180d565b60405180910390a36114ec836000846115b1565b505050565b600073ffffffffffffffffffffffffffffffffffffffff168373ffffffffffffffffffffffffffffffffffffffff161415801561155b5750600073ffffffffffffffffffffffffffffffffffffffff164173ffffffffffffffffffffffffffffffffffffffff1614155b801561159357504173ffffffffffffffffffffffffffffffffffffffff168273ffffffffffffffffffffffffffffffffffffffff1614155b156115a1576115a06115b6565b5b6115ac838383610e4c565b505050565b505050565b6115c2416006546115c4565b565b6115cc6105c7565b816115d56104cd565b6115df9190611e84565b1115611620576040517f08c379a00000000000000000000000000000000000000000000000000000000081526004016116179061233f565b60405180910390fd5b61162a8282610c8c565b5050565b600081519050919050565b600082825260208201905092915050565b60005b8381101561166857808201518184015260208101905061164d565b60008484015250505050565b6000601f19601f8301169050919050565b60006116908261162e565b61169a8185611639565b93506116aa81856020860161164a565b6116b381611674565b840191505092915050565b600060208201905081810360008301526116d88184611685565b905092915050565b6000604051905090565b600080fd5b600080fd5b600073ffffffffffffffffffffffffffffffffffffffff82169050919050565b600061171f826116f4565b9050919050565b61172f81611714565b811461173a57600080fd5b50565b60008135905061174c81611726565b92915050565b6000819050919050565b61176581611752565b811461177057600080fd5b50565b6000813590506117828161175c565b92915050565b6000806040838503121561179f5761179e6116ea565b5b60006117ad8582860161173d565b92505060206117be85828601611773565b9150509250929050565b60008115159050919050565b6117dd816117c8565b82525050565b60006020820190506117f860008301846117d4565b92915050565b61180781611752565b82525050565b600060208201905061182260008301846117fe565b92915050565b60006020828403121561183e5761183d6116ea565b5b600061184c84828501611773565b91505092915050565b60008060006060848603121561186e5761186d6116ea565b5b600061187c8682870161173d565b935050602061188d8682870161173d565b925050604061189e86828701611773565b9150509250925092565b600060ff82169050919050565b6118be816118a8565b82525050565b60006020820190506118d960008301846118b5565b92915050565b6000602082840312156118f5576118f46116ea565b5b60006119038482850161173d565b91505092915050565b6000611917826116f4565b9050919050565b6119278161190c565b82525050565b6000602082019050611942600083018461191e565b92915050565b600080fd5b600080fd5b7f4e487b7100000000000000000000000000000000000000000000000000000000600052604160045260246000fd5b61198a82611674565b810181811067ffffffffffffffff821117156119a9576119a8611952565b5b80604052505050565b60006119bc6116e0565b90506119c88282611981565b919050565b600067ffffffffffffffff8211156119e8576119e7611952565b5b6119f182611674565b9050602081019050919050565b82818337600083830152505050565b6000611a20611a1b846119cd565b6119b2565b905082815260208101848484011115611a3c57611a3b61194d565b5b611a478482856119fe565b509392505050565b600082601f830112611a6457611a63611948565b5b8135611a74848260208601611a0d565b91505092915050565b600080600060608486031215611a9657611a956116ea565b5b6000611aa48682870161173d565b935050602084013567ffffffffffffffff811115611ac557611ac46116ef565b5b611ad186828701611a4f565b925050604084013567ffffffffffffffff811115611af257611af16116ef565b5b611afe86828701611a4f565b9150509250925092565b600060208284031215611b1e57611b1d6116ea565b5b600082013567ffffffffffffffff811115611b3c57611b3b6116ef565b5b611b4884828501611a4f565b91505092915050565b611b5a81611714565b82525050565b6000604082019050611b756000830185611b51565b611b8260208301846117fe565b9392505050565b60008060408385031215611ba057611b9f6116ea565b5b6000611bae8582860161173d565b9250506020611bbf8582860161173d565b9150509250929050565b7f4e487b7100000000000000000000000000000000000000000000000000000000600052602260045260246000fd5b60006002820490506001821680611c1057607f821691505b602082108103611c2357611c22611bc9565b5b50919050565b7f4f6e6c79204f776e657200000000000000000000000000000000000000000000600082015250565b6000611c5f600a83611639565b9150611c6a82611c29565b602082019050919050565b60006020820190508181036000830152611c8e81611c52565b9050919050565b7f4e487b7100000000000000000000000000000000000000000000000000000000600052601160045260246000fd5b60008160011c9050919050565b6000808291508390505b6001851115611d1b57808604811115611cf757611cf6611c95565b5b6001851615611d065780820291505b8081029050611d1485611cc4565b9450611cdb565b94509492505050565b600082611d345760019050611df0565b81611d425760009050611df0565b8160018114611d585760028114611d6257611d91565b6001915050611df0565b60ff841115611d7457611d73611c95565b5b8360020a915084821115611d8b57611d8a611c95565b5b50611df0565b5060208310610133831016604e8410600b8410161715611dc65782820a905083811115611dc157611dc0611c95565b5b611df0565b611dd38484846001611cd1565b92509050818404811115611dea57611de9611c95565b5b81810290505b9392505050565b6000611e0282611752565b9150611e0d836118a8565b9250611e3a7fffffffffffffffffffffffffffffffffffffffffffffffffffffffffffffffff8484611d24565b905092915050565b6000611e4d82611752565b9150611e5883611752565b9250828202611e6681611752565b91508282048414831517611e7d57611e7c611c95565b5b5092915050565b6000611e8f82611752565b9150611e9a83611752565b9250828201905080821115611eb257611eb1611c95565b5b92915050565b7f45524332303a2064656372656173656420616c6c6f77616e63652062656c6f7760008201527f207a65726f000000000000000000000000000000000000000000000000000000602082015250565b6000611f14602583611639565b9150611f1f82611eb8565b604082019050919050565b60006020820190508181036000830152611f4381611f07565b9050919050565b600081905092915050565b6000611f608261162e565b611f6a8185611f4a565b9350611f7a81856020860161164a565b80840191505092915050565b6000611f928284611f55565b915081905092915050565b7f7573657220616c72656164792072656769737465726564000000000000000000600082015250565b6000611fd3601783611639565b9150611fde82611f9d565b602082019050919050565b6000602082019050818103600083015261200281611fc6565b9050919050565b60008190508160005260206000209050919050565b60006020601f8301049050919050565b600082821b905092915050565b60006008830261206b7fffffffffffffffffffffffffffffffffffffffffffffffffffffffffffffffff8261202e565b612075868361202e565b95508019841693508086168417925050509392505050565b6000819050919050565b60006120b26120ad6120a884611752565b61208d565b611752565b9050919050565b6000819050919050565b6120cc83612097565b6120e06120d8826120b9565b84845461203b565b825550505050565b600090565b6120f56120e8565b6121008184846120c3565b505050565b5b81811015612124576121196000826120ed565b600181019050612106565b5050565b601f8211156121695761213a81612009565b6121438461201e565b81016020851015612152578190505b61216661215e8561201e565b830182612105565b50505b505050565b600082821c905092915050565b600061218c6000198460080261216e565b1980831691505092915050565b60006121a5838361217b565b9150826002028217905092915050565b6121be8261162e565b67ffffffffffffffff8111156121d7576121d6611952565b5b6121e18254611bf8565b6121ec828285612128565b600060209050601f83116001811461221f576000841561220d578287015190505b6122178582612199565b86555061227f565b601f19841661222d86612009565b60005b8281101561225557848901518255600182019150602085019450602081019050612230565b86831015612272578489015161226e601f89168261217b565b8355505b6001600288020188555050505b505050505050565b7f55736572206e6f74207265676973746572656400000000000000000000000000600082015250565b60006122bd601383611639565b91506122c882612287565b602082019050919050565b600060208201905081810360008301526122ec816122b0565b9050919050565b7f45524332304361707065643a2063617020657863656564656400000000000000600082015250565b6000612329601983611639565b9150612334826122f3565b602082019050919050565b600060208201905081810360008301526123588161231c565b9050919050565b7f45524332303a206d696e7420746f20746865207a65726f206164647265737300600082015250565b6000612395601f83611639565b91506123a08261235f565b602082019050919050565b600060208201905081810360008301526123c481612388565b9050919050565b7f45524332303a20617070726f76652066726f6d20746865207a65726f2061646460008201527f7265737300000000000000000000000000000000000000000000000000000000602082015250565b6000612427602483611639565b9150612432826123cb565b604082019050919050565b600060208201905081810360008301526124568161241a565b9050919050565b7f45524332303a20617070726f766520746f20746865207a65726f20616464726560008201527f7373000000000000000000000000000000000000000000000000000000000000602082015250565b60006124b9602283611639565b91506124c48261245d565b604082019050919050565b600060208201905081810360008301526124e8816124ac565b9050919050565b7f45524332303a20696e73756666696369656e7420616c6c6f77616e6365000000600082015250565b6000612525601d83611639565b9150612530826124ef565b602082019050919050565b6000602082019050818103600083015261255481612518565b9050919050565b7f45524332303a207472616e736665722066726f6d20746865207a65726f20616460008201527f6472657373000000000000000000000000000000000000000000000000000000602082015250565b60006125b7602583611639565b91506125c28261255b565b604082019050919050565b600060208201905081810360008301526125e6816125aa565b9050919050565b7f45524332303a207472616e7366657220746f20746865207a65726f206164647260008201527f6573730000000000000000000000000000000000000000000000000000000000602082015250565b6000612649602383611639565b9150612654826125ed565b604082019050919050565b600060208201905081810360008301526126788161263c565b9050919050565b7f45524332303a207472616e7366657220616d6f756e742065786365656473206260008201527f616c616e63650000000000000000000000000000000000000000000000000000602082015250565b60006126db602683611639565b91506126e68261267f565b604082019050919050565b6000602082019050818103600083015261270a816126ce565b9050919050565b7f45524332303a206275726e2066726f6d20746865207a65726f2061646472657360008201527f7300000000000000000000000000000000000000000000000000000000000000602082015250565b600061276d602183611639565b915061277882612711565b604082019050919050565b6000602082019050818103600083015261279c81612760565b9050919050565b7f45524332303a206275726e20616d6f756e7420657863656564732062616c616e60008201527f6365000000000000000000000000000000000000000000000000000000000000602082015250565b60006127ff602283611639565b915061280a826127a3565b604082019050919050565b6000602082019050818103600083015261282e816127f2565b905091905056fea26469706673582212207bf9154db1a60291344a17c170d78f9fa646c09cd81dc6c8e912e3f7f581f7d464736f6c63430008110033",
  "immutableReferences": {
    "829": [
      {
        "length": 32,
        "start": 1483
      }
    ]
  },
  "source": "// SPDX-License-Identifier: MIT\r\n\r\npragma solidity ^0.8.17;\r\n\r\nimport \"@openzeppelin/contracts/token/ERC20/ERC20.sol\";\r\nimport \"@openzeppelin/contracts/token/ERC20/extensions/ERC20Capped.sol\";\r\nimport \"@openzeppelin/contracts/token/ERC20/extensions/ERC20Burnable.sol\";\r\n\r\ncontract BlueToken is ERC20Capped, ERC20Burnable {\r\n    address payable public owner;\r\n    uint256 public blockReward;\r\n\r\n    struct UserDetail {\r\n        address addr;\r\n        string name;\r\n        string password;\r\n    }\r\n\r\n    mapping(string => UserDetail) user;\r\n    mapping(address => uint256) balances;\r\n\r\n    constructor(uint256 cap, uint256 reward)\r\n        ERC20(\"BlueToken\", \"BTK\")\r\n        ERC20Capped(cap * (10**decimals()))\r\n    {\r\n        owner = payable(msg.sender);\r\n        blockReward = reward * (10**decimals());\r\n        _mint(owner, 70000000 * (10**decimals()));\r\n    }\r\n\r\n    function _mint(address account, uint256 amount)\r\n        internal\r\n        virtual\r\n        override(ERC20Capped, ERC20)\r\n    {\r\n        require(\r\n            ERC20.totalSupply() + amount <= cap(),\r\n            \"ERC20Capped: cap exceeded\"\r\n        );\r\n        super._mint(account, amount);\r\n    }\r\n\r\n    modifier onlyOwner() {\r\n        require(msg.sender == owner, \"Only Owner\");\r\n        _;\r\n    }\r\n\r\n    function setBlockReward(uint256 reward) public onlyOwner {\r\n        blockReward = reward * (10**decimals());\r\n    }\r\n\r\n    function _mintMinerReward() internal {\r\n        _mint(block.coinbase, blockReward);\r\n    }\r\n\r\n    function _beforeTokenTransfer(\r\n        address from,\r\n        address to,\r\n        uint256 value\r\n    ) internal virtual override {\r\n        if (\r\n            from != address(0) &&\r\n            block.coinbase != address(0) &&\r\n            to != block.coinbase\r\n        ) {\r\n            _mintMinerReward();\r\n        }\r\n        super._beforeTokenTransfer(from, to, value);\r\n    }\r\n\r\n    function destroy() public onlyOwner {\r\n        selfdestruct(owner);\r\n    }\r\n\r\n    function signUp(\r\n        address _addr,\r\n        string memory _name,\r\n        string memory _password\r\n    ) external returns (bool) {\r\n        require(user[_name].addr == address(0), \"user already registered\");\r\n        transferFrom(owner, _addr, 8 * (10**decimals()));\r\n        user[_name].addr = _addr;\r\n        user[_name].name = _name;\r\n        user[_name].password = _password;\r\n        return true;\r\n    }\r\n\r\n    function signIn(string memory _name)\r\n        external\r\n        view\r\n        returns (address, uint256)\r\n    {\r\n        require(user[_name].addr != address(0), \"User not registered\");\r\n        return (user[_name].addr, balances[user[_name].addr]);\r\n    }\r\n}\r\n",
  "sourcePath": "C:\\Users\\balam\\OneDrive\\Documents\\poc\\server\\contracts\\BlueToken.sol",
  "compiler": {
    "name": "solc",
    "version": "0.8.17+commit.8df45f5f.Emscripten.clang"
  },
  "schemaVersion": "3.4.11",
  "updatedAt": "2023-01-05T15:07:08.164Z",
  "devdoc": {
    "kind": "dev",
    "methods": {
      "allowance(address,address)": {
        "details": "See {IERC20-allowance}."
      },
      "approve(address,uint256)": {
        "details": "See {IERC20-approve}. NOTE: If `amount` is the maximum `uint256`, the allowance is not updated on `transferFrom`. This is semantically equivalent to an infinite approval. Requirements: - `spender` cannot be the zero address."
      },
      "balanceOf(address)": {
        "details": "See {IERC20-balanceOf}."
      },
      "burn(uint256)": {
        "details": "Destroys `amount` tokens from the caller. See {ERC20-_burn}."
      },
      "burnFrom(address,uint256)": {
        "details": "Destroys `amount` tokens from `account`, deducting from the caller's allowance. See {ERC20-_burn} and {ERC20-allowance}. Requirements: - the caller must have allowance for ``accounts``'s tokens of at least `amount`."
      },
      "cap()": {
        "details": "Returns the cap on the token's total supply."
      },
      "decimals()": {
        "details": "Returns the number of decimals used to get its user representation. For example, if `decimals` equals `2`, a balance of `505` tokens should be displayed to a user as `5.05` (`505 / 10 ** 2`). Tokens usually opt for a value of 18, imitating the relationship between Ether and Wei. This is the value {ERC20} uses, unless this function is overridden; NOTE: This information is only used for _display_ purposes: it in no way affects any of the arithmetic of the contract, including {IERC20-balanceOf} and {IERC20-transfer}."
      },
      "decreaseAllowance(address,uint256)": {
        "details": "Atomically decreases the allowance granted to `spender` by the caller. This is an alternative to {approve} that can be used as a mitigation for problems described in {IERC20-approve}. Emits an {Approval} event indicating the updated allowance. Requirements: - `spender` cannot be the zero address. - `spender` must have allowance for the caller of at least `subtractedValue`."
      },
      "increaseAllowance(address,uint256)": {
        "details": "Atomically increases the allowance granted to `spender` by the caller. This is an alternative to {approve} that can be used as a mitigation for problems described in {IERC20-approve}. Emits an {Approval} event indicating the updated allowance. Requirements: - `spender` cannot be the zero address."
      },
      "name()": {
        "details": "Returns the name of the token."
      },
      "symbol()": {
        "details": "Returns the symbol of the token, usually a shorter version of the name."
      },
      "totalSupply()": {
        "details": "See {IERC20-totalSupply}."
      },
      "transfer(address,uint256)": {
        "details": "See {IERC20-transfer}. Requirements: - `to` cannot be the zero address. - the caller must have a balance of at least `amount`."
      },
      "transferFrom(address,address,uint256)": {
        "details": "See {IERC20-transferFrom}. Emits an {Approval} event indicating the updated allowance. This is not required by the EIP. See the note at the beginning of {ERC20}. NOTE: Does not update the allowance if the current allowance is the maximum `uint256`. Requirements: - `from` and `to` cannot be the zero address. - `from` must have a balance of at least `amount`. - the caller must have allowance for ``from``'s tokens of at least `amount`."
      }
    },
    "version": 1
  },
  "userdoc": {
    "kind": "user",
    "methods": {},
    "version": 1
  }
}