{
  "contractName": "MyNft",
  "abi": [
    {
      "inputs": [
        {
          "internalType": "address",
          "name": "_tokenAddress",
          "type": "address"
        }
      ],
      "stateMutability": "nonpayable",
      "type": "constructor"
    },
    {
      "anonymous": false,
      "inputs": [
        {
          "indexed": true,
          "internalType": "address",
          "name": "owner",
          "type": "address"
        },
        {
          "indexed": true,
          "internalType": "address",
          "name": "approved",
          "type": "address"
        },
        {
          "indexed": true,
          "internalType": "uint256",
          "name": "tokenId",
          "type": "uint256"
        }
      ],
      "name": "Approval",
      "type": "event"
    },
    {
      "anonymous": false,
      "inputs": [
        {
          "indexed": true,
          "internalType": "address",
          "name": "owner",
          "type": "address"
        },
        {
          "indexed": true,
          "internalType": "address",
          "name": "operator",
          "type": "address"
        },
        {
          "indexed": false,
          "internalType": "bool",
          "name": "approved",
          "type": "bool"
        }
      ],
      "name": "ApprovalForAll",
      "type": "event"
    },
    {
      "anonymous": false,
      "inputs": [
        {
          "indexed": true,
          "internalType": "address",
          "name": "previousOwner",
          "type": "address"
        },
        {
          "indexed": true,
          "internalType": "address",
          "name": "newOwner",
          "type": "address"
        }
      ],
      "name": "OwnershipTransferred",
      "type": "event"
    },
    {
      "anonymous": false,
      "inputs": [
        {
          "indexed": true,
          "internalType": "address",
          "name": "from",
          "type": "address"
        },
        {
          "indexed": true,
          "internalType": "address",
          "name": "to",
          "type": "address"
        },
        {
          "indexed": true,
          "internalType": "uint256",
          "name": "tokenId",
          "type": "uint256"
        }
      ],
      "name": "Transfer",
      "type": "event"
    },
    {
      "inputs": [
        {
          "internalType": "address",
          "name": "to",
          "type": "address"
        },
        {
          "internalType": "uint256",
          "name": "tokenId",
          "type": "uint256"
        }
      ],
      "name": "approve",
      "outputs": [],
      "stateMutability": "nonpayable",
      "type": "function"
    },
    {
      "inputs": [
        {
          "internalType": "address",
          "name": "owner",
          "type": "address"
        }
      ],
      "name": "balanceOf",
      "outputs": [
        {
          "internalType": "uint256",
          "name": "",
          "type": "uint256"
        }
      ],
      "stateMutability": "view",
      "type": "function",
      "constant": true
    },
    {
      "inputs": [
        {
          "internalType": "uint256",
          "name": "tokenId",
          "type": "uint256"
        }
      ],
      "name": "getApproved",
      "outputs": [
        {
          "internalType": "address",
          "name": "",
          "type": "address"
        }
      ],
      "stateMutability": "view",
      "type": "function",
      "constant": true
    },
    {
      "inputs": [
        {
          "internalType": "address",
          "name": "owner",
          "type": "address"
        },
        {
          "internalType": "address",
          "name": "operator",
          "type": "address"
        }
      ],
      "name": "isApprovedForAll",
      "outputs": [
        {
          "internalType": "bool",
          "name": "",
          "type": "bool"
        }
      ],
      "stateMutability": "view",
      "type": "function",
      "constant": true
    },
    {
      "inputs": [],
      "name": "name",
      "outputs": [
        {
          "internalType": "string",
          "name": "",
          "type": "string"
        }
      ],
      "stateMutability": "view",
      "type": "function",
      "constant": true
    },
    {
      "inputs": [],
      "name": "owner",
      "outputs": [
        {
          "internalType": "address",
          "name": "",
          "type": "address"
        }
      ],
      "stateMutability": "view",
      "type": "function",
      "constant": true
    },
    {
      "inputs": [
        {
          "internalType": "uint256",
          "name": "tokenId",
          "type": "uint256"
        }
      ],
      "name": "ownerOf",
      "outputs": [
        {
          "internalType": "address",
          "name": "",
          "type": "address"
        }
      ],
      "stateMutability": "view",
      "type": "function",
      "constant": true
    },
    {
      "inputs": [],
      "name": "renounceOwnership",
      "outputs": [],
      "stateMutability": "nonpayable",
      "type": "function"
    },
    {
      "inputs": [
        {
          "internalType": "address",
          "name": "from",
          "type": "address"
        },
        {
          "internalType": "address",
          "name": "to",
          "type": "address"
        },
        {
          "internalType": "uint256",
          "name": "tokenId",
          "type": "uint256"
        }
      ],
      "name": "safeTransferFrom",
      "outputs": [],
      "stateMutability": "nonpayable",
      "type": "function"
    },
    {
      "inputs": [
        {
          "internalType": "address",
          "name": "from",
          "type": "address"
        },
        {
          "internalType": "address",
          "name": "to",
          "type": "address"
        },
        {
          "internalType": "uint256",
          "name": "tokenId",
          "type": "uint256"
        },
        {
          "internalType": "bytes",
          "name": "data",
          "type": "bytes"
        }
      ],
      "name": "safeTransferFrom",
      "outputs": [],
      "stateMutability": "nonpayable",
      "type": "function"
    },
    {
      "inputs": [
        {
          "internalType": "address",
          "name": "operator",
          "type": "address"
        },
        {
          "internalType": "bool",
          "name": "approved",
          "type": "bool"
        }
      ],
      "name": "setApprovalForAll",
      "outputs": [],
      "stateMutability": "nonpayable",
      "type": "function"
    },
    {
      "inputs": [
        {
          "internalType": "bytes4",
          "name": "interfaceId",
          "type": "bytes4"
        }
      ],
      "name": "supportsInterface",
      "outputs": [
        {
          "internalType": "bool",
          "name": "",
          "type": "bool"
        }
      ],
      "stateMutability": "view",
      "type": "function",
      "constant": true
    },
    {
      "inputs": [],
      "name": "symbol",
      "outputs": [
        {
          "internalType": "string",
          "name": "",
          "type": "string"
        }
      ],
      "stateMutability": "view",
      "type": "function",
      "constant": true
    },
    {
      "inputs": [],
      "name": "tokenAddress",
      "outputs": [
        {
          "internalType": "contract IERC20",
          "name": "",
          "type": "address"
        }
      ],
      "stateMutability": "view",
      "type": "function",
      "constant": true
    },
    {
      "inputs": [
        {
          "internalType": "uint256",
          "name": "tokenId",
          "type": "uint256"
        }
      ],
      "name": "tokenURI",
      "outputs": [
        {
          "internalType": "string",
          "name": "",
          "type": "string"
        }
      ],
      "stateMutability": "view",
      "type": "function",
      "constant": true
    },
    {
      "inputs": [
        {
          "internalType": "address",
          "name": "from",
          "type": "address"
        },
        {
          "internalType": "address",
          "name": "to",
          "type": "address"
        },
        {
          "internalType": "uint256",
          "name": "tokenId",
          "type": "uint256"
        }
      ],
      "name": "transferFrom",
      "outputs": [],
      "stateMutability": "nonpayable",
      "type": "function"
    },
    {
      "inputs": [
        {
          "internalType": "address",
          "name": "newOwner",
          "type": "address"
        }
      ],
      "name": "transferOwnership",
      "outputs": [],
      "stateMutability": "nonpayable",
      "type": "function"
    },
    {
      "inputs": [
        {
          "internalType": "address",
          "name": "_from",
          "type": "address"
        },
        {
          "internalType": "string",
          "name": "_name",
          "type": "string"
        },
        {
          "internalType": "string",
          "name": "_description",
          "type": "string"
        },
        {
          "internalType": "uint256",
          "name": "_price",
          "type": "uint256"
        }
      ],
      "name": "safeMint",
      "outputs": [
        {
          "internalType": "bool",
          "name": "",
          "type": "bool"
        }
      ],
      "stateMutability": "nonpayable",
      "type": "function"
    },
    {
      "inputs": [
        {
          "internalType": "uint256",
          "name": "_tokenId",
          "type": "uint256"
        },
        {
          "internalType": "uint256",
          "name": "val",
          "type": "uint256"
        }
      ],
      "name": "setProductPrice",
      "outputs": [
        {
          "internalType": "bool",
          "name": "",
          "type": "bool"
        }
      ],
      "stateMutability": "nonpayable",
      "type": "function"
    },
    {
      "inputs": [
        {
          "internalType": "uint256",
          "name": "_tokenId",
          "type": "uint256"
        }
      ],
      "name": "getProductByTokenId",
      "outputs": [
        {
          "components": [
            {
              "internalType": "string",
              "name": "name",
              "type": "string"
            },
            {
              "internalType": "string",
              "name": "description",
              "type": "string"
            },
            {
              "internalType": "address",
              "name": "owner",
              "type": "address"
            },
            {
              "internalType": "uint256",
              "name": "price",
              "type": "uint256"
            },
            {
              "internalType": "uint256",
              "name": "tokenid",
              "type": "uint256"
            }
          ],
          "internalType": "struct MyNft.Product",
          "name": "",
          "type": "tuple"
        }
      ],
      "stateMutability": "view",
      "type": "function",
      "constant": true
    },
    {
      "inputs": [
        {
          "internalType": "uint256",
          "name": "_tokenId",
          "type": "uint256"
        },
        {
          "internalType": "address",
          "name": "_toownerAddress",
          "type": "address"
        },
        {
          "internalType": "address",
          "name": "_fromownerAddress",
          "type": "address"
        }
      ],
      "name": "buyProductByTokenId",
      "outputs": [
        {
          "components": [
            {
              "internalType": "string",
              "name": "name",
              "type": "string"
            },
            {
              "internalType": "string",
              "name": "description",
              "type": "string"
            },
            {
              "internalType": "address",
              "name": "owner",
              "type": "address"
            },
            {
              "internalType": "uint256",
              "name": "price",
              "type": "uint256"
            },
            {
              "internalType": "uint256",
              "name": "tokenid",
              "type": "uint256"
            }
          ],
          "internalType": "struct MyNft.Product",
          "name": "",
          "type": "tuple"
        }
      ],
      "stateMutability": "nonpayable",
      "type": "function"
    },
    {
      "inputs": [
        {
          "internalType": "uint256",
          "name": "_tokenId",
          "type": "uint256"
        }
      ],
      "name": "getOwnerHistoryByTokenId",
      "outputs": [
        {
          "internalType": "address[]",
          "name": "",
          "type": "address[]"
        }
      ],
      "stateMutability": "view",
      "type": "function",
      "constant": true
    },
    {
      "inputs": [],
      "name": "getBalance",
      "outputs": [
        {
          "internalType": "uint256",
          "name": "",
          "type": "uint256"
        }
      ],
      "stateMutability": "view",
      "type": "function",
      "constant": true
    },
    {
      "inputs": [],
      "name": "getTotalNFTMinted",
      "outputs": [
        {
          "internalType": "uint256",
          "name": "",
          "type": "uint256"
        }
      ],
      "stateMutability": "view",
      "type": "function",
      "constant": true
    }
  ],
  "bytecode": "0x60806040523480156200001157600080fd5b50604051620042fa380380620042fa833981810160405281019062000037919062000269565b6040518060400160405280600581526020017f4d794e66740000000000000000000000000000000000000000000000000000008152506040518060400160405280600381526020017f4d545800000000000000000000000000000000000000000000000000000000008152508160009081620000b4919062000515565b508060019081620000c6919062000515565b505050620000e9620000dd6200013160201b60201c565b6200013960201b60201c565b80600760006101000a81548173ffffffffffffffffffffffffffffffffffffffff021916908373ffffffffffffffffffffffffffffffffffffffff16021790555050620005fc565b600033905090565b6000600660009054906101000a900473ffffffffffffffffffffffffffffffffffffffff16905081600660006101000a81548173ffffffffffffffffffffffffffffffffffffffff021916908373ffffffffffffffffffffffffffffffffffffffff1602179055508173ffffffffffffffffffffffffffffffffffffffff168173ffffffffffffffffffffffffffffffffffffffff167f8be0079c531659141344cd1fd0a4f28419497f9722a3daafe3b4186f6b6457e060405160405180910390a35050565b600080fd5b600073ffffffffffffffffffffffffffffffffffffffff82169050919050565b6000620002318262000204565b9050919050565b620002438162000224565b81146200024f57600080fd5b50565b600081519050620002638162000238565b92915050565b600060208284031215620002825762000281620001ff565b5b6000620002928482850162000252565b91505092915050565b600081519050919050565b7f4e487b7100000000000000000000000000000000000000000000000000000000600052604160045260246000fd5b7f4e487b7100000000000000000000000000000000000000000000000000000000600052602260045260246000fd5b600060028204905060018216806200031d57607f821691505b602082108103620003335762000332620002d5565b5b50919050565b60008190508160005260206000209050919050565b60006020601f8301049050919050565b600082821b905092915050565b6000600883026200039d7fffffffffffffffffffffffffffffffffffffffffffffffffffffffffffffffff826200035e565b620003a986836200035e565b95508019841693508086168417925050509392505050565b6000819050919050565b6000819050919050565b6000620003f6620003f0620003ea84620003c1565b620003cb565b620003c1565b9050919050565b6000819050919050565b6200041283620003d5565b6200042a6200042182620003fd565b8484546200036b565b825550505050565b600090565b6200044162000432565b6200044e81848462000407565b505050565b5b8181101562000476576200046a60008262000437565b60018101905062000454565b5050565b601f821115620004c5576200048f8162000339565b6200049a846200034e565b81016020851015620004aa578190505b620004c2620004b9856200034e565b83018262000453565b50505b505050565b600082821c905092915050565b6000620004ea60001984600802620004ca565b1980831691505092915050565b6000620005058383620004d7565b9150826002028217905092915050565b62000520826200029b565b67ffffffffffffffff8111156200053c576200053b620002a6565b5b62000548825462000304565b620005558282856200047a565b600060209050601f8311600181146200058d576000841562000578578287015190505b620005848582620004f7565b865550620005f4565b601f1984166200059d8662000339565b60005b82811015620005c757848901518255600182019150602085019450602081019050620005a0565b86831015620005e75784890151620005e3601f891682620004d7565b8355505b6001600288020188555050505b505050505050565b613cee806200060c6000396000f3fe608060405234801561001057600080fd5b50600436106101585760003560e01c8063715018a6116100c3578063b88d4fde1161007c578063b88d4fde146103db578063bfb5b620146103f7578063c87b56dd14610427578063d309866414610457578063e985e9c514610487578063f2fde38b146104b757610158565b8063715018a61461033d5780638da5cb5b1461034757806395d89b4114610365578063986f5be2146103835780639d76ea58146103a1578063a22cb465146103bf57610158565b806323b872dd1161011557806323b872dd14610245578063426fb6391461026157806342842e0e1461029157806344d3498a146102ad5780636352211e146102dd57806370a082311461030d57610158565b806301ffc9a71461015d578063057dfcb11461018d57806306fdde03146101bd578063081812fc146101db578063095ea7b31461020b57806312065fe014610227575b600080fd5b61017760048036038101906101729190612653565b6104d3565b604051610184919061269b565b60405180910390f35b6101a760048036038101906101a291906126ec565b6105b5565b6040516101b49190612876565b60405180910390f35b6101c5610770565b6040516101d291906128e2565b60405180910390f35b6101f560048036038101906101f091906126ec565b610802565b6040516102029190612913565b60405180910390f35b6102256004803603810190610220919061295a565b610848565b005b61022f61095f565b60405161023c91906129a9565b60405180910390f35b61025f600480360381019061025a91906129c4565b610a02565b005b61027b600480360381019061027691906126ec565b610a62565b6040516102889190612ac6565b60405180910390f35b6102ab60048036038101906102a691906129c4565b610b03565b005b6102c760048036038101906102c29190612ae8565b610b23565b6040516102d4919061269b565b60405180910390f35b6102f760048036038101906102f291906126ec565b610b62565b6040516103049190612913565b60405180910390f35b61032760048036038101906103229190612b28565b610be8565b60405161033491906129a9565b60405180910390f35b610345610c9f565b005b61034f610cb3565b60405161035c9190612913565b60405180910390f35b61036d610cdd565b60405161037a91906128e2565b60405180910390f35b61038b610d6f565b60405161039891906129a9565b60405180910390f35b6103a9610d80565b6040516103b69190612bb4565b60405180910390f35b6103d960048036038101906103d49190612bfb565b610da6565b005b6103f560048036038101906103f09190612d70565b610dbc565b005b610411600480360381019061040c9190612e94565b610e1e565b60405161041e919061269b565b60405180910390f35b610441600480360381019061043c91906126ec565b610fa3565b60405161044e91906128e2565b60405180910390f35b610471600480360381019061046c9190612f33565b61100b565b60405161047e9190612876565b60405180910390f35b6104a1600480360381019061049c9190612f86565b611435565b6040516104ae919061269b565b60405180910390f35b6104d160048036038101906104cc9190612b28565b6114c9565b005b60007f80ac58cd000000000000000000000000000000000000000000000000000000007bffffffffffffffffffffffffffffffffffffffffffffffffffffffff1916827bffffffffffffffffffffffffffffffffffffffffffffffffffffffff1916148061059e57507f5b5e139f000000000000000000000000000000000000000000000000000000007bffffffffffffffffffffffffffffffffffffffffffffffffffffffff1916827bffffffffffffffffffffffffffffffffffffffffffffffffffffffff1916145b806105ae57506105ad8261154c565b5b9050919050565b6105bd6125a2565b600960008381526020019081526020016000206040518060a00160405290816000820180546105eb90612ff5565b80601f016020809104026020016040519081016040528092919081815260200182805461061790612ff5565b80156106645780601f1061063957610100808354040283529160200191610664565b820191906000526020600020905b81548152906001019060200180831161064757829003601f168201915b5050505050815260200160018201805461067d90612ff5565b80601f01602080910402602001604051908101604052809291908181526020018280546106a990612ff5565b80156106f65780601f106106cb576101008083540402835291602001916106f6565b820191906000526020600020905b8154815290600101906020018083116106d957829003601f168201915b505050505081526020016002820160009054906101000a900473ffffffffffffffffffffffffffffffffffffffff1673ffffffffffffffffffffffffffffffffffffffff1673ffffffffffffffffffffffffffffffffffffffff168152602001600382015481526020016004820154815250509050919050565b60606000805461077f90612ff5565b80601f01602080910402602001604051908101604052809291908181526020018280546107ab90612ff5565b80156107f85780601f106107cd576101008083540402835291602001916107f8565b820191906000526020600020905b8154815290600101906020018083116107db57829003601f168201915b5050505050905090565b600061080d826115b6565b6004600083815260200190815260200160002060009054906101000a900473ffffffffffffffffffffffffffffffffffffffff169050919050565b600061085382610b62565b90508073ffffffffffffffffffffffffffffffffffffffff168373ffffffffffffffffffffffffffffffffffffffff16036108c3576040517f08c379a00000000000000000000000000000000000000000000000000000000081526004016108ba90613098565b60405180910390fd5b8073ffffffffffffffffffffffffffffffffffffffff166108e2611601565b73ffffffffffffffffffffffffffffffffffffffff16148061091157506109108161090b611601565b611435565b5b610950576040517f08c379a00000000000000000000000000000000000000000000000000000000081526004016109479061312a565b60405180910390fd5b61095a8383611609565b505050565b6000600760009054906101000a900473ffffffffffffffffffffffffffffffffffffffff1673ffffffffffffffffffffffffffffffffffffffff166370a08231306040518263ffffffff1660e01b81526004016109bc9190612913565b602060405180830381865afa1580156109d9573d6000803e3d6000fd5b505050506040513d601f19601f820116820180604052508101906109fd919061315f565b905090565b610a13610a0d611601565b826116c2565b610a52576040517f08c379a0000000000000000000000000000000000000000000000000000000008152600401610a49906131fe565b60405180910390fd5b610a5d838383611757565b505050565b606060086000838152602001908152602001600020805480602002602001604051908101604052809291908181526020018280548015610af757602002820191906000526020600020905b8160009054906101000a900473ffffffffffffffffffffffffffffffffffffffff1673ffffffffffffffffffffffffffffffffffffffff1681526020019060010190808311610aad575b50505050509050919050565b610b1e83838360405180602001604052806000815250610dbc565b505050565b600080600960008581526020019081526020016000209050670de0b6b3a764000083610b4f919061324d565b8160030181905550600191505092915050565b600080610b6e83611a50565b9050600073ffffffffffffffffffffffffffffffffffffffff168173ffffffffffffffffffffffffffffffffffffffff1603610bdf576040517f08c379a0000000000000000000000000000000000000000000000000000000008152600401610bd6906132db565b60405180910390fd5b80915050919050565b60008073ffffffffffffffffffffffffffffffffffffffff168273ffffffffffffffffffffffffffffffffffffffff1603610c58576040517f08c379a0000000000000000000000000000000000000000000000000000000008152600401610c4f9061336d565b60405180910390fd5b600360008373ffffffffffffffffffffffffffffffffffffffff1673ffffffffffffffffffffffffffffffffffffffff168152602001908152602001600020549050919050565b610ca7611a8d565b610cb16000611b0b565b565b6000600660009054906101000a900473ffffffffffffffffffffffffffffffffffffffff16905090565b606060018054610cec90612ff5565b80601f0160208091040260200160405190810160405280929190818152602001828054610d1890612ff5565b8015610d655780601f10610d3a57610100808354040283529160200191610d65565b820191906000526020600020905b815481529060010190602001808311610d4857829003601f168201915b5050505050905090565b6000610d7b600a611bd1565b905090565b600760009054906101000a900473ffffffffffffffffffffffffffffffffffffffff1681565b610db8610db1611601565b8383611bdf565b5050565b610dcd610dc7611601565b836116c2565b610e0c576040517f08c379a0000000000000000000000000000000000000000000000000000000008152600401610e03906131fe565b60405180910390fd5b610e1884848484611d4b565b50505050565b6000610e2a600a611da7565b6000610e36600a611bd1565b905060006040518060a001604052808781526020018681526020018873ffffffffffffffffffffffffffffffffffffffff168152602001858152602001838152509050610e838783611dbd565b80600960008481526020019081526020016000206000820151816000019081610eac919061352f565b506020820151816001019081610ec2919061352f565b5060408201518160020160006101000a81548173ffffffffffffffffffffffffffffffffffffffff021916908373ffffffffffffffffffffffffffffffffffffffff160217905550606082015181600301556080820151816004015590505060086000838152602001908152602001600020879080600181540180825580915050600190039060005260206000200160009091909190916101000a81548173ffffffffffffffffffffffffffffffffffffffff021916908373ffffffffffffffffffffffffffffffffffffffff160217905550600192505050949350505050565b6060610fae826115b6565b6000610fb8611ddb565b90506000815111610fd85760405180602001604052806000815250611003565b80610fe284611df2565b604051602001610ff392919061363d565b6040516020818303038152906040525b915050919050565b6110136125a2565b6000600960008681526020019081526020016000206040518060a001604052908160008201805461104390612ff5565b80601f016020809104026020016040519081016040528092919081815260200182805461106f90612ff5565b80156110bc5780601f10611091576101008083540402835291602001916110bc565b820191906000526020600020905b81548152906001019060200180831161109f57829003601f168201915b505050505081526020016001820180546110d590612ff5565b80601f016020809104026020016040519081016040528092919081815260200182805461110190612ff5565b801561114e5780601f106111235761010080835404028352916020019161114e565b820191906000526020600020905b81548152906001019060200180831161113157829003601f168201915b505050505081526020016002820160009054906101000a900473ffffffffffffffffffffffffffffffffffffffff1673ffffffffffffffffffffffffffffffffffffffff1673ffffffffffffffffffffffffffffffffffffffff168152602001600382015481526020016004820154815250509050600760009054906101000a900473ffffffffffffffffffffffffffffffffffffffff1673ffffffffffffffffffffffffffffffffffffffff166323b872dd85836040015184606001516040518463ffffffff1660e01b815260040161122a93929190613661565b6020604051808303816000875af1158015611249573d6000803e3d6000fd5b505050506040513d601f19601f8201168201806040525081019061126d91906136ad565b508273ffffffffffffffffffffffffffffffffffffffff16816040015173ffffffffffffffffffffffffffffffffffffffff16146112e0576040517f08c379a00000000000000000000000000000000000000000000000000000000081526004016112d790613726565b60405180910390fd5b83816040019073ffffffffffffffffffffffffffffffffffffffff16908173ffffffffffffffffffffffffffffffffffffffff168152505080600960008781526020019081526020016000206000820151816000019081611341919061352f565b506020820151816001019081611357919061352f565b5060408201518160020160006101000a81548173ffffffffffffffffffffffffffffffffffffffff021916908373ffffffffffffffffffffffffffffffffffffffff160217905550606082015181600301556080820151816004015590505060086000868152602001908152602001600020849080600181540180825580915050600190039060005260206000200160009091909190916101000a81548173ffffffffffffffffffffffffffffffffffffffff021916908373ffffffffffffffffffffffffffffffffffffffff160217905550809150509392505050565b6000600560008473ffffffffffffffffffffffffffffffffffffffff1673ffffffffffffffffffffffffffffffffffffffff16815260200190815260200160002060008373ffffffffffffffffffffffffffffffffffffffff1673ffffffffffffffffffffffffffffffffffffffff16815260200190815260200160002060009054906101000a900460ff16905092915050565b6114d1611a8d565b600073ffffffffffffffffffffffffffffffffffffffff168173ffffffffffffffffffffffffffffffffffffffff1603611540576040517f08c379a0000000000000000000000000000000000000000000000000000000008152600401611537906137b8565b60405180910390fd5b61154981611b0b565b50565b60007f01ffc9a7000000000000000000000000000000000000000000000000000000007bffffffffffffffffffffffffffffffffffffffffffffffffffffffff1916827bffffffffffffffffffffffffffffffffffffffffffffffffffffffff1916149050919050565b6115bf81611ec0565b6115fe576040517f08c379a00000000000000000000000000000000000000000000000000000000081526004016115f5906132db565b60405180910390fd5b50565b600033905090565b816004600083815260200190815260200160002060006101000a81548173ffffffffffffffffffffffffffffffffffffffff021916908373ffffffffffffffffffffffffffffffffffffffff160217905550808273ffffffffffffffffffffffffffffffffffffffff1661167c83610b62565b73ffffffffffffffffffffffffffffffffffffffff167f8c5be1e5ebec7d5bd14f71427d1e84f3dd0314c0f7b2291e5b200ac8c7c3b92560405160405180910390a45050565b6000806116ce83610b62565b90508073ffffffffffffffffffffffffffffffffffffffff168473ffffffffffffffffffffffffffffffffffffffff161480611710575061170f8185611435565b5b8061174e57508373ffffffffffffffffffffffffffffffffffffffff1661173684610802565b73ffffffffffffffffffffffffffffffffffffffff16145b91505092915050565b8273ffffffffffffffffffffffffffffffffffffffff1661177782610b62565b73ffffffffffffffffffffffffffffffffffffffff16146117cd576040517f08c379a00000000000000000000000000000000000000000000000000000000081526004016117c49061384a565b60405180910390fd5b600073ffffffffffffffffffffffffffffffffffffffff168273ffffffffffffffffffffffffffffffffffffffff160361183c576040517f08c379a0000000000000000000000000000000000000000000000000000000008152600401611833906138dc565b60405180910390fd5b6118498383836001611f01565b8273ffffffffffffffffffffffffffffffffffffffff1661186982610b62565b73ffffffffffffffffffffffffffffffffffffffff16146118bf576040517f08c379a00000000000000000000000000000000000000000000000000000000081526004016118b69061384a565b60405180910390fd5b6004600082815260200190815260200160002060006101000a81549073ffffffffffffffffffffffffffffffffffffffff02191690556001600360008573ffffffffffffffffffffffffffffffffffffffff1673ffffffffffffffffffffffffffffffffffffffff168152602001908152602001600020600082825403925050819055506001600360008473ffffffffffffffffffffffffffffffffffffffff1673ffffffffffffffffffffffffffffffffffffffff16815260200190815260200160002060008282540192505081905550816002600083815260200190815260200160002060006101000a81548173ffffffffffffffffffffffffffffffffffffffff021916908373ffffffffffffffffffffffffffffffffffffffff160217905550808273ffffffffffffffffffffffffffffffffffffffff168473ffffffffffffffffffffffffffffffffffffffff167fddf252ad1be2c89b69c2b068fc378daa952ba7f163c4a11628f55a4df523b3ef60405160405180910390a4611a4b8383836001612027565b505050565b60006002600083815260200190815260200160002060009054906101000a900473ffffffffffffffffffffffffffffffffffffffff169050919050565b611a95611601565b73ffffffffffffffffffffffffffffffffffffffff16611ab3610cb3565b73ffffffffffffffffffffffffffffffffffffffff1614611b09576040517f08c379a0000000000000000000000000000000000000000000000000000000008152600401611b0090613948565b60405180910390fd5b565b6000600660009054906101000a900473ffffffffffffffffffffffffffffffffffffffff16905081600660006101000a81548173ffffffffffffffffffffffffffffffffffffffff021916908373ffffffffffffffffffffffffffffffffffffffff1602179055508173ffffffffffffffffffffffffffffffffffffffff168173ffffffffffffffffffffffffffffffffffffffff167f8be0079c531659141344cd1fd0a4f28419497f9722a3daafe3b4186f6b6457e060405160405180910390a35050565b600081600001549050919050565b8173ffffffffffffffffffffffffffffffffffffffff168373ffffffffffffffffffffffffffffffffffffffff1603611c4d576040517f08c379a0000000000000000000000000000000000000000000000000000000008152600401611c44906139b4565b60405180910390fd5b80600560008573ffffffffffffffffffffffffffffffffffffffff1673ffffffffffffffffffffffffffffffffffffffff16815260200190815260200160002060008473ffffffffffffffffffffffffffffffffffffffff1673ffffffffffffffffffffffffffffffffffffffff16815260200190815260200160002060006101000a81548160ff0219169083151502179055508173ffffffffffffffffffffffffffffffffffffffff168373ffffffffffffffffffffffffffffffffffffffff167f17307eab39ab6107e8899845ad3d59bd9653f200f220920489ca2b5937696c3183604051611d3e919061269b565b60405180910390a3505050565b611d56848484611757565b611d628484848461202d565b611da1576040517f08c379a0000000000000000000000000000000000000000000000000000000008152600401611d9890613a46565b60405180910390fd5b50505050565b6001816000016000828254019250508190555050565b611dd78282604051806020016040528060008152506121b4565b5050565b606060405180602001604052806000815250905090565b606060006001611e018461220f565b01905060008167ffffffffffffffff811115611e2057611e1f612c45565b5b6040519080825280601f01601f191660200182016040528015611e525781602001600182028036833780820191505090505b509050600082602001820190505b600115611eb5578080600190039150507f3031323334353637383961626364656600000000000000000000000000000000600a86061a8153600a8581611ea957611ea8613a66565b5b04945060008503611e60575b819350505050919050565b60008073ffffffffffffffffffffffffffffffffffffffff16611ee283611a50565b73ffffffffffffffffffffffffffffffffffffffff1614159050919050565b600181111561202157600073ffffffffffffffffffffffffffffffffffffffff168473ffffffffffffffffffffffffffffffffffffffff1614611f955780600360008673ffffffffffffffffffffffffffffffffffffffff1673ffffffffffffffffffffffffffffffffffffffff1681526020019081526020016000206000828254611f8d9190613a95565b925050819055505b600073ffffffffffffffffffffffffffffffffffffffff168373ffffffffffffffffffffffffffffffffffffffff16146120205780600360008573ffffffffffffffffffffffffffffffffffffffff1673ffffffffffffffffffffffffffffffffffffffff16815260200190815260200160002060008282546120189190613ac9565b925050819055505b5b50505050565b50505050565b600061204e8473ffffffffffffffffffffffffffffffffffffffff16612362565b156121a7578373ffffffffffffffffffffffffffffffffffffffff1663150b7a02612077611601565b8786866040518563ffffffff1660e01b81526004016120999493929190613b52565b6020604051808303816000875af19250505080156120d557506040513d601f19601f820116820180604052508101906120d29190613bb3565b60015b612157573d8060008114612105576040519150601f19603f3d011682016040523d82523d6000602084013e61210a565b606091505b50600081510361214f576040517f08c379a000000000000000000000000000000000000000000000000000000000815260040161214690613a46565b60405180910390fd5b805181602001fd5b63150b7a0260e01b7bffffffffffffffffffffffffffffffffffffffffffffffffffffffff1916817bffffffffffffffffffffffffffffffffffffffffffffffffffffffff1916149150506121ac565b600190505b949350505050565b6121be8383612385565b6121cb600084848461202d565b61220a576040517f08c379a000000000000000000000000000000000000000000000000000000000815260040161220190613a46565b60405180910390fd5b505050565b600080600090507a184f03e93ff9f4daa797ed6e38ed64bf6a1f010000000000000000831061226d577a184f03e93ff9f4daa797ed6e38ed64bf6a1f010000000000000000838161226357612262613a66565b5b0492506040810190505b6d04ee2d6d415b85acef810000000083106122aa576d04ee2d6d415b85acef810000000083816122a05761229f613a66565b5b0492506020810190505b662386f26fc1000083106122d957662386f26fc1000083816122cf576122ce613a66565b5b0492506010810190505b6305f5e1008310612302576305f5e10083816122f8576122f7613a66565b5b0492506008810190505b612710831061232757612710838161231d5761231c613a66565b5b0492506004810190505b6064831061234a57606483816123405761233f613a66565b5b0492506002810190505b600a8310612359576001810190505b80915050919050565b6000808273ffffffffffffffffffffffffffffffffffffffff163b119050919050565b600073ffffffffffffffffffffffffffffffffffffffff168273ffffffffffffffffffffffffffffffffffffffff16036123f4576040517f08c379a00000000000000000000000000000000000000000000000000000000081526004016123eb90613c2c565b60405180910390fd5b6123fd81611ec0565b1561243d576040517f08c379a000000000000000000000000000000000000000000000000000000000815260040161243490613c98565b60405180910390fd5b61244b600083836001611f01565b61245481611ec0565b15612494576040517f08c379a000000000000000000000000000000000000000000000000000000000815260040161248b90613c98565b60405180910390fd5b6001600360008473ffffffffffffffffffffffffffffffffffffffff1673ffffffffffffffffffffffffffffffffffffffff16815260200190815260200160002060008282540192505081905550816002600083815260200190815260200160002060006101000a81548173ffffffffffffffffffffffffffffffffffffffff021916908373ffffffffffffffffffffffffffffffffffffffff160217905550808273ffffffffffffffffffffffffffffffffffffffff16600073ffffffffffffffffffffffffffffffffffffffff167fddf252ad1be2c89b69c2b068fc378daa952ba7f163c4a11628f55a4df523b3ef60405160405180910390a461259e600083836001612027565b5050565b6040518060a001604052806060815260200160608152602001600073ffffffffffffffffffffffffffffffffffffffff16815260200160008152602001600081525090565b6000604051905090565b600080fd5b600080fd5b60007fffffffff0000000000000000000000000000000000000000000000000000000082169050919050565b612630816125fb565b811461263b57600080fd5b50565b60008135905061264d81612627565b92915050565b600060208284031215612669576126686125f1565b5b60006126778482850161263e565b91505092915050565b60008115159050919050565b61269581612680565b82525050565b60006020820190506126b0600083018461268c565b92915050565b6000819050919050565b6126c9816126b6565b81146126d457600080fd5b50565b6000813590506126e6816126c0565b92915050565b600060208284031215612702576127016125f1565b5b6000612710848285016126d7565b91505092915050565b600081519050919050565b600082825260208201905092915050565b60005b83811015612753578082015181840152602081019050612738565b60008484015250505050565b6000601f19601f8301169050919050565b600061277b82612719565b6127858185612724565b9350612795818560208601612735565b61279e8161275f565b840191505092915050565b600073ffffffffffffffffffffffffffffffffffffffff82169050919050565b60006127d4826127a9565b9050919050565b6127e4816127c9565b82525050565b6127f3816126b6565b82525050565b600060a08301600083015184820360008601526128168282612770565b915050602083015184820360208601526128308282612770565b915050604083015161284560408601826127db565b50606083015161285860608601826127ea565b50608083015161286b60808601826127ea565b508091505092915050565b6000602082019050818103600083015261289081846127f9565b905092915050565b600082825260208201905092915050565b60006128b482612719565b6128be8185612898565b93506128ce818560208601612735565b6128d78161275f565b840191505092915050565b600060208201905081810360008301526128fc81846128a9565b905092915050565b61290d816127c9565b82525050565b60006020820190506129286000830184612904565b92915050565b612937816127c9565b811461294257600080fd5b50565b6000813590506129548161292e565b92915050565b60008060408385031215612971576129706125f1565b5b600061297f85828601612945565b9250506020612990858286016126d7565b9150509250929050565b6129a3816126b6565b82525050565b60006020820190506129be600083018461299a565b92915050565b6000806000606084860312156129dd576129dc6125f1565b5b60006129eb86828701612945565b93505060206129fc86828701612945565b9250506040612a0d868287016126d7565b9150509250925092565b600081519050919050565b600082825260208201905092915050565b6000819050602082019050919050565b6000612a4f83836127db565b60208301905092915050565b6000602082019050919050565b6000612a7382612a17565b612a7d8185612a22565b9350612a8883612a33565b8060005b83811015612ab9578151612aa08882612a43565b9750612aab83612a5b565b925050600181019050612a8c565b5085935050505092915050565b60006020820190508181036000830152612ae08184612a68565b905092915050565b60008060408385031215612aff57612afe6125f1565b5b6000612b0d858286016126d7565b9250506020612b1e858286016126d7565b9150509250929050565b600060208284031215612b3e57612b3d6125f1565b5b6000612b4c84828501612945565b91505092915050565b6000819050919050565b6000612b7a612b75612b70846127a9565b612b55565b6127a9565b9050919050565b6000612b8c82612b5f565b9050919050565b6000612b9e82612b81565b9050919050565b612bae81612b93565b82525050565b6000602082019050612bc96000830184612ba5565b92915050565b612bd881612680565b8114612be357600080fd5b50565b600081359050612bf581612bcf565b92915050565b60008060408385031215612c1257612c116125f1565b5b6000612c2085828601612945565b9250506020612c3185828601612be6565b9150509250929050565b600080fd5b600080fd5b7f4e487b7100000000000000000000000000000000000000000000000000000000600052604160045260246000fd5b612c7d8261275f565b810181811067ffffffffffffffff82111715612c9c57612c9b612c45565b5b80604052505050565b6000612caf6125e7565b9050612cbb8282612c74565b919050565b600067ffffffffffffffff821115612cdb57612cda612c45565b5b612ce48261275f565b9050602081019050919050565b82818337600083830152505050565b6000612d13612d0e84612cc0565b612ca5565b905082815260208101848484011115612d2f57612d2e612c40565b5b612d3a848285612cf1565b509392505050565b600082601f830112612d5757612d56612c3b565b5b8135612d67848260208601612d00565b91505092915050565b60008060008060808587031215612d8a57612d896125f1565b5b6000612d9887828801612945565b9450506020612da987828801612945565b9350506040612dba878288016126d7565b925050606085013567ffffffffffffffff811115612ddb57612dda6125f6565b5b612de787828801612d42565b91505092959194509250565b600067ffffffffffffffff821115612e0e57612e0d612c45565b5b612e178261275f565b9050602081019050919050565b6000612e37612e3284612df3565b612ca5565b905082815260208101848484011115612e5357612e52612c40565b5b612e5e848285612cf1565b509392505050565b600082601f830112612e7b57612e7a612c3b565b5b8135612e8b848260208601612e24565b91505092915050565b60008060008060808587031215612eae57612ead6125f1565b5b6000612ebc87828801612945565b945050602085013567ffffffffffffffff811115612edd57612edc6125f6565b5b612ee987828801612e66565b935050604085013567ffffffffffffffff811115612f0a57612f096125f6565b5b612f1687828801612e66565b9250506060612f27878288016126d7565b91505092959194509250565b600080600060608486031215612f4c57612f4b6125f1565b5b6000612f5a868287016126d7565b9350506020612f6b86828701612945565b9250506040612f7c86828701612945565b9150509250925092565b60008060408385031215612f9d57612f9c6125f1565b5b6000612fab85828601612945565b9250506020612fbc85828601612945565b9150509250929050565b7f4e487b7100000000000000000000000000000000000000000000000000000000600052602260045260246000fd5b6000600282049050600182168061300d57607f821691505b6020821081036130205761301f612fc6565b5b50919050565b7f4552433732313a20617070726f76616c20746f2063757272656e74206f776e6560008201527f7200000000000000000000000000000000000000000000000000000000000000602082015250565b6000613082602183612898565b915061308d82613026565b604082019050919050565b600060208201905081810360008301526130b181613075565b9050919050565b7f4552433732313a20617070726f76652063616c6c6572206973206e6f7420746f60008201527f6b656e206f776e6572206f7220617070726f76656420666f7220616c6c000000602082015250565b6000613114603d83612898565b915061311f826130b8565b604082019050919050565b6000602082019050818103600083015261314381613107565b9050919050565b600081519050613159816126c0565b92915050565b600060208284031215613175576131746125f1565b5b60006131838482850161314a565b91505092915050565b7f4552433732313a2063616c6c6572206973206e6f7420746f6b656e206f776e6560008201527f72206f7220617070726f76656400000000000000000000000000000000000000602082015250565b60006131e8602d83612898565b91506131f38261318c565b604082019050919050565b60006020820190508181036000830152613217816131db565b9050919050565b7f4e487b7100000000000000000000000000000000000000000000000000000000600052601160045260246000fd5b6000613258826126b6565b9150613263836126b6565b9250828202613271816126b6565b915082820484148315176132885761328761321e565b5b5092915050565b7f4552433732313a20696e76616c696420746f6b656e2049440000000000000000600082015250565b60006132c5601883612898565b91506132d08261328f565b602082019050919050565b600060208201905081810360008301526132f4816132b8565b9050919050565b7f4552433732313a2061646472657373207a65726f206973206e6f74206120766160008201527f6c6964206f776e65720000000000000000000000000000000000000000000000602082015250565b6000613357602983612898565b9150613362826132fb565b604082019050919050565b600060208201905081810360008301526133868161334a565b9050919050565b60008190508160005260206000209050919050565b60006020601f8301049050919050565b600082821b905092915050565b6000600883026133ef7fffffffffffffffffffffffffffffffffffffffffffffffffffffffffffffffff826133b2565b6133f986836133b2565b95508019841693508086168417925050509392505050565b600061342c613427613422846126b6565b612b55565b6126b6565b9050919050565b6000819050919050565b61344683613411565b61345a61345282613433565b8484546133bf565b825550505050565b600090565b61346f613462565b61347a81848461343d565b505050565b5b8181101561349e57613493600082613467565b600181019050613480565b5050565b601f8211156134e3576134b48161338d565b6134bd846133a2565b810160208510156134cc578190505b6134e06134d8856133a2565b83018261347f565b50505b505050565b600082821c905092915050565b6000613506600019846008026134e8565b1980831691505092915050565b600061351f83836134f5565b9150826002028217905092915050565b61353882612719565b67ffffffffffffffff81111561355157613550612c45565b5b61355b8254612ff5565b6135668282856134a2565b600060209050601f8311600181146135995760008415613587578287015190505b6135918582613513565b8655506135f9565b601f1984166135a78661338d565b60005b828110156135cf578489015182556001820191506020850194506020810190506135aa565b868310156135ec57848901516135e8601f8916826134f5565b8355505b6001600288020188555050505b505050505050565b600081905092915050565b600061361782612719565b6136218185613601565b9350613631818560208601612735565b80840191505092915050565b6000613649828561360c565b9150613655828461360c565b91508190509392505050565b60006060820190506136766000830186612904565b6136836020830185612904565b613690604083018461299a565b949350505050565b6000815190506136a781612bcf565b92915050565b6000602082840312156136c3576136c26125f1565b5b60006136d184828501613698565b91505092915050565b7f496e636f7272656e742046726f6d206f776e6572000000000000000000000000600082015250565b6000613710601483612898565b915061371b826136da565b602082019050919050565b6000602082019050818103600083015261373f81613703565b9050919050565b7f4f776e61626c653a206e6577206f776e657220697320746865207a65726f206160008201527f6464726573730000000000000000000000000000000000000000000000000000602082015250565b60006137a2602683612898565b91506137ad82613746565b604082019050919050565b600060208201905081810360008301526137d181613795565b9050919050565b7f4552433732313a207472616e736665722066726f6d20696e636f72726563742060008201527f6f776e6572000000000000000000000000000000000000000000000000000000602082015250565b6000613834602583612898565b915061383f826137d8565b604082019050919050565b6000602082019050818103600083015261386381613827565b9050919050565b7f4552433732313a207472616e7366657220746f20746865207a65726f2061646460008201527f7265737300000000000000000000000000000000000000000000000000000000602082015250565b60006138c6602483612898565b91506138d18261386a565b604082019050919050565b600060208201905081810360008301526138f5816138b9565b9050919050565b7f4f776e61626c653a2063616c6c6572206973206e6f7420746865206f776e6572600082015250565b6000613932602083612898565b915061393d826138fc565b602082019050919050565b6000602082019050818103600083015261396181613925565b9050919050565b7f4552433732313a20617070726f766520746f2063616c6c657200000000000000600082015250565b600061399e601983612898565b91506139a982613968565b602082019050919050565b600060208201905081810360008301526139cd81613991565b9050919050565b7f4552433732313a207472616e7366657220746f206e6f6e20455243373231526560008201527f63656976657220696d706c656d656e7465720000000000000000000000000000602082015250565b6000613a30603283612898565b9150613a3b826139d4565b604082019050919050565b60006020820190508181036000830152613a5f81613a23565b9050919050565b7f4e487b7100000000000000000000000000000000000000000000000000000000600052601260045260246000fd5b6000613aa0826126b6565b9150613aab836126b6565b9250828203905081811115613ac357613ac261321e565b5b92915050565b6000613ad4826126b6565b9150613adf836126b6565b9250828201905080821115613af757613af661321e565b5b92915050565b600081519050919050565b600082825260208201905092915050565b6000613b2482613afd565b613b2e8185613b08565b9350613b3e818560208601612735565b613b478161275f565b840191505092915050565b6000608082019050613b676000830187612904565b613b746020830186612904565b613b81604083018561299a565b8181036060830152613b938184613b19565b905095945050505050565b600081519050613bad81612627565b92915050565b600060208284031215613bc957613bc86125f1565b5b6000613bd784828501613b9e565b91505092915050565b7f4552433732313a206d696e7420746f20746865207a65726f2061646472657373600082015250565b6000613c16602083612898565b9150613c2182613be0565b602082019050919050565b60006020820190508181036000830152613c4581613c09565b9050919050565b7f4552433732313a20746f6b656e20616c7265616479206d696e74656400000000600082015250565b6000613c82601c83612898565b9150613c8d82613c4c565b602082019050919050565b60006020820190508181036000830152613cb181613c75565b905091905056fea2646970667358221220e13b57506f72310bc0454a27f59054c6e6eea880418fdd7adcbfa36dc911b46164736f6c63430008110033",
  "immutableReferences": {},
  "source": "// SPDX-License-Identifier: MIT\r\n\r\npragma solidity ^0.8.0;\r\n\r\nimport \"@openzeppelin/contracts/token/ERC20/IERC20.sol\";\r\nimport \"@openzeppelin/contracts/token/ERC721/IERC721.sol\";\r\nimport \"@openzeppelin/contracts/token/ERC721/ERC721.sol\";\r\nimport \"@openzeppelin/contracts/access/Ownable.sol\";\r\nimport \"@openzeppelin/contracts/utils/Counters.sol\";\r\n\r\ncontract MyNft is ERC721, Ownable {\r\n    using Counters for Counters.Counter;\r\n    IERC20 public tokenAddress;\r\n\r\n    struct Product {\r\n        string name;\r\n        string description;\r\n        address owner;\r\n        uint256 price;\r\n        uint256 tokenid;\r\n    }\r\n\r\n    mapping(uint256 => address[]) OwnerList;\r\n\r\n    mapping(uint256 => Product) MintedNFT;\r\n\r\n    Counters.Counter private _tokenIdCounter;\r\n\r\n    constructor(address _tokenAddress) ERC721(\"MyNft\", \"MTX\") {\r\n        tokenAddress = IERC20(_tokenAddress);\r\n    }\r\n\r\n    function safeMint(\r\n        address _from,\r\n        string memory _name,\r\n        string memory _description,\r\n        uint256 _price\r\n    ) public returns (bool) {\r\n        _tokenIdCounter.increment();\r\n        uint256 tokenId = _tokenIdCounter.current();\r\n        Product memory product = Product({\r\n            name: _name,\r\n            description: _description,\r\n            price: _price,\r\n            owner: _from,\r\n            tokenid: tokenId\r\n        });\r\n        _safeMint(_from, tokenId);\r\n        MintedNFT[tokenId] = product;\r\n        OwnerList[tokenId].push(_from);\r\n        return true;\r\n    }\r\n\r\n    function setProductPrice(uint256 _tokenId, uint256 val)\r\n        external\r\n        returns (bool)\r\n    {\r\n        Product storage product = MintedNFT[_tokenId];\r\n        product.price = val * (10**18);\r\n        return true;\r\n    }\r\n\r\n    function getProductByTokenId(uint256 _tokenId)\r\n        external\r\n        view\r\n        returns (Product memory)\r\n    {\r\n        return MintedNFT[_tokenId];\r\n    }\r\n\r\n    function buyProductByTokenId(\r\n        uint256 _tokenId,\r\n        address _toownerAddress,\r\n        address _fromownerAddress\r\n    ) external returns (Product memory) {\r\n        Product memory product = MintedNFT[_tokenId];\r\n        tokenAddress.transferFrom(\r\n            _toownerAddress,\r\n            product.owner,\r\n            product.price\r\n        );\r\n        require(product.owner == _fromownerAddress, \"Incorrent From owner\");\r\n        product.owner = _toownerAddress;\r\n        MintedNFT[_tokenId] = product;\r\n        OwnerList[_tokenId].push(_toownerAddress);\r\n        return product;\r\n    }\r\n\r\n    function getOwnerHistoryByTokenId(uint256 _tokenId)\r\n        public\r\n        view\r\n        returns (address[] memory)\r\n    {\r\n        return OwnerList[_tokenId];\r\n    }\r\n\r\n    function getBalance() external view returns (uint256) {\r\n        return tokenAddress.balanceOf(address(this));\r\n    }\r\n\r\n    function getTotalNFTMinted() external view returns (uint256) {\r\n        return _tokenIdCounter.current();\r\n    }\r\n}\r\n",
  "sourcePath": "C:\\Users\\balam\\OneDrive\\Documents\\poc\\server\\contracts\\MyNft.sol",
  "compiler": {
    "name": "solc",
    "version": "0.8.17+commit.8df45f5f.Emscripten.clang"
  },
  "schemaVersion": "3.4.11",
  "updatedAt": "2023-01-11T10:53:26.549Z",
  "networkType": "ethereum",
  "devdoc": {
    "kind": "dev",
    "methods": {
      "approve(address,uint256)": {
        "details": "See {IERC721-approve}."
      },
      "balanceOf(address)": {
        "details": "See {IERC721-balanceOf}."
      },
      "getApproved(uint256)": {
        "details": "See {IERC721-getApproved}."
      },
      "isApprovedForAll(address,address)": {
        "details": "See {IERC721-isApprovedForAll}."
      },
      "name()": {
        "details": "See {IERC721Metadata-name}."
      },
      "owner()": {
        "details": "Returns the address of the current owner."
      },
      "ownerOf(uint256)": {
        "details": "See {IERC721-ownerOf}."
      },
      "renounceOwnership()": {
        "details": "Leaves the contract without owner. It will not be possible to call `onlyOwner` functions anymore. Can only be called by the current owner. NOTE: Renouncing ownership will leave the contract without an owner, thereby removing any functionality that is only available to the owner."
      },
      "safeTransferFrom(address,address,uint256)": {
        "details": "See {IERC721-safeTransferFrom}."
      },
      "safeTransferFrom(address,address,uint256,bytes)": {
        "details": "See {IERC721-safeTransferFrom}."
      },
      "setApprovalForAll(address,bool)": {
        "details": "See {IERC721-setApprovalForAll}."
      },
      "supportsInterface(bytes4)": {
        "details": "See {IERC165-supportsInterface}."
      },
      "symbol()": {
        "details": "See {IERC721Metadata-symbol}."
      },
      "tokenURI(uint256)": {
        "details": "See {IERC721Metadata-tokenURI}."
      },
      "transferFrom(address,address,uint256)": {
        "details": "See {IERC721-transferFrom}."
      },
      "transferOwnership(address)": {
        "details": "Transfers ownership of the contract to a new account (`newOwner`). Can only be called by the current owner."
      }
    },
    "version": 1
  },
  "userdoc": {
    "kind": "user",
    "methods": {},
    "version": 1
  }
}