{
  "contractName": "MyNft",
  "abi": [
    {
      "inputs": [
        {
          "internalType": "address",
          "name": "_tokenAddress",
          "type": "address"
        }
      ],
      "stateMutability": "nonpayable",
      "type": "constructor"
    },
    {
      "anonymous": false,
      "inputs": [
        {
          "indexed": true,
          "internalType": "address",
          "name": "owner",
          "type": "address"
        },
        {
          "indexed": true,
          "internalType": "address",
          "name": "approved",
          "type": "address"
        },
        {
          "indexed": true,
          "internalType": "uint256",
          "name": "tokenId",
          "type": "uint256"
        }
      ],
      "name": "Approval",
      "type": "event"
    },
    {
      "anonymous": false,
      "inputs": [
        {
          "indexed": true,
          "internalType": "address",
          "name": "owner",
          "type": "address"
        },
        {
          "indexed": true,
          "internalType": "address",
          "name": "operator",
          "type": "address"
        },
        {
          "indexed": false,
          "internalType": "bool",
          "name": "approved",
          "type": "bool"
        }
      ],
      "name": "ApprovalForAll",
      "type": "event"
    },
    {
      "anonymous": false,
      "inputs": [
        {
          "indexed": true,
          "internalType": "address",
          "name": "previousOwner",
          "type": "address"
        },
        {
          "indexed": true,
          "internalType": "address",
          "name": "newOwner",
          "type": "address"
        }
      ],
      "name": "OwnershipTransferred",
      "type": "event"
    },
    {
      "anonymous": false,
      "inputs": [
        {
          "indexed": true,
          "internalType": "address",
          "name": "from",
          "type": "address"
        },
        {
          "indexed": true,
          "internalType": "address",
          "name": "to",
          "type": "address"
        },
        {
          "indexed": true,
          "internalType": "uint256",
          "name": "tokenId",
          "type": "uint256"
        }
      ],
      "name": "Transfer",
      "type": "event"
    },
    {
      "inputs": [
        {
          "internalType": "address",
          "name": "to",
          "type": "address"
        },
        {
          "internalType": "uint256",
          "name": "tokenId",
          "type": "uint256"
        }
      ],
      "name": "approve",
      "outputs": [],
      "stateMutability": "nonpayable",
      "type": "function"
    },
    {
      "inputs": [
        {
          "internalType": "address",
          "name": "owner",
          "type": "address"
        }
      ],
      "name": "balanceOf",
      "outputs": [
        {
          "internalType": "uint256",
          "name": "",
          "type": "uint256"
        }
      ],
      "stateMutability": "view",
      "type": "function",
      "constant": true
    },
    {
      "inputs": [
        {
          "internalType": "uint256",
          "name": "tokenId",
          "type": "uint256"
        }
      ],
      "name": "getApproved",
      "outputs": [
        {
          "internalType": "address",
          "name": "",
          "type": "address"
        }
      ],
      "stateMutability": "view",
      "type": "function",
      "constant": true
    },
    {
      "inputs": [
        {
          "internalType": "address",
          "name": "owner",
          "type": "address"
        },
        {
          "internalType": "address",
          "name": "operator",
          "type": "address"
        }
      ],
      "name": "isApprovedForAll",
      "outputs": [
        {
          "internalType": "bool",
          "name": "",
          "type": "bool"
        }
      ],
      "stateMutability": "view",
      "type": "function",
      "constant": true
    },
    {
      "inputs": [],
      "name": "name",
      "outputs": [
        {
          "internalType": "string",
          "name": "",
          "type": "string"
        }
      ],
      "stateMutability": "view",
      "type": "function",
      "constant": true
    },
    {
      "inputs": [],
      "name": "owner",
      "outputs": [
        {
          "internalType": "address",
          "name": "",
          "type": "address"
        }
      ],
      "stateMutability": "view",
      "type": "function",
      "constant": true
    },
    {
      "inputs": [
        {
          "internalType": "uint256",
          "name": "tokenId",
          "type": "uint256"
        }
      ],
      "name": "ownerOf",
      "outputs": [
        {
          "internalType": "address",
          "name": "",
          "type": "address"
        }
      ],
      "stateMutability": "view",
      "type": "function",
      "constant": true
    },
    {
      "inputs": [],
      "name": "renounceOwnership",
      "outputs": [],
      "stateMutability": "nonpayable",
      "type": "function"
    },
    {
      "inputs": [
        {
          "internalType": "address",
          "name": "from",
          "type": "address"
        },
        {
          "internalType": "address",
          "name": "to",
          "type": "address"
        },
        {
          "internalType": "uint256",
          "name": "tokenId",
          "type": "uint256"
        }
      ],
      "name": "safeTransferFrom",
      "outputs": [],
      "stateMutability": "nonpayable",
      "type": "function"
    },
    {
      "inputs": [
        {
          "internalType": "address",
          "name": "from",
          "type": "address"
        },
        {
          "internalType": "address",
          "name": "to",
          "type": "address"
        },
        {
          "internalType": "uint256",
          "name": "tokenId",
          "type": "uint256"
        },
        {
          "internalType": "bytes",
          "name": "data",
          "type": "bytes"
        }
      ],
      "name": "safeTransferFrom",
      "outputs": [],
      "stateMutability": "nonpayable",
      "type": "function"
    },
    {
      "inputs": [
        {
          "internalType": "address",
          "name": "operator",
          "type": "address"
        },
        {
          "internalType": "bool",
          "name": "approved",
          "type": "bool"
        }
      ],
      "name": "setApprovalForAll",
      "outputs": [],
      "stateMutability": "nonpayable",
      "type": "function"
    },
    {
      "inputs": [
        {
          "internalType": "bytes4",
          "name": "interfaceId",
          "type": "bytes4"
        }
      ],
      "name": "supportsInterface",
      "outputs": [
        {
          "internalType": "bool",
          "name": "",
          "type": "bool"
        }
      ],
      "stateMutability": "view",
      "type": "function",
      "constant": true
    },
    {
      "inputs": [],
      "name": "symbol",
      "outputs": [
        {
          "internalType": "string",
          "name": "",
          "type": "string"
        }
      ],
      "stateMutability": "view",
      "type": "function",
      "constant": true
    },
    {
      "inputs": [],
      "name": "tokenAddress",
      "outputs": [
        {
          "internalType": "contract IERC20",
          "name": "",
          "type": "address"
        }
      ],
      "stateMutability": "view",
      "type": "function",
      "constant": true
    },
    {
      "inputs": [
        {
          "internalType": "uint256",
          "name": "tokenId",
          "type": "uint256"
        }
      ],
      "name": "tokenURI",
      "outputs": [
        {
          "internalType": "string",
          "name": "",
          "type": "string"
        }
      ],
      "stateMutability": "view",
      "type": "function",
      "constant": true
    },
    {
      "inputs": [
        {
          "internalType": "address",
          "name": "from",
          "type": "address"
        },
        {
          "internalType": "address",
          "name": "to",
          "type": "address"
        },
        {
          "internalType": "uint256",
          "name": "tokenId",
          "type": "uint256"
        }
      ],
      "name": "transferFrom",
      "outputs": [],
      "stateMutability": "nonpayable",
      "type": "function"
    },
    {
      "inputs": [
        {
          "internalType": "address",
          "name": "newOwner",
          "type": "address"
        }
      ],
      "name": "transferOwnership",
      "outputs": [],
      "stateMutability": "nonpayable",
      "type": "function"
    },
    {
      "inputs": [
        {
          "internalType": "address",
          "name": "_from",
          "type": "address"
        },
        {
          "internalType": "string",
          "name": "_name",
          "type": "string"
        },
        {
          "internalType": "string",
          "name": "_description",
          "type": "string"
        },
        {
          "internalType": "uint256",
          "name": "_price",
          "type": "uint256"
        }
      ],
      "name": "safeMint",
      "outputs": [
        {
          "internalType": "bool",
          "name": "",
          "type": "bool"
        }
      ],
      "stateMutability": "nonpayable",
      "type": "function"
    },
    {
      "inputs": [
        {
          "internalType": "uint256",
          "name": "_tokenId",
          "type": "uint256"
        },
        {
          "internalType": "uint256",
          "name": "val",
          "type": "uint256"
        }
      ],
      "name": "setProductPrice",
      "outputs": [
        {
          "internalType": "bool",
          "name": "",
          "type": "bool"
        }
      ],
      "stateMutability": "nonpayable",
      "type": "function"
    },
    {
      "inputs": [
        {
          "internalType": "uint256",
          "name": "_tokenId",
          "type": "uint256"
        }
      ],
      "name": "getProductByTokenId",
      "outputs": [
        {
          "components": [
            {
              "internalType": "string",
              "name": "name",
              "type": "string"
            },
            {
              "internalType": "string",
              "name": "description",
              "type": "string"
            },
            {
              "internalType": "address",
              "name": "owner",
              "type": "address"
            },
            {
              "internalType": "uint256",
              "name": "price",
              "type": "uint256"
            },
            {
              "internalType": "uint256",
              "name": "tokenid",
              "type": "uint256"
            }
          ],
          "internalType": "struct MyNft.Product",
          "name": "",
          "type": "tuple"
        }
      ],
      "stateMutability": "view",
      "type": "function",
      "constant": true
    },
    {
      "inputs": [
        {
          "internalType": "uint256",
          "name": "_tokenId",
          "type": "uint256"
        },
        {
          "internalType": "address",
          "name": "_toownerAddress",
          "type": "address"
        },
        {
          "internalType": "address",
          "name": "_fromownerAddress",
          "type": "address"
        }
      ],
      "name": "buyProductByTokenId",
      "outputs": [
        {
          "components": [
            {
              "internalType": "string",
              "name": "name",
              "type": "string"
            },
            {
              "internalType": "string",
              "name": "description",
              "type": "string"
            },
            {
              "internalType": "address",
              "name": "owner",
              "type": "address"
            },
            {
              "internalType": "uint256",
              "name": "price",
              "type": "uint256"
            },
            {
              "internalType": "uint256",
              "name": "tokenid",
              "type": "uint256"
            }
          ],
          "internalType": "struct MyNft.Product",
          "name": "",
          "type": "tuple"
        }
      ],
      "stateMutability": "nonpayable",
      "type": "function"
    },
    {
      "inputs": [
        {
          "internalType": "uint256",
          "name": "_tokenId",
          "type": "uint256"
        }
      ],
      "name": "getOwnerHistoryByTokenId",
      "outputs": [
        {
          "internalType": "address[]",
          "name": "",
          "type": "address[]"
        }
      ],
      "stateMutability": "view",
      "type": "function",
      "constant": true
    },
    {
      "inputs": [],
      "name": "getBalance",
      "outputs": [
        {
          "internalType": "uint256",
          "name": "",
          "type": "uint256"
        }
      ],
      "stateMutability": "view",
      "type": "function",
      "constant": true
    },
    {
      "inputs": [],
      "name": "getTotalNFTMinted",
      "outputs": [
        {
          "internalType": "uint256",
          "name": "",
          "type": "uint256"
        }
      ],
      "stateMutability": "view",
      "type": "function",
      "constant": true
    }
  ],
  "bytecode": "0x60806040523480156200001157600080fd5b506040516200444838038062004448833981810160405281019062000037919062000269565b6040518060400160405280600581526020017f4d794e66740000000000000000000000000000000000000000000000000000008152506040518060400160405280600381526020017f4d545800000000000000000000000000000000000000000000000000000000008152508160009081620000b4919062000515565b508060019081620000c6919062000515565b505050620000e9620000dd6200013160201b60201c565b6200013960201b60201c565b80600760006101000a81548173ffffffffffffffffffffffffffffffffffffffff021916908373ffffffffffffffffffffffffffffffffffffffff16021790555050620005fc565b600033905090565b6000600660009054906101000a900473ffffffffffffffffffffffffffffffffffffffff16905081600660006101000a81548173ffffffffffffffffffffffffffffffffffffffff021916908373ffffffffffffffffffffffffffffffffffffffff1602179055508173ffffffffffffffffffffffffffffffffffffffff168173ffffffffffffffffffffffffffffffffffffffff167f8be0079c531659141344cd1fd0a4f28419497f9722a3daafe3b4186f6b6457e060405160405180910390a35050565b600080fd5b600073ffffffffffffffffffffffffffffffffffffffff82169050919050565b6000620002318262000204565b9050919050565b620002438162000224565b81146200024f57600080fd5b50565b600081519050620002638162000238565b92915050565b600060208284031215620002825762000281620001ff565b5b6000620002928482850162000252565b91505092915050565b600081519050919050565b7f4e487b7100000000000000000000000000000000000000000000000000000000600052604160045260246000fd5b7f4e487b7100000000000000000000000000000000000000000000000000000000600052602260045260246000fd5b600060028204905060018216806200031d57607f821691505b602082108103620003335762000332620002d5565b5b50919050565b60008190508160005260206000209050919050565b60006020601f8301049050919050565b600082821b905092915050565b6000600883026200039d7fffffffffffffffffffffffffffffffffffffffffffffffffffffffffffffffff826200035e565b620003a986836200035e565b95508019841693508086168417925050509392505050565b6000819050919050565b6000819050919050565b6000620003f6620003f0620003ea84620003c1565b620003cb565b620003c1565b9050919050565b6000819050919050565b6200041283620003d5565b6200042a6200042182620003fd565b8484546200036b565b825550505050565b600090565b6200044162000432565b6200044e81848462000407565b505050565b5b8181101562000476576200046a60008262000437565b60018101905062000454565b5050565b601f821115620004c5576200048f8162000339565b6200049a846200034e565b81016020851015620004aa578190505b620004c2620004b9856200034e565b83018262000453565b50505b505050565b600082821c905092915050565b6000620004ea60001984600802620004ca565b1980831691505092915050565b6000620005058383620004d7565b9150826002028217905092915050565b62000520826200029b565b67ffffffffffffffff8111156200053c576200053b620002a6565b5b62000548825462000304565b620005558282856200047a565b600060209050601f8311600181146200058d576000841562000578578287015190505b620005848582620004f7565b865550620005f4565b601f1984166200059d8662000339565b60005b82811015620005c757848901518255600182019150602085019450602081019050620005a0565b86831015620005e75784890151620005e3601f891682620004d7565b8355505b6001600288020188555050505b505050505050565b613e3c806200060c6000396000f3fe608060405234801561001057600080fd5b50600436106101585760003560e01c8063715018a6116100c3578063b88d4fde1161007c578063b88d4fde146103db578063bfb5b620146103f7578063c87b56dd14610427578063d309866414610457578063e985e9c514610487578063f2fde38b146104b757610158565b8063715018a61461033d5780638da5cb5b1461034757806395d89b4114610365578063986f5be2146103835780639d76ea58146103a1578063a22cb465146103bf57610158565b806323b872dd1161011557806323b872dd14610245578063426fb6391461026157806342842e0e1461029157806344d3498a146102ad5780636352211e146102dd57806370a082311461030d57610158565b806301ffc9a71461015d578063057dfcb11461018d57806306fdde03146101bd578063081812fc146101db578063095ea7b31461020b57806312065fe014610227575b600080fd5b61017760048036038101906101729190612735565b6104d3565b604051610184919061277d565b60405180910390f35b6101a760048036038101906101a291906127ce565b6105b5565b6040516101b49190612958565b60405180910390f35b6101c5610770565b6040516101d291906129c4565b60405180910390f35b6101f560048036038101906101f091906127ce565b610802565b60405161020291906129f5565b60405180910390f35b61022560048036038101906102209190612a3c565b610848565b005b61022f61095f565b60405161023c9190612a8b565b60405180910390f35b61025f600480360381019061025a9190612aa6565b610a02565b005b61027b600480360381019061027691906127ce565b610a62565b6040516102889190612ba8565b60405180910390f35b6102ab60048036038101906102a69190612aa6565b610b03565b005b6102c760048036038101906102c29190612bca565b610b23565b6040516102d4919061277d565b60405180910390f35b6102f760048036038101906102f291906127ce565b610b62565b60405161030491906129f5565b60405180910390f35b61032760048036038101906103229190612c0a565b610be8565b6040516103349190612a8b565b60405180910390f35b610345610c9f565b005b61034f610cb3565b60405161035c91906129f5565b60405180910390f35b61036d610cdd565b60405161037a91906129c4565b60405180910390f35b61038b610d6f565b6040516103989190612a8b565b60405180910390f35b6103a9610d80565b6040516103b69190612c96565b60405180910390f35b6103d960048036038101906103d49190612cdd565b610da6565b005b6103f560048036038101906103f09190612e52565b610dbc565b005b610411600480360381019061040c9190612f76565b610e1e565b60405161041e919061277d565b60405180910390f35b610441600480360381019061043c91906127ce565b610fa3565b60405161044e91906129c4565b60405180910390f35b610471600480360381019061046c9190613015565b61100b565b60405161047e9190612958565b60405180910390f35b6104a1600480360381019061049c9190613068565b611517565b6040516104ae919061277d565b60405180910390f35b6104d160048036038101906104cc9190612c0a565b6115ab565b005b60007f80ac58cd000000000000000000000000000000000000000000000000000000007bffffffffffffffffffffffffffffffffffffffffffffffffffffffff1916827bffffffffffffffffffffffffffffffffffffffffffffffffffffffff1916148061059e57507f5b5e139f000000000000000000000000000000000000000000000000000000007bffffffffffffffffffffffffffffffffffffffffffffffffffffffff1916827bffffffffffffffffffffffffffffffffffffffffffffffffffffffff1916145b806105ae57506105ad8261162e565b5b9050919050565b6105bd612684565b600960008381526020019081526020016000206040518060a00160405290816000820180546105eb906130d7565b80601f0160208091040260200160405190810160405280929190818152602001828054610617906130d7565b80156106645780601f1061063957610100808354040283529160200191610664565b820191906000526020600020905b81548152906001019060200180831161064757829003601f168201915b5050505050815260200160018201805461067d906130d7565b80601f01602080910402602001604051908101604052809291908181526020018280546106a9906130d7565b80156106f65780601f106106cb576101008083540402835291602001916106f6565b820191906000526020600020905b8154815290600101906020018083116106d957829003601f168201915b505050505081526020016002820160009054906101000a900473ffffffffffffffffffffffffffffffffffffffff1673ffffffffffffffffffffffffffffffffffffffff1673ffffffffffffffffffffffffffffffffffffffff168152602001600382015481526020016004820154815250509050919050565b60606000805461077f906130d7565b80601f01602080910402602001604051908101604052809291908181526020018280546107ab906130d7565b80156107f85780601f106107cd576101008083540402835291602001916107f8565b820191906000526020600020905b8154815290600101906020018083116107db57829003601f168201915b5050505050905090565b600061080d82611698565b6004600083815260200190815260200160002060009054906101000a900473ffffffffffffffffffffffffffffffffffffffff169050919050565b600061085382610b62565b90508073ffffffffffffffffffffffffffffffffffffffff168373ffffffffffffffffffffffffffffffffffffffff16036108c3576040517f08c379a00000000000000000000000000000000000000000000000000000000081526004016108ba9061317a565b60405180910390fd5b8073ffffffffffffffffffffffffffffffffffffffff166108e26116e3565b73ffffffffffffffffffffffffffffffffffffffff16148061091157506109108161090b6116e3565b611517565b5b610950576040517f08c379a00000000000000000000000000000000000000000000000000000000081526004016109479061320c565b60405180910390fd5b61095a83836116eb565b505050565b6000600760009054906101000a900473ffffffffffffffffffffffffffffffffffffffff1673ffffffffffffffffffffffffffffffffffffffff166370a08231306040518263ffffffff1660e01b81526004016109bc91906129f5565b602060405180830381865afa1580156109d9573d6000803e3d6000fd5b505050506040513d601f19601f820116820180604052508101906109fd9190613241565b905090565b610a13610a0d6116e3565b826117a4565b610a52576040517f08c379a0000000000000000000000000000000000000000000000000000000008152600401610a49906132e0565b60405180910390fd5b610a5d838383611839565b505050565b606060086000838152602001908152602001600020805480602002602001604051908101604052809291908181526020018280548015610af757602002820191906000526020600020905b8160009054906101000a900473ffffffffffffffffffffffffffffffffffffffff1673ffffffffffffffffffffffffffffffffffffffff1681526020019060010190808311610aad575b50505050509050919050565b610b1e83838360405180602001604052806000815250610dbc565b505050565b600080600960008581526020019081526020016000209050670de0b6b3a764000083610b4f919061332f565b8160030181905550600191505092915050565b600080610b6e83611b32565b9050600073ffffffffffffffffffffffffffffffffffffffff168173ffffffffffffffffffffffffffffffffffffffff1603610bdf576040517f08c379a0000000000000000000000000000000000000000000000000000000008152600401610bd6906133bd565b60405180910390fd5b80915050919050565b60008073ffffffffffffffffffffffffffffffffffffffff168273ffffffffffffffffffffffffffffffffffffffff1603610c58576040517f08c379a0000000000000000000000000000000000000000000000000000000008152600401610c4f9061344f565b60405180910390fd5b600360008373ffffffffffffffffffffffffffffffffffffffff1673ffffffffffffffffffffffffffffffffffffffff168152602001908152602001600020549050919050565b610ca7611b6f565b610cb16000611bed565b565b6000600660009054906101000a900473ffffffffffffffffffffffffffffffffffffffff16905090565b606060018054610cec906130d7565b80601f0160208091040260200160405190810160405280929190818152602001828054610d18906130d7565b8015610d655780601f10610d3a57610100808354040283529160200191610d65565b820191906000526020600020905b815481529060010190602001808311610d4857829003601f168201915b5050505050905090565b6000610d7b600a611cb3565b905090565b600760009054906101000a900473ffffffffffffffffffffffffffffffffffffffff1681565b610db8610db16116e3565b8383611cc1565b5050565b610dcd610dc76116e3565b836117a4565b610e0c576040517f08c379a0000000000000000000000000000000000000000000000000000000008152600401610e03906132e0565b60405180910390fd5b610e1884848484611e2d565b50505050565b6000610e2a600a611e89565b6000610e36600a611cb3565b905060006040518060a001604052808781526020018681526020018873ffffffffffffffffffffffffffffffffffffffff168152602001858152602001838152509050610e838783611e9f565b80600960008481526020019081526020016000206000820151816000019081610eac9190613611565b506020820151816001019081610ec29190613611565b5060408201518160020160006101000a81548173ffffffffffffffffffffffffffffffffffffffff021916908373ffffffffffffffffffffffffffffffffffffffff160217905550606082015181600301556080820151816004015590505060086000838152602001908152602001600020879080600181540180825580915050600190039060005260206000200160009091909190916101000a81548173ffffffffffffffffffffffffffffffffffffffff021916908373ffffffffffffffffffffffffffffffffffffffff160217905550600192505050949350505050565b6060610fae82611698565b6000610fb8611ebd565b90506000815111610fd85760405180602001604052806000815250611003565b80610fe284611ed4565b604051602001610ff392919061371f565b6040516020818303038152906040525b915050919050565b611013612684565b6000600960008681526020019081526020016000206040518060a0016040529081600082018054611043906130d7565b80601f016020809104026020016040519081016040528092919081815260200182805461106f906130d7565b80156110bc5780601f10611091576101008083540402835291602001916110bc565b820191906000526020600020905b81548152906001019060200180831161109f57829003601f168201915b505050505081526020016001820180546110d5906130d7565b80601f0160208091040260200160405190810160405280929190818152602001828054611101906130d7565b801561114e5780601f106111235761010080835404028352916020019161114e565b820191906000526020600020905b81548152906001019060200180831161113157829003601f168201915b505050505081526020016002820160009054906101000a900473ffffffffffffffffffffffffffffffffffffffff1673ffffffffffffffffffffffffffffffffffffffff1673ffffffffffffffffffffffffffffffffffffffff1681526020016003820154815260200160048201548152505090508060600151600760009054906101000a900473ffffffffffffffffffffffffffffffffffffffff1673ffffffffffffffffffffffffffffffffffffffff166370a08231866040518263ffffffff1660e01b815260040161122391906129f5565b602060405180830381865afa158015611240573d6000803e3d6000fd5b505050506040513d601f19601f820116820180604052508101906112649190613241565b10156112a5576040517f08c379a000000000000000000000000000000000000000000000000000000000815260040161129c9061378f565b60405180910390fd5b8273ffffffffffffffffffffffffffffffffffffffff16816040015173ffffffffffffffffffffffffffffffffffffffff1614611317576040517f08c379a000000000000000000000000000000000000000000000000000000000815260040161130e906137fb565b60405180910390fd5b600760009054906101000a900473ffffffffffffffffffffffffffffffffffffffff1673ffffffffffffffffffffffffffffffffffffffff166323b872dd85836040015184606001516040518463ffffffff1660e01b815260040161137e9392919061381b565b6020604051808303816000875af115801561139d573d6000803e3d6000fd5b505050506040513d601f19601f820116820180604052508101906113c19190613867565b5083816040019073ffffffffffffffffffffffffffffffffffffffff16908173ffffffffffffffffffffffffffffffffffffffff1681525050806009600087815260200190815260200160002060008201518160000190816114239190613611565b5060208201518160010190816114399190613611565b5060408201518160020160006101000a81548173ffffffffffffffffffffffffffffffffffffffff021916908373ffffffffffffffffffffffffffffffffffffffff160217905550606082015181600301556080820151816004015590505060086000868152602001908152602001600020849080600181540180825580915050600190039060005260206000200160009091909190916101000a81548173ffffffffffffffffffffffffffffffffffffffff021916908373ffffffffffffffffffffffffffffffffffffffff160217905550809150509392505050565b6000600560008473ffffffffffffffffffffffffffffffffffffffff1673ffffffffffffffffffffffffffffffffffffffff16815260200190815260200160002060008373ffffffffffffffffffffffffffffffffffffffff1673ffffffffffffffffffffffffffffffffffffffff16815260200190815260200160002060009054906101000a900460ff16905092915050565b6115b3611b6f565b600073ffffffffffffffffffffffffffffffffffffffff168173ffffffffffffffffffffffffffffffffffffffff1603611622576040517f08c379a000000000000000000000000000000000000000000000000000000000815260040161161990613906565b60405180910390fd5b61162b81611bed565b50565b60007f01ffc9a7000000000000000000000000000000000000000000000000000000007bffffffffffffffffffffffffffffffffffffffffffffffffffffffff1916827bffffffffffffffffffffffffffffffffffffffffffffffffffffffff1916149050919050565b6116a181611fa2565b6116e0576040517f08c379a00000000000000000000000000000000000000000000000000000000081526004016116d7906133bd565b60405180910390fd5b50565b600033905090565b816004600083815260200190815260200160002060006101000a81548173ffffffffffffffffffffffffffffffffffffffff021916908373ffffffffffffffffffffffffffffffffffffffff160217905550808273ffffffffffffffffffffffffffffffffffffffff1661175e83610b62565b73ffffffffffffffffffffffffffffffffffffffff167f8c5be1e5ebec7d5bd14f71427d1e84f3dd0314c0f7b2291e5b200ac8c7c3b92560405160405180910390a45050565b6000806117b083610b62565b90508073ffffffffffffffffffffffffffffffffffffffff168473ffffffffffffffffffffffffffffffffffffffff1614806117f257506117f18185611517565b5b8061183057508373ffffffffffffffffffffffffffffffffffffffff1661181884610802565b73ffffffffffffffffffffffffffffffffffffffff16145b91505092915050565b8273ffffffffffffffffffffffffffffffffffffffff1661185982610b62565b73ffffffffffffffffffffffffffffffffffffffff16146118af576040517f08c379a00000000000000000000000000000000000000000000000000000000081526004016118a690613998565b60405180910390fd5b600073ffffffffffffffffffffffffffffffffffffffff168273ffffffffffffffffffffffffffffffffffffffff160361191e576040517f08c379a000000000000000000000000000000000000000000000000000000000815260040161191590613a2a565b60405180910390fd5b61192b8383836001611fe3565b8273ffffffffffffffffffffffffffffffffffffffff1661194b82610b62565b73ffffffffffffffffffffffffffffffffffffffff16146119a1576040517f08c379a000000000000000000000000000000000000000000000000000000000815260040161199890613998565b60405180910390fd5b6004600082815260200190815260200160002060006101000a81549073ffffffffffffffffffffffffffffffffffffffff02191690556001600360008573ffffffffffffffffffffffffffffffffffffffff1673ffffffffffffffffffffffffffffffffffffffff168152602001908152602001600020600082825403925050819055506001600360008473ffffffffffffffffffffffffffffffffffffffff1673ffffffffffffffffffffffffffffffffffffffff16815260200190815260200160002060008282540192505081905550816002600083815260200190815260200160002060006101000a81548173ffffffffffffffffffffffffffffffffffffffff021916908373ffffffffffffffffffffffffffffffffffffffff160217905550808273ffffffffffffffffffffffffffffffffffffffff168473ffffffffffffffffffffffffffffffffffffffff167fddf252ad1be2c89b69c2b068fc378daa952ba7f163c4a11628f55a4df523b3ef60405160405180910390a4611b2d8383836001612109565b505050565b60006002600083815260200190815260200160002060009054906101000a900473ffffffffffffffffffffffffffffffffffffffff169050919050565b611b776116e3565b73ffffffffffffffffffffffffffffffffffffffff16611b95610cb3565b73ffffffffffffffffffffffffffffffffffffffff1614611beb576040517f08c379a0000000000000000000000000000000000000000000000000000000008152600401611be290613a96565b60405180910390fd5b565b6000600660009054906101000a900473ffffffffffffffffffffffffffffffffffffffff16905081600660006101000a81548173ffffffffffffffffffffffffffffffffffffffff021916908373ffffffffffffffffffffffffffffffffffffffff1602179055508173ffffffffffffffffffffffffffffffffffffffff168173ffffffffffffffffffffffffffffffffffffffff167f8be0079c531659141344cd1fd0a4f28419497f9722a3daafe3b4186f6b6457e060405160405180910390a35050565b600081600001549050919050565b8173ffffffffffffffffffffffffffffffffffffffff168373ffffffffffffffffffffffffffffffffffffffff1603611d2f576040517f08c379a0000000000000000000000000000000000000000000000000000000008152600401611d2690613b02565b60405180910390fd5b80600560008573ffffffffffffffffffffffffffffffffffffffff1673ffffffffffffffffffffffffffffffffffffffff16815260200190815260200160002060008473ffffffffffffffffffffffffffffffffffffffff1673ffffffffffffffffffffffffffffffffffffffff16815260200190815260200160002060006101000a81548160ff0219169083151502179055508173ffffffffffffffffffffffffffffffffffffffff168373ffffffffffffffffffffffffffffffffffffffff167f17307eab39ab6107e8899845ad3d59bd9653f200f220920489ca2b5937696c3183604051611e20919061277d565b60405180910390a3505050565b611e38848484611839565b611e448484848461210f565b611e83576040517f08c379a0000000000000000000000000000000000000000000000000000000008152600401611e7a90613b94565b60405180910390fd5b50505050565b6001816000016000828254019250508190555050565b611eb9828260405180602001604052806000815250612296565b5050565b606060405180602001604052806000815250905090565b606060006001611ee3846122f1565b01905060008167ffffffffffffffff811115611f0257611f01612d27565b5b6040519080825280601f01601f191660200182016040528015611f345781602001600182028036833780820191505090505b509050600082602001820190505b600115611f97578080600190039150507f3031323334353637383961626364656600000000000000000000000000000000600a86061a8153600a8581611f8b57611f8a613bb4565b5b04945060008503611f42575b819350505050919050565b60008073ffffffffffffffffffffffffffffffffffffffff16611fc483611b32565b73ffffffffffffffffffffffffffffffffffffffff1614159050919050565b600181111561210357600073ffffffffffffffffffffffffffffffffffffffff168473ffffffffffffffffffffffffffffffffffffffff16146120775780600360008673ffffffffffffffffffffffffffffffffffffffff1673ffffffffffffffffffffffffffffffffffffffff168152602001908152602001600020600082825461206f9190613be3565b925050819055505b600073ffffffffffffffffffffffffffffffffffffffff168373ffffffffffffffffffffffffffffffffffffffff16146121025780600360008573ffffffffffffffffffffffffffffffffffffffff1673ffffffffffffffffffffffffffffffffffffffff16815260200190815260200160002060008282546120fa9190613c17565b925050819055505b5b50505050565b50505050565b60006121308473ffffffffffffffffffffffffffffffffffffffff16612444565b15612289578373ffffffffffffffffffffffffffffffffffffffff1663150b7a026121596116e3565b8786866040518563ffffffff1660e01b815260040161217b9493929190613ca0565b6020604051808303816000875af19250505080156121b757506040513d601f19601f820116820180604052508101906121b49190613d01565b60015b612239573d80600081146121e7576040519150601f19603f3d011682016040523d82523d6000602084013e6121ec565b606091505b506000815103612231576040517f08c379a000000000000000000000000000000000000000000000000000000000815260040161222890613b94565b60405180910390fd5b805181602001fd5b63150b7a0260e01b7bffffffffffffffffffffffffffffffffffffffffffffffffffffffff1916817bffffffffffffffffffffffffffffffffffffffffffffffffffffffff19161491505061228e565b600190505b949350505050565b6122a08383612467565b6122ad600084848461210f565b6122ec576040517f08c379a00000000000000000000000000000000000000000000000000000000081526004016122e390613b94565b60405180910390fd5b505050565b600080600090507a184f03e93ff9f4daa797ed6e38ed64bf6a1f010000000000000000831061234f577a184f03e93ff9f4daa797ed6e38ed64bf6a1f010000000000000000838161234557612344613bb4565b5b0492506040810190505b6d04ee2d6d415b85acef8100000000831061238c576d04ee2d6d415b85acef8100000000838161238257612381613bb4565b5b0492506020810190505b662386f26fc1000083106123bb57662386f26fc1000083816123b1576123b0613bb4565b5b0492506010810190505b6305f5e10083106123e4576305f5e10083816123da576123d9613bb4565b5b0492506008810190505b61271083106124095761271083816123ff576123fe613bb4565b5b0492506004810190505b6064831061242c576064838161242257612421613bb4565b5b0492506002810190505b600a831061243b576001810190505b80915050919050565b6000808273ffffffffffffffffffffffffffffffffffffffff163b119050919050565b600073ffffffffffffffffffffffffffffffffffffffff168273ffffffffffffffffffffffffffffffffffffffff16036124d6576040517f08c379a00000000000000000000000000000000000000000000000000000000081526004016124cd90613d7a565b60405180910390fd5b6124df81611fa2565b1561251f576040517f08c379a000000000000000000000000000000000000000000000000000000000815260040161251690613de6565b60405180910390fd5b61252d600083836001611fe3565b61253681611fa2565b15612576576040517f08c379a000000000000000000000000000000000000000000000000000000000815260040161256d90613de6565b60405180910390fd5b6001600360008473ffffffffffffffffffffffffffffffffffffffff1673ffffffffffffffffffffffffffffffffffffffff16815260200190815260200160002060008282540192505081905550816002600083815260200190815260200160002060006101000a81548173ffffffffffffffffffffffffffffffffffffffff021916908373ffffffffffffffffffffffffffffffffffffffff160217905550808273ffffffffffffffffffffffffffffffffffffffff16600073ffffffffffffffffffffffffffffffffffffffff167fddf252ad1be2c89b69c2b068fc378daa952ba7f163c4a11628f55a4df523b3ef60405160405180910390a4612680600083836001612109565b5050565b6040518060a001604052806060815260200160608152602001600073ffffffffffffffffffffffffffffffffffffffff16815260200160008152602001600081525090565b6000604051905090565b600080fd5b600080fd5b60007fffffffff0000000000000000000000000000000000000000000000000000000082169050919050565b612712816126dd565b811461271d57600080fd5b50565b60008135905061272f81612709565b92915050565b60006020828403121561274b5761274a6126d3565b5b600061275984828501612720565b91505092915050565b60008115159050919050565b61277781612762565b82525050565b6000602082019050612792600083018461276e565b92915050565b6000819050919050565b6127ab81612798565b81146127b657600080fd5b50565b6000813590506127c8816127a2565b92915050565b6000602082840312156127e4576127e36126d3565b5b60006127f2848285016127b9565b91505092915050565b600081519050919050565b600082825260208201905092915050565b60005b8381101561283557808201518184015260208101905061281a565b60008484015250505050565b6000601f19601f8301169050919050565b600061285d826127fb565b6128678185612806565b9350612877818560208601612817565b61288081612841565b840191505092915050565b600073ffffffffffffffffffffffffffffffffffffffff82169050919050565b60006128b68261288b565b9050919050565b6128c6816128ab565b82525050565b6128d581612798565b82525050565b600060a08301600083015184820360008601526128f88282612852565b915050602083015184820360208601526129128282612852565b915050604083015161292760408601826128bd565b50606083015161293a60608601826128cc565b50608083015161294d60808601826128cc565b508091505092915050565b6000602082019050818103600083015261297281846128db565b905092915050565b600082825260208201905092915050565b6000612996826127fb565b6129a0818561297a565b93506129b0818560208601612817565b6129b981612841565b840191505092915050565b600060208201905081810360008301526129de818461298b565b905092915050565b6129ef816128ab565b82525050565b6000602082019050612a0a60008301846129e6565b92915050565b612a19816128ab565b8114612a2457600080fd5b50565b600081359050612a3681612a10565b92915050565b60008060408385031215612a5357612a526126d3565b5b6000612a6185828601612a27565b9250506020612a72858286016127b9565b9150509250929050565b612a8581612798565b82525050565b6000602082019050612aa06000830184612a7c565b92915050565b600080600060608486031215612abf57612abe6126d3565b5b6000612acd86828701612a27565b9350506020612ade86828701612a27565b9250506040612aef868287016127b9565b9150509250925092565b600081519050919050565b600082825260208201905092915050565b6000819050602082019050919050565b6000612b3183836128bd565b60208301905092915050565b6000602082019050919050565b6000612b5582612af9565b612b5f8185612b04565b9350612b6a83612b15565b8060005b83811015612b9b578151612b828882612b25565b9750612b8d83612b3d565b925050600181019050612b6e565b5085935050505092915050565b60006020820190508181036000830152612bc28184612b4a565b905092915050565b60008060408385031215612be157612be06126d3565b5b6000612bef858286016127b9565b9250506020612c00858286016127b9565b9150509250929050565b600060208284031215612c2057612c1f6126d3565b5b6000612c2e84828501612a27565b91505092915050565b6000819050919050565b6000612c5c612c57612c528461288b565b612c37565b61288b565b9050919050565b6000612c6e82612c41565b9050919050565b6000612c8082612c63565b9050919050565b612c9081612c75565b82525050565b6000602082019050612cab6000830184612c87565b92915050565b612cba81612762565b8114612cc557600080fd5b50565b600081359050612cd781612cb1565b92915050565b60008060408385031215612cf457612cf36126d3565b5b6000612d0285828601612a27565b9250506020612d1385828601612cc8565b9150509250929050565b600080fd5b600080fd5b7f4e487b7100000000000000000000000000000000000000000000000000000000600052604160045260246000fd5b612d5f82612841565b810181811067ffffffffffffffff82111715612d7e57612d7d612d27565b5b80604052505050565b6000612d916126c9565b9050612d9d8282612d56565b919050565b600067ffffffffffffffff821115612dbd57612dbc612d27565b5b612dc682612841565b9050602081019050919050565b82818337600083830152505050565b6000612df5612df084612da2565b612d87565b905082815260208101848484011115612e1157612e10612d22565b5b612e1c848285612dd3565b509392505050565b600082601f830112612e3957612e38612d1d565b5b8135612e49848260208601612de2565b91505092915050565b60008060008060808587031215612e6c57612e6b6126d3565b5b6000612e7a87828801612a27565b9450506020612e8b87828801612a27565b9350506040612e9c878288016127b9565b925050606085013567ffffffffffffffff811115612ebd57612ebc6126d8565b5b612ec987828801612e24565b91505092959194509250565b600067ffffffffffffffff821115612ef057612eef612d27565b5b612ef982612841565b9050602081019050919050565b6000612f19612f1484612ed5565b612d87565b905082815260208101848484011115612f3557612f34612d22565b5b612f40848285612dd3565b509392505050565b600082601f830112612f5d57612f5c612d1d565b5b8135612f6d848260208601612f06565b91505092915050565b60008060008060808587031215612f9057612f8f6126d3565b5b6000612f9e87828801612a27565b945050602085013567ffffffffffffffff811115612fbf57612fbe6126d8565b5b612fcb87828801612f48565b935050604085013567ffffffffffffffff811115612fec57612feb6126d8565b5b612ff887828801612f48565b9250506060613009878288016127b9565b91505092959194509250565b60008060006060848603121561302e5761302d6126d3565b5b600061303c868287016127b9565b935050602061304d86828701612a27565b925050604061305e86828701612a27565b9150509250925092565b6000806040838503121561307f5761307e6126d3565b5b600061308d85828601612a27565b925050602061309e85828601612a27565b9150509250929050565b7f4e487b7100000000000000000000000000000000000000000000000000000000600052602260045260246000fd5b600060028204905060018216806130ef57607f821691505b602082108103613102576131016130a8565b5b50919050565b7f4552433732313a20617070726f76616c20746f2063757272656e74206f776e6560008201527f7200000000000000000000000000000000000000000000000000000000000000602082015250565b600061316460218361297a565b915061316f82613108565b604082019050919050565b6000602082019050818103600083015261319381613157565b9050919050565b7f4552433732313a20617070726f76652063616c6c6572206973206e6f7420746f60008201527f6b656e206f776e6572206f7220617070726f76656420666f7220616c6c000000602082015250565b60006131f6603d8361297a565b91506132018261319a565b604082019050919050565b60006020820190508181036000830152613225816131e9565b9050919050565b60008151905061323b816127a2565b92915050565b600060208284031215613257576132566126d3565b5b60006132658482850161322c565b91505092915050565b7f4552433732313a2063616c6c6572206973206e6f7420746f6b656e206f776e6560008201527f72206f7220617070726f76656400000000000000000000000000000000000000602082015250565b60006132ca602d8361297a565b91506132d58261326e565b604082019050919050565b600060208201905081810360008301526132f9816132bd565b9050919050565b7f4e487b7100000000000000000000000000000000000000000000000000000000600052601160045260246000fd5b600061333a82612798565b915061334583612798565b925082820261335381612798565b9150828204841483151761336a57613369613300565b5b5092915050565b7f4552433732313a20696e76616c696420746f6b656e2049440000000000000000600082015250565b60006133a760188361297a565b91506133b282613371565b602082019050919050565b600060208201905081810360008301526133d68161339a565b9050919050565b7f4552433732313a2061646472657373207a65726f206973206e6f74206120766160008201527f6c6964206f776e65720000000000000000000000000000000000000000000000602082015250565b600061343960298361297a565b9150613444826133dd565b604082019050919050565b600060208201905081810360008301526134688161342c565b9050919050565b60008190508160005260206000209050919050565b60006020601f8301049050919050565b600082821b905092915050565b6000600883026134d17fffffffffffffffffffffffffffffffffffffffffffffffffffffffffffffffff82613494565b6134db8683613494565b95508019841693508086168417925050509392505050565b600061350e61350961350484612798565b612c37565b612798565b9050919050565b6000819050919050565b613528836134f3565b61353c61353482613515565b8484546134a1565b825550505050565b600090565b613551613544565b61355c81848461351f565b505050565b5b8181101561358057613575600082613549565b600181019050613562565b5050565b601f8211156135c5576135968161346f565b61359f84613484565b810160208510156135ae578190505b6135c26135ba85613484565b830182613561565b50505b505050565b600082821c905092915050565b60006135e8600019846008026135ca565b1980831691505092915050565b600061360183836135d7565b9150826002028217905092915050565b61361a826127fb565b67ffffffffffffffff81111561363357613632612d27565b5b61363d82546130d7565b613648828285613584565b600060209050601f83116001811461367b5760008415613669578287015190505b61367385826135f5565b8655506136db565b601f1984166136898661346f565b60005b828110156136b15784890151825560018201915060208501945060208101905061368c565b868310156136ce57848901516136ca601f8916826135d7565b8355505b6001600288020188555050505b505050505050565b600081905092915050565b60006136f9826127fb565b61370381856136e3565b9350613713818560208601612817565b80840191505092915050565b600061372b82856136ee565b915061373782846136ee565b91508190509392505050565b7f496e73756666696369656e742042616c616e6365000000000000000000000000600082015250565b600061377960148361297a565b915061378482613743565b602082019050919050565b600060208201905081810360008301526137a88161376c565b9050919050565b7f496e636f72726563742046726f6d206f776e6572000000000000000000000000600082015250565b60006137e560148361297a565b91506137f0826137af565b602082019050919050565b60006020820190508181036000830152613814816137d8565b9050919050565b600060608201905061383060008301866129e6565b61383d60208301856129e6565b61384a6040830184612a7c565b949350505050565b60008151905061386181612cb1565b92915050565b60006020828403121561387d5761387c6126d3565b5b600061388b84828501613852565b91505092915050565b7f4f776e61626c653a206e6577206f776e657220697320746865207a65726f206160008201527f6464726573730000000000000000000000000000000000000000000000000000602082015250565b60006138f060268361297a565b91506138fb82613894565b604082019050919050565b6000602082019050818103600083015261391f816138e3565b9050919050565b7f4552433732313a207472616e736665722066726f6d20696e636f72726563742060008201527f6f776e6572000000000000000000000000000000000000000000000000000000602082015250565b600061398260258361297a565b915061398d82613926565b604082019050919050565b600060208201905081810360008301526139b181613975565b9050919050565b7f4552433732313a207472616e7366657220746f20746865207a65726f2061646460008201527f7265737300000000000000000000000000000000000000000000000000000000602082015250565b6000613a1460248361297a565b9150613a1f826139b8565b604082019050919050565b60006020820190508181036000830152613a4381613a07565b9050919050565b7f4f776e61626c653a2063616c6c6572206973206e6f7420746865206f776e6572600082015250565b6000613a8060208361297a565b9150613a8b82613a4a565b602082019050919050565b60006020820190508181036000830152613aaf81613a73565b9050919050565b7f4552433732313a20617070726f766520746f2063616c6c657200000000000000600082015250565b6000613aec60198361297a565b9150613af782613ab6565b602082019050919050565b60006020820190508181036000830152613b1b81613adf565b9050919050565b7f4552433732313a207472616e7366657220746f206e6f6e20455243373231526560008201527f63656976657220696d706c656d656e7465720000000000000000000000000000602082015250565b6000613b7e60328361297a565b9150613b8982613b22565b604082019050919050565b60006020820190508181036000830152613bad81613b71565b9050919050565b7f4e487b7100000000000000000000000000000000000000000000000000000000600052601260045260246000fd5b6000613bee82612798565b9150613bf983612798565b9250828203905081811115613c1157613c10613300565b5b92915050565b6000613c2282612798565b9150613c2d83612798565b9250828201905080821115613c4557613c44613300565b5b92915050565b600081519050919050565b600082825260208201905092915050565b6000613c7282613c4b565b613c7c8185613c56565b9350613c8c818560208601612817565b613c9581612841565b840191505092915050565b6000608082019050613cb560008301876129e6565b613cc260208301866129e6565b613ccf6040830185612a7c565b8181036060830152613ce18184613c67565b905095945050505050565b600081519050613cfb81612709565b92915050565b600060208284031215613d1757613d166126d3565b5b6000613d2584828501613cec565b91505092915050565b7f4552433732313a206d696e7420746f20746865207a65726f2061646472657373600082015250565b6000613d6460208361297a565b9150613d6f82613d2e565b602082019050919050565b60006020820190508181036000830152613d9381613d57565b9050919050565b7f4552433732313a20746f6b656e20616c7265616479206d696e74656400000000600082015250565b6000613dd0601c8361297a565b9150613ddb82613d9a565b602082019050919050565b60006020820190508181036000830152613dff81613dc3565b905091905056fea26469706673582212202a1a7e3f10fc796285a2c14055b40017fb2c39552ff3b6f4aecc5bf8d37a5bd964736f6c63430008110033",
  "immutableReferences": {},
  "source": "// SPDX-License-Identifier: MIT\r\n\r\npragma solidity ^0.8.0;\r\n\r\nimport \"@openzeppelin/contracts/token/ERC20/IERC20.sol\";\r\nimport \"@openzeppelin/contracts/token/ERC721/IERC721.sol\";\r\nimport \"@openzeppelin/contracts/token/ERC721/ERC721.sol\";\r\nimport \"@openzeppelin/contracts/access/Ownable.sol\";\r\nimport \"@openzeppelin/contracts/utils/Counters.sol\";\r\n\r\ncontract MyNft is ERC721, Ownable {\r\n    using Counters for Counters.Counter;\r\n    IERC20 public tokenAddress;\r\n\r\n    struct Product {\r\n        string name;\r\n        string description;\r\n        address owner;\r\n        uint256 price;\r\n        uint256 tokenid;\r\n    }\r\n\r\n    mapping(uint256 => address[]) OwnerList;\r\n\r\n    mapping(uint256 => Product) MintedNFT;\r\n\r\n    Counters.Counter private _tokenIdCounter;\r\n\r\n    constructor(address _tokenAddress) ERC721(\"MyNft\", \"MTX\") {\r\n        tokenAddress = IERC20(_tokenAddress);\r\n    }\r\n\r\n    function safeMint(\r\n        address _from,\r\n        string memory _name,\r\n        string memory _description,\r\n        uint256 _price\r\n    ) public returns (bool) {\r\n        _tokenIdCounter.increment();\r\n        uint256 tokenId = _tokenIdCounter.current();\r\n        Product memory product = Product({\r\n            name: _name,\r\n            description: _description,\r\n            price: _price,\r\n            owner: _from,\r\n            tokenid: tokenId\r\n        });\r\n        _safeMint(_from, tokenId);\r\n        MintedNFT[tokenId] = product;\r\n        OwnerList[tokenId].push(_from);\r\n        return true;\r\n    }\r\n\r\n    function setProductPrice(uint256 _tokenId, uint256 val)\r\n        external\r\n        returns (bool)\r\n    {\r\n        Product storage product = MintedNFT[_tokenId];\r\n        product.price = val * (10**18);\r\n        return true;\r\n    }\r\n\r\n    function getProductByTokenId(uint256 _tokenId)\r\n        external\r\n        view\r\n        returns (Product memory)\r\n    {\r\n        return MintedNFT[_tokenId];\r\n    }\r\n\r\n    function buyProductByTokenId(\r\n        uint256 _tokenId,\r\n        address _toownerAddress,\r\n        address _fromownerAddress\r\n    ) external returns (Product memory) {\r\n        Product memory product = MintedNFT[_tokenId];\r\n        require(\r\n            tokenAddress.balanceOf(_toownerAddress) >= product.price,\r\n            \"Insufficient Balance\"\r\n        );\r\n        require(product.owner == _fromownerAddress, \"Incorrect From owner\");\r\n        tokenAddress.transferFrom(\r\n            _toownerAddress,\r\n            product.owner,\r\n            product.price\r\n        );\r\n\r\n        product.owner = _toownerAddress;\r\n        MintedNFT[_tokenId] = product;\r\n        OwnerList[_tokenId].push(_toownerAddress);\r\n        return product;\r\n    }\r\n\r\n    function getOwnerHistoryByTokenId(uint256 _tokenId)\r\n        public\r\n        view\r\n        returns (address[] memory)\r\n    {\r\n        return OwnerList[_tokenId];\r\n    }\r\n\r\n    function getBalance() external view returns (uint256) {\r\n        return tokenAddress.balanceOf(address(this));\r\n    }\r\n\r\n    function getTotalNFTMinted() external view returns (uint256) {\r\n        return _tokenIdCounter.current();\r\n    }\r\n}\r\n",
  "sourcePath": "C:\\Users\\balam\\OneDrive\\Documents\\poc\\server\\contracts\\MyNft.sol",
  "compiler": {
    "name": "solc",
    "version": "0.8.17+commit.8df45f5f.Emscripten.clang"
  },
  "schemaVersion": "3.4.11",
  "updatedAt": "2023-01-13T11:31:04.794Z",
  "networkType": "ethereum",
  "devdoc": {
    "kind": "dev",
    "methods": {
      "approve(address,uint256)": {
        "details": "See {IERC721-approve}."
      },
      "balanceOf(address)": {
        "details": "See {IERC721-balanceOf}."
      },
      "getApproved(uint256)": {
        "details": "See {IERC721-getApproved}."
      },
      "isApprovedForAll(address,address)": {
        "details": "See {IERC721-isApprovedForAll}."
      },
      "name()": {
        "details": "See {IERC721Metadata-name}."
      },
      "owner()": {
        "details": "Returns the address of the current owner."
      },
      "ownerOf(uint256)": {
        "details": "See {IERC721-ownerOf}."
      },
      "renounceOwnership()": {
        "details": "Leaves the contract without owner. It will not be possible to call `onlyOwner` functions anymore. Can only be called by the current owner. NOTE: Renouncing ownership will leave the contract without an owner, thereby removing any functionality that is only available to the owner."
      },
      "safeTransferFrom(address,address,uint256)": {
        "details": "See {IERC721-safeTransferFrom}."
      },
      "safeTransferFrom(address,address,uint256,bytes)": {
        "details": "See {IERC721-safeTransferFrom}."
      },
      "setApprovalForAll(address,bool)": {
        "details": "See {IERC721-setApprovalForAll}."
      },
      "supportsInterface(bytes4)": {
        "details": "See {IERC165-supportsInterface}."
      },
      "symbol()": {
        "details": "See {IERC721Metadata-symbol}."
      },
      "tokenURI(uint256)": {
        "details": "See {IERC721Metadata-tokenURI}."
      },
      "transferFrom(address,address,uint256)": {
        "details": "See {IERC721-transferFrom}."
      },
      "transferOwnership(address)": {
        "details": "Transfers ownership of the contract to a new account (`newOwner`). Can only be called by the current owner."
      }
    },
    "version": 1
  },
  "userdoc": {
    "kind": "user",
    "methods": {},
    "version": 1
  }
}