{
  "contractName": "MyNft",
  "abi": [
    {
      "inputs": [
        {
          "internalType": "address",
          "name": "_tokenAddress",
          "type": "address"
        }
      ],
      "stateMutability": "nonpayable",
      "type": "constructor"
    },
    {
      "anonymous": false,
      "inputs": [
        {
          "indexed": true,
          "internalType": "address",
          "name": "owner",
          "type": "address"
        },
        {
          "indexed": true,
          "internalType": "address",
          "name": "approved",
          "type": "address"
        },
        {
          "indexed": true,
          "internalType": "uint256",
          "name": "tokenId",
          "type": "uint256"
        }
      ],
      "name": "Approval",
      "type": "event"
    },
    {
      "anonymous": false,
      "inputs": [
        {
          "indexed": true,
          "internalType": "address",
          "name": "owner",
          "type": "address"
        },
        {
          "indexed": true,
          "internalType": "address",
          "name": "operator",
          "type": "address"
        },
        {
          "indexed": false,
          "internalType": "bool",
          "name": "approved",
          "type": "bool"
        }
      ],
      "name": "ApprovalForAll",
      "type": "event"
    },
    {
      "anonymous": false,
      "inputs": [
        {
          "indexed": true,
          "internalType": "address",
          "name": "previousOwner",
          "type": "address"
        },
        {
          "indexed": true,
          "internalType": "address",
          "name": "newOwner",
          "type": "address"
        }
      ],
      "name": "OwnershipTransferred",
      "type": "event"
    },
    {
      "anonymous": false,
      "inputs": [
        {
          "indexed": true,
          "internalType": "address",
          "name": "from",
          "type": "address"
        },
        {
          "indexed": true,
          "internalType": "address",
          "name": "to",
          "type": "address"
        },
        {
          "indexed": true,
          "internalType": "uint256",
          "name": "tokenId",
          "type": "uint256"
        }
      ],
      "name": "Transfer",
      "type": "event"
    },
    {
      "inputs": [
        {
          "internalType": "address",
          "name": "to",
          "type": "address"
        },
        {
          "internalType": "uint256",
          "name": "tokenId",
          "type": "uint256"
        }
      ],
      "name": "approve",
      "outputs": [],
      "stateMutability": "nonpayable",
      "type": "function"
    },
    {
      "inputs": [
        {
          "internalType": "address",
          "name": "owner",
          "type": "address"
        }
      ],
      "name": "balanceOf",
      "outputs": [
        {
          "internalType": "uint256",
          "name": "",
          "type": "uint256"
        }
      ],
      "stateMutability": "view",
      "type": "function",
      "constant": true
    },
    {
      "inputs": [
        {
          "internalType": "uint256",
          "name": "tokenId",
          "type": "uint256"
        }
      ],
      "name": "getApproved",
      "outputs": [
        {
          "internalType": "address",
          "name": "",
          "type": "address"
        }
      ],
      "stateMutability": "view",
      "type": "function",
      "constant": true
    },
    {
      "inputs": [
        {
          "internalType": "address",
          "name": "owner",
          "type": "address"
        },
        {
          "internalType": "address",
          "name": "operator",
          "type": "address"
        }
      ],
      "name": "isApprovedForAll",
      "outputs": [
        {
          "internalType": "bool",
          "name": "",
          "type": "bool"
        }
      ],
      "stateMutability": "view",
      "type": "function",
      "constant": true
    },
    {
      "inputs": [],
      "name": "name",
      "outputs": [
        {
          "internalType": "string",
          "name": "",
          "type": "string"
        }
      ],
      "stateMutability": "view",
      "type": "function",
      "constant": true
    },
    {
      "inputs": [],
      "name": "owner",
      "outputs": [
        {
          "internalType": "address",
          "name": "",
          "type": "address"
        }
      ],
      "stateMutability": "view",
      "type": "function",
      "constant": true
    },
    {
      "inputs": [
        {
          "internalType": "uint256",
          "name": "tokenId",
          "type": "uint256"
        }
      ],
      "name": "ownerOf",
      "outputs": [
        {
          "internalType": "address",
          "name": "",
          "type": "address"
        }
      ],
      "stateMutability": "view",
      "type": "function",
      "constant": true
    },
    {
      "inputs": [],
      "name": "renounceOwnership",
      "outputs": [],
      "stateMutability": "nonpayable",
      "type": "function"
    },
    {
      "inputs": [
        {
          "internalType": "address",
          "name": "from",
          "type": "address"
        },
        {
          "internalType": "address",
          "name": "to",
          "type": "address"
        },
        {
          "internalType": "uint256",
          "name": "tokenId",
          "type": "uint256"
        }
      ],
      "name": "safeTransferFrom",
      "outputs": [],
      "stateMutability": "nonpayable",
      "type": "function"
    },
    {
      "inputs": [
        {
          "internalType": "address",
          "name": "from",
          "type": "address"
        },
        {
          "internalType": "address",
          "name": "to",
          "type": "address"
        },
        {
          "internalType": "uint256",
          "name": "tokenId",
          "type": "uint256"
        },
        {
          "internalType": "bytes",
          "name": "data",
          "type": "bytes"
        }
      ],
      "name": "safeTransferFrom",
      "outputs": [],
      "stateMutability": "nonpayable",
      "type": "function"
    },
    {
      "inputs": [
        {
          "internalType": "address",
          "name": "operator",
          "type": "address"
        },
        {
          "internalType": "bool",
          "name": "approved",
          "type": "bool"
        }
      ],
      "name": "setApprovalForAll",
      "outputs": [],
      "stateMutability": "nonpayable",
      "type": "function"
    },
    {
      "inputs": [
        {
          "internalType": "bytes4",
          "name": "interfaceId",
          "type": "bytes4"
        }
      ],
      "name": "supportsInterface",
      "outputs": [
        {
          "internalType": "bool",
          "name": "",
          "type": "bool"
        }
      ],
      "stateMutability": "view",
      "type": "function",
      "constant": true
    },
    {
      "inputs": [],
      "name": "symbol",
      "outputs": [
        {
          "internalType": "string",
          "name": "",
          "type": "string"
        }
      ],
      "stateMutability": "view",
      "type": "function",
      "constant": true
    },
    {
      "inputs": [],
      "name": "tokenAddress",
      "outputs": [
        {
          "internalType": "contract IERC20",
          "name": "",
          "type": "address"
        }
      ],
      "stateMutability": "view",
      "type": "function",
      "constant": true
    },
    {
      "inputs": [
        {
          "internalType": "uint256",
          "name": "tokenId",
          "type": "uint256"
        }
      ],
      "name": "tokenURI",
      "outputs": [
        {
          "internalType": "string",
          "name": "",
          "type": "string"
        }
      ],
      "stateMutability": "view",
      "type": "function",
      "constant": true
    },
    {
      "inputs": [
        {
          "internalType": "address",
          "name": "from",
          "type": "address"
        },
        {
          "internalType": "address",
          "name": "to",
          "type": "address"
        },
        {
          "internalType": "uint256",
          "name": "tokenId",
          "type": "uint256"
        }
      ],
      "name": "transferFrom",
      "outputs": [],
      "stateMutability": "nonpayable",
      "type": "function"
    },
    {
      "inputs": [
        {
          "internalType": "address",
          "name": "newOwner",
          "type": "address"
        }
      ],
      "name": "transferOwnership",
      "outputs": [],
      "stateMutability": "nonpayable",
      "type": "function"
    },
    {
      "inputs": [
        {
          "internalType": "address",
          "name": "_from",
          "type": "address"
        },
        {
          "internalType": "string",
          "name": "_owner",
          "type": "string"
        },
        {
          "internalType": "string",
          "name": "_name",
          "type": "string"
        },
        {
          "internalType": "string",
          "name": "_description",
          "type": "string"
        },
        {
          "internalType": "uint256",
          "name": "_price",
          "type": "uint256"
        }
      ],
      "name": "safeMint",
      "outputs": [
        {
          "internalType": "bool",
          "name": "",
          "type": "bool"
        }
      ],
      "stateMutability": "nonpayable",
      "type": "function"
    },
    {
      "inputs": [
        {
          "internalType": "string",
          "name": "owner",
          "type": "string"
        },
        {
          "internalType": "address",
          "name": "_to",
          "type": "address"
        },
        {
          "internalType": "uint256",
          "name": "indx",
          "type": "uint256"
        },
        {
          "internalType": "uint256",
          "name": "val",
          "type": "uint256"
        }
      ],
      "name": "buyProduct",
      "outputs": [
        {
          "internalType": "bool",
          "name": "",
          "type": "bool"
        }
      ],
      "stateMutability": "nonpayable",
      "type": "function"
    },
    {
      "inputs": [
        {
          "internalType": "string",
          "name": "owner",
          "type": "string"
        },
        {
          "internalType": "uint256",
          "name": "indx",
          "type": "uint256"
        },
        {
          "internalType": "uint256",
          "name": "val",
          "type": "uint256"
        }
      ],
      "name": "setProductPrice",
      "outputs": [
        {
          "internalType": "bool",
          "name": "",
          "type": "bool"
        }
      ],
      "stateMutability": "nonpayable",
      "type": "function"
    },
    {
      "inputs": [
        {
          "internalType": "string",
          "name": "_owner",
          "type": "string"
        }
      ],
      "name": "getProductByUser",
      "outputs": [
        {
          "components": [
            {
              "internalType": "string",
              "name": "name",
              "type": "string"
            },
            {
              "internalType": "string",
              "name": "description",
              "type": "string"
            },
            {
              "internalType": "address",
              "name": "owner",
              "type": "address"
            },
            {
              "internalType": "uint256",
              "name": "price",
              "type": "uint256"
            }
          ],
          "internalType": "struct MyNft.Product[]",
          "name": "",
          "type": "tuple[]"
        }
      ],
      "stateMutability": "view",
      "type": "function",
      "constant": true
    },
    {
      "inputs": [],
      "name": "getBalance",
      "outputs": [
        {
          "internalType": "uint256",
          "name": "",
          "type": "uint256"
        }
      ],
      "stateMutability": "view",
      "type": "function",
      "constant": true
    }
  ],
  "bytecode": "0x60806040523480156200001157600080fd5b50604051620040e4380380620040e4833981810160405281019062000037919062000269565b6040518060400160405280600581526020017f4d794e66740000000000000000000000000000000000000000000000000000008152506040518060400160405280600381526020017f4d545800000000000000000000000000000000000000000000000000000000008152508160009081620000b4919062000515565b508060019081620000c6919062000515565b505050620000e9620000dd6200013160201b60201c565b6200013960201b60201c565b80600760006101000a81548173ffffffffffffffffffffffffffffffffffffffff021916908373ffffffffffffffffffffffffffffffffffffffff16021790555050620005fc565b600033905090565b6000600660009054906101000a900473ffffffffffffffffffffffffffffffffffffffff16905081600660006101000a81548173ffffffffffffffffffffffffffffffffffffffff021916908373ffffffffffffffffffffffffffffffffffffffff1602179055508173ffffffffffffffffffffffffffffffffffffffff168173ffffffffffffffffffffffffffffffffffffffff167f8be0079c531659141344cd1fd0a4f28419497f9722a3daafe3b4186f6b6457e060405160405180910390a35050565b600080fd5b600073ffffffffffffffffffffffffffffffffffffffff82169050919050565b6000620002318262000204565b9050919050565b620002438162000224565b81146200024f57600080fd5b50565b600081519050620002638162000238565b92915050565b600060208284031215620002825762000281620001ff565b5b6000620002928482850162000252565b91505092915050565b600081519050919050565b7f4e487b7100000000000000000000000000000000000000000000000000000000600052604160045260246000fd5b7f4e487b7100000000000000000000000000000000000000000000000000000000600052602260045260246000fd5b600060028204905060018216806200031d57607f821691505b602082108103620003335762000332620002d5565b5b50919050565b60008190508160005260206000209050919050565b60006020601f8301049050919050565b600082821b905092915050565b6000600883026200039d7fffffffffffffffffffffffffffffffffffffffffffffffffffffffffffffffff826200035e565b620003a986836200035e565b95508019841693508086168417925050509392505050565b6000819050919050565b6000819050919050565b6000620003f6620003f0620003ea84620003c1565b620003cb565b620003c1565b9050919050565b6000819050919050565b6200041283620003d5565b6200042a6200042182620003fd565b8484546200036b565b825550505050565b600090565b6200044162000432565b6200044e81848462000407565b505050565b5b8181101562000476576200046a60008262000437565b60018101905062000454565b5050565b601f821115620004c5576200048f8162000339565b6200049a846200034e565b81016020851015620004aa578190505b620004c2620004b9856200034e565b83018262000453565b50505b505050565b600082821c905092915050565b6000620004ea60001984600802620004ca565b1980831691505092915050565b6000620005058383620004d7565b9150826002028217905092915050565b62000520826200029b565b67ffffffffffffffff8111156200053c576200053b620002a6565b5b62000548825462000304565b620005558282856200047a565b600060209050601f8311600181146200058d576000841562000578578287015190505b620005848582620004f7565b865550620005f4565b601f1984166200059d8662000339565b60005b82811015620005c757848901518255600182019150602085019450602081019050620005a0565b86831015620005e75784890151620005e3601f891682620004d7565b8355505b6001600288020188555050505b505050505050565b613ad8806200060c6000396000f3fe608060405234801561001057600080fd5b50600436106101425760003560e01c8063715018a6116100b8578063b03ad3b21161007c578063b03ad3b214610377578063b88d4fde146103a7578063c75b7cb6146103c3578063c87b56dd146103f3578063e985e9c514610423578063f2fde38b1461045357610142565b8063715018a6146102f75780638da5cb5b1461030157806395d89b411461031f5780639d76ea581461033d578063a22cb4651461035b57610142565b806323b872dd1161010a57806323b872dd146101ff57806332ce3c731461021b57806342842e0e1461024b5780634b09c5d9146102675780636352211e1461029757806370a08231146102c757610142565b806301ffc9a71461014757806306fdde0314610177578063081812fc14610195578063095ea7b3146101c557806312065fe0146101e1575b600080fd5b610161600480360381019061015c9190612318565b61046f565b60405161016e9190612360565b60405180910390f35b61017f610551565b60405161018c919061240b565b60405180910390f35b6101af60048036038101906101aa9190612463565b6105e3565b6040516101bc91906124d1565b60405180910390f35b6101df60048036038101906101da9190612518565b610629565b005b6101e9610740565b6040516101f69190612567565b60405180910390f35b61021960048036038101906102149190612582565b6107e3565b005b6102356004803603810190610230919061270a565b610843565b6040516102429190612360565b60405180910390f35b61026560048036038101906102609190612582565b6109d1565b005b610281600480360381019061027c919061278d565b6109f1565b60405161028e9190612360565b60405180910390f35b6102b160048036038101906102ac9190612463565b610a5c565b6040516102be91906124d1565b60405180910390f35b6102e160048036038101906102dc91906127fc565b610ae2565b6040516102ee9190612567565b60405180910390f35b6102ff610b99565b005b610309610bad565b60405161031691906124d1565b60405180910390f35b610327610bd7565b604051610334919061240b565b60405180910390f35b610345610c69565b6040516103529190612888565b60405180910390f35b610375600480360381019061037091906128cf565b610c8f565b005b610391600480360381019061038c919061290f565b610ca5565b60405161039e9190612360565b60405180910390f35b6103c160048036038101906103bc9190612a7f565b610e82565b005b6103dd60048036038101906103d89190612b02565b610ee4565b6040516103ea9190612cdf565b60405180910390f35b61040d60048036038101906104089190612463565b6110e5565b60405161041a919061240b565b60405180910390f35b61043d60048036038101906104389190612d01565b61114d565b60405161044a9190612360565b60405180910390f35b61046d600480360381019061046891906127fc565b6111e1565b005b60007f80ac58cd000000000000000000000000000000000000000000000000000000007bffffffffffffffffffffffffffffffffffffffffffffffffffffffff1916827bffffffffffffffffffffffffffffffffffffffffffffffffffffffff1916148061053a57507f5b5e139f000000000000000000000000000000000000000000000000000000007bffffffffffffffffffffffffffffffffffffffffffffffffffffffff1916827bffffffffffffffffffffffffffffffffffffffffffffffffffffffff1916145b8061054a575061054982611264565b5b9050919050565b60606000805461056090612d70565b80601f016020809104026020016040519081016040528092919081815260200182805461058c90612d70565b80156105d95780601f106105ae576101008083540402835291602001916105d9565b820191906000526020600020905b8154815290600101906020018083116105bc57829003601f168201915b5050505050905090565b60006105ee826112ce565b6004600083815260200190815260200160002060009054906101000a900473ffffffffffffffffffffffffffffffffffffffff169050919050565b600061063482610a5c565b90508073ffffffffffffffffffffffffffffffffffffffff168373ffffffffffffffffffffffffffffffffffffffff16036106a4576040517f08c379a000000000000000000000000000000000000000000000000000000000815260040161069b90612e13565b60405180910390fd5b8073ffffffffffffffffffffffffffffffffffffffff166106c3611319565b73ffffffffffffffffffffffffffffffffffffffff1614806106f257506106f1816106ec611319565b61114d565b5b610731576040517f08c379a000000000000000000000000000000000000000000000000000000000815260040161072890612ea5565b60405180910390fd5b61073b8383611321565b505050565b6000600760009054906101000a900473ffffffffffffffffffffffffffffffffffffffff1673ffffffffffffffffffffffffffffffffffffffff166370a08231306040518263ffffffff1660e01b815260040161079d91906124d1565b602060405180830381865afa1580156107ba573d6000803e3d6000fd5b505050506040513d601f19601f820116820180604052508101906107de9190612eda565b905090565b6107f46107ee611319565b826113da565b610833576040517f08c379a000000000000000000000000000000000000000000000000000000000815260040161082a90612f79565b60405180910390fd5b61083e83838361146f565b505050565b6000806008866040516108569190612fd5565b9081526020016040518091039020848154811061087657610875612fec565b5b9060005260206000209060040201905082816003015411156108cd576040517f08c379a00000000000000000000000000000000000000000000000000000000081526004016108c490613067565b60405180910390fd5b848160020160006101000a81548173ffffffffffffffffffffffffffffffffffffffff021916908373ffffffffffffffffffffffffffffffffffffffff160217905550600760009054906101000a900473ffffffffffffffffffffffffffffffffffffffff1673ffffffffffffffffffffffffffffffffffffffff1663a9059cbb86670de0b6b3a76400008661096391906130b6565b6040518363ffffffff1660e01b81526004016109809291906130f8565b6020604051808303816000875af115801561099f573d6000803e3d6000fd5b505050506040513d601f19601f820116820180604052508101906109c39190613136565b506001915050949350505050565b6109ec83838360405180602001604052806000815250610e82565b505050565b600080600885604051610a049190612fd5565b90815260200160405180910390208481548110610a2457610a23612fec565b5b90600052602060002090600402019050670de0b6b3a764000083610a4891906130b6565b816003018190555060019150509392505050565b600080610a6883611768565b9050600073ffffffffffffffffffffffffffffffffffffffff168173ffffffffffffffffffffffffffffffffffffffff1603610ad9576040517f08c379a0000000000000000000000000000000000000000000000000000000008152600401610ad0906131af565b60405180910390fd5b80915050919050565b60008073ffffffffffffffffffffffffffffffffffffffff168273ffffffffffffffffffffffffffffffffffffffff1603610b52576040517f08c379a0000000000000000000000000000000000000000000000000000000008152600401610b4990613241565b60405180910390fd5b600360008373ffffffffffffffffffffffffffffffffffffffff1673ffffffffffffffffffffffffffffffffffffffff168152602001908152602001600020549050919050565b610ba16117a5565b610bab6000611823565b565b6000600660009054906101000a900473ffffffffffffffffffffffffffffffffffffffff16905090565b606060018054610be690612d70565b80601f0160208091040260200160405190810160405280929190818152602001828054610c1290612d70565b8015610c5f5780601f10610c3457610100808354040283529160200191610c5f565b820191906000526020600020905b815481529060010190602001808311610c4257829003601f168201915b5050505050905090565b600760009054906101000a900473ffffffffffffffffffffffffffffffffffffffff1681565b610ca1610c9a611319565b83836118e9565b5050565b6000600760009054906101000a900473ffffffffffffffffffffffffffffffffffffffff1673ffffffffffffffffffffffffffffffffffffffff166323b872dd8730670de0b6b3a764000086610cfb91906130b6565b6040518463ffffffff1660e01b8152600401610d1993929190613261565b6020604051808303816000875af1158015610d38573d6000803e3d6000fd5b505050506040513d601f19601f82011682018060405250810190610d5c9190613136565b50600060405180608001604052808681526020018581526020018873ffffffffffffffffffffffffffffffffffffffff168152602001848152509050600886604051610da89190612fd5565b90815260200160405180910390208190806001815401808255809150506001900390600052602060002090600402016000909190919091506000820151816000019081610df5919061343a565b506020820151816001019081610e0b919061343a565b5060408201518160020160006101000a81548173ffffffffffffffffffffffffffffffffffffffff021916908373ffffffffffffffffffffffffffffffffffffffff160217905550606082015181600301555050610e696009611a55565b610e74876001611a6b565b600191505095945050505050565b610e93610e8d611319565b836113da565b610ed2576040517f08c379a0000000000000000000000000000000000000000000000000000000008152600401610ec990612f79565b60405180910390fd5b610ede84848484611a89565b50505050565b6060600882604051610ef69190612fd5565b9081526020016040518091039020805480602002602001604051908101604052809291908181526020016000905b828210156110da5783829060005260206000209060040201604051806080016040529081600082018054610f5790612d70565b80601f0160208091040260200160405190810160405280929190818152602001828054610f8390612d70565b8015610fd05780601f10610fa557610100808354040283529160200191610fd0565b820191906000526020600020905b815481529060010190602001808311610fb357829003601f168201915b50505050508152602001600182018054610fe990612d70565b80601f016020809104026020016040519081016040528092919081815260200182805461101590612d70565b80156110625780601f1061103757610100808354040283529160200191611062565b820191906000526020600020905b81548152906001019060200180831161104557829003601f168201915b505050505081526020016002820160009054906101000a900473ffffffffffffffffffffffffffffffffffffffff1673ffffffffffffffffffffffffffffffffffffffff1673ffffffffffffffffffffffffffffffffffffffff16815260200160038201548152505081526020019060010190610f24565b505050509050919050565b60606110f0826112ce565b60006110fa611ae5565b9050600081511161111a5760405180602001604052806000815250611145565b8061112484611afc565b60405160200161113592919061350c565b6040516020818303038152906040525b915050919050565b6000600560008473ffffffffffffffffffffffffffffffffffffffff1673ffffffffffffffffffffffffffffffffffffffff16815260200190815260200160002060008373ffffffffffffffffffffffffffffffffffffffff1673ffffffffffffffffffffffffffffffffffffffff16815260200190815260200160002060009054906101000a900460ff16905092915050565b6111e96117a5565b600073ffffffffffffffffffffffffffffffffffffffff168173ffffffffffffffffffffffffffffffffffffffff1603611258576040517f08c379a000000000000000000000000000000000000000000000000000000000815260040161124f906135a2565b60405180910390fd5b61126181611823565b50565b60007f01ffc9a7000000000000000000000000000000000000000000000000000000007bffffffffffffffffffffffffffffffffffffffffffffffffffffffff1916827bffffffffffffffffffffffffffffffffffffffffffffffffffffffff1916149050919050565b6112d781611bca565b611316576040517f08c379a000000000000000000000000000000000000000000000000000000000815260040161130d906131af565b60405180910390fd5b50565b600033905090565b816004600083815260200190815260200160002060006101000a81548173ffffffffffffffffffffffffffffffffffffffff021916908373ffffffffffffffffffffffffffffffffffffffff160217905550808273ffffffffffffffffffffffffffffffffffffffff1661139483610a5c565b73ffffffffffffffffffffffffffffffffffffffff167f8c5be1e5ebec7d5bd14f71427d1e84f3dd0314c0f7b2291e5b200ac8c7c3b92560405160405180910390a45050565b6000806113e683610a5c565b90508073ffffffffffffffffffffffffffffffffffffffff168473ffffffffffffffffffffffffffffffffffffffff1614806114285750611427818561114d565b5b8061146657508373ffffffffffffffffffffffffffffffffffffffff1661144e846105e3565b73ffffffffffffffffffffffffffffffffffffffff16145b91505092915050565b8273ffffffffffffffffffffffffffffffffffffffff1661148f82610a5c565b73ffffffffffffffffffffffffffffffffffffffff16146114e5576040517f08c379a00000000000000000000000000000000000000000000000000000000081526004016114dc90613634565b60405180910390fd5b600073ffffffffffffffffffffffffffffffffffffffff168273ffffffffffffffffffffffffffffffffffffffff1603611554576040517f08c379a000000000000000000000000000000000000000000000000000000000815260040161154b906136c6565b60405180910390fd5b6115618383836001611c0b565b8273ffffffffffffffffffffffffffffffffffffffff1661158182610a5c565b73ffffffffffffffffffffffffffffffffffffffff16146115d7576040517f08c379a00000000000000000000000000000000000000000000000000000000081526004016115ce90613634565b60405180910390fd5b6004600082815260200190815260200160002060006101000a81549073ffffffffffffffffffffffffffffffffffffffff02191690556001600360008573ffffffffffffffffffffffffffffffffffffffff1673ffffffffffffffffffffffffffffffffffffffff168152602001908152602001600020600082825403925050819055506001600360008473ffffffffffffffffffffffffffffffffffffffff1673ffffffffffffffffffffffffffffffffffffffff16815260200190815260200160002060008282540192505081905550816002600083815260200190815260200160002060006101000a81548173ffffffffffffffffffffffffffffffffffffffff021916908373ffffffffffffffffffffffffffffffffffffffff160217905550808273ffffffffffffffffffffffffffffffffffffffff168473ffffffffffffffffffffffffffffffffffffffff167fddf252ad1be2c89b69c2b068fc378daa952ba7f163c4a11628f55a4df523b3ef60405160405180910390a46117638383836001611d31565b505050565b60006002600083815260200190815260200160002060009054906101000a900473ffffffffffffffffffffffffffffffffffffffff169050919050565b6117ad611319565b73ffffffffffffffffffffffffffffffffffffffff166117cb610bad565b73ffffffffffffffffffffffffffffffffffffffff1614611821576040517f08c379a000000000000000000000000000000000000000000000000000000000815260040161181890613732565b60405180910390fd5b565b6000600660009054906101000a900473ffffffffffffffffffffffffffffffffffffffff16905081600660006101000a81548173ffffffffffffffffffffffffffffffffffffffff021916908373ffffffffffffffffffffffffffffffffffffffff1602179055508173ffffffffffffffffffffffffffffffffffffffff168173ffffffffffffffffffffffffffffffffffffffff167f8be0079c531659141344cd1fd0a4f28419497f9722a3daafe3b4186f6b6457e060405160405180910390a35050565b8173ffffffffffffffffffffffffffffffffffffffff168373ffffffffffffffffffffffffffffffffffffffff1603611957576040517f08c379a000000000000000000000000000000000000000000000000000000000815260040161194e9061379e565b60405180910390fd5b80600560008573ffffffffffffffffffffffffffffffffffffffff1673ffffffffffffffffffffffffffffffffffffffff16815260200190815260200160002060008473ffffffffffffffffffffffffffffffffffffffff1673ffffffffffffffffffffffffffffffffffffffff16815260200190815260200160002060006101000a81548160ff0219169083151502179055508173ffffffffffffffffffffffffffffffffffffffff168373ffffffffffffffffffffffffffffffffffffffff167f17307eab39ab6107e8899845ad3d59bd9653f200f220920489ca2b5937696c3183604051611a489190612360565b60405180910390a3505050565b6001816000016000828254019250508190555050565b611a85828260405180602001604052806000815250611d37565b5050565b611a9484848461146f565b611aa084848484611d92565b611adf576040517f08c379a0000000000000000000000000000000000000000000000000000000008152600401611ad690613830565b60405180910390fd5b50505050565b606060405180602001604052806000815250905090565b606060006001611b0b84611f19565b01905060008167ffffffffffffffff811115611b2a57611b296125df565b5b6040519080825280601f01601f191660200182016040528015611b5c5781602001600182028036833780820191505090505b509050600082602001820190505b600115611bbf578080600190039150507f3031323334353637383961626364656600000000000000000000000000000000600a86061a8153600a8581611bb357611bb2613850565b5b04945060008503611b6a575b819350505050919050565b60008073ffffffffffffffffffffffffffffffffffffffff16611bec83611768565b73ffffffffffffffffffffffffffffffffffffffff1614159050919050565b6001811115611d2b57600073ffffffffffffffffffffffffffffffffffffffff168473ffffffffffffffffffffffffffffffffffffffff1614611c9f5780600360008673ffffffffffffffffffffffffffffffffffffffff1673ffffffffffffffffffffffffffffffffffffffff1681526020019081526020016000206000828254611c97919061387f565b925050819055505b600073ffffffffffffffffffffffffffffffffffffffff168373ffffffffffffffffffffffffffffffffffffffff1614611d2a5780600360008573ffffffffffffffffffffffffffffffffffffffff1673ffffffffffffffffffffffffffffffffffffffff1681526020019081526020016000206000828254611d2291906138b3565b925050819055505b5b50505050565b50505050565b611d41838361206c565b611d4e6000848484611d92565b611d8d576040517f08c379a0000000000000000000000000000000000000000000000000000000008152600401611d8490613830565b60405180910390fd5b505050565b6000611db38473ffffffffffffffffffffffffffffffffffffffff16612289565b15611f0c578373ffffffffffffffffffffffffffffffffffffffff1663150b7a02611ddc611319565b8786866040518563ffffffff1660e01b8152600401611dfe949392919061393c565b6020604051808303816000875af1925050508015611e3a57506040513d601f19601f82011682018060405250810190611e37919061399d565b60015b611ebc573d8060008114611e6a576040519150601f19603f3d011682016040523d82523d6000602084013e611e6f565b606091505b506000815103611eb4576040517f08c379a0000000000000000000000000000000000000000000000000000000008152600401611eab90613830565b60405180910390fd5b805181602001fd5b63150b7a0260e01b7bffffffffffffffffffffffffffffffffffffffffffffffffffffffff1916817bffffffffffffffffffffffffffffffffffffffffffffffffffffffff191614915050611f11565b600190505b949350505050565b600080600090507a184f03e93ff9f4daa797ed6e38ed64bf6a1f0100000000000000008310611f77577a184f03e93ff9f4daa797ed6e38ed64bf6a1f0100000000000000008381611f6d57611f6c613850565b5b0492506040810190505b6d04ee2d6d415b85acef81000000008310611fb4576d04ee2d6d415b85acef81000000008381611faa57611fa9613850565b5b0492506020810190505b662386f26fc100008310611fe357662386f26fc100008381611fd957611fd8613850565b5b0492506010810190505b6305f5e100831061200c576305f5e100838161200257612001613850565b5b0492506008810190505b612710831061203157612710838161202757612026613850565b5b0492506004810190505b60648310612054576064838161204a57612049613850565b5b0492506002810190505b600a8310612063576001810190505b80915050919050565b600073ffffffffffffffffffffffffffffffffffffffff168273ffffffffffffffffffffffffffffffffffffffff16036120db576040517f08c379a00000000000000000000000000000000000000000000000000000000081526004016120d290613a16565b60405180910390fd5b6120e481611bca565b15612124576040517f08c379a000000000000000000000000000000000000000000000000000000000815260040161211b90613a82565b60405180910390fd5b612132600083836001611c0b565b61213b81611bca565b1561217b576040517f08c379a000000000000000000000000000000000000000000000000000000000815260040161217290613a82565b60405180910390fd5b6001600360008473ffffffffffffffffffffffffffffffffffffffff1673ffffffffffffffffffffffffffffffffffffffff16815260200190815260200160002060008282540192505081905550816002600083815260200190815260200160002060006101000a81548173ffffffffffffffffffffffffffffffffffffffff021916908373ffffffffffffffffffffffffffffffffffffffff160217905550808273ffffffffffffffffffffffffffffffffffffffff16600073ffffffffffffffffffffffffffffffffffffffff167fddf252ad1be2c89b69c2b068fc378daa952ba7f163c4a11628f55a4df523b3ef60405160405180910390a4612285600083836001611d31565b5050565b6000808273ffffffffffffffffffffffffffffffffffffffff163b119050919050565b6000604051905090565b600080fd5b600080fd5b60007fffffffff0000000000000000000000000000000000000000000000000000000082169050919050565b6122f5816122c0565b811461230057600080fd5b50565b600081359050612312816122ec565b92915050565b60006020828403121561232e5761232d6122b6565b5b600061233c84828501612303565b91505092915050565b60008115159050919050565b61235a81612345565b82525050565b60006020820190506123756000830184612351565b92915050565b600081519050919050565b600082825260208201905092915050565b60005b838110156123b557808201518184015260208101905061239a565b60008484015250505050565b6000601f19601f8301169050919050565b60006123dd8261237b565b6123e78185612386565b93506123f7818560208601612397565b612400816123c1565b840191505092915050565b6000602082019050818103600083015261242581846123d2565b905092915050565b6000819050919050565b6124408161242d565b811461244b57600080fd5b50565b60008135905061245d81612437565b92915050565b600060208284031215612479576124786122b6565b5b60006124878482850161244e565b91505092915050565b600073ffffffffffffffffffffffffffffffffffffffff82169050919050565b60006124bb82612490565b9050919050565b6124cb816124b0565b82525050565b60006020820190506124e660008301846124c2565b92915050565b6124f5816124b0565b811461250057600080fd5b50565b600081359050612512816124ec565b92915050565b6000806040838503121561252f5761252e6122b6565b5b600061253d85828601612503565b925050602061254e8582860161244e565b9150509250929050565b6125618161242d565b82525050565b600060208201905061257c6000830184612558565b92915050565b60008060006060848603121561259b5761259a6122b6565b5b60006125a986828701612503565b93505060206125ba86828701612503565b92505060406125cb8682870161244e565b9150509250925092565b600080fd5b600080fd5b7f4e487b7100000000000000000000000000000000000000000000000000000000600052604160045260246000fd5b612617826123c1565b810181811067ffffffffffffffff82111715612636576126356125df565b5b80604052505050565b60006126496122ac565b9050612655828261260e565b919050565b600067ffffffffffffffff821115612675576126746125df565b5b61267e826123c1565b9050602081019050919050565b82818337600083830152505050565b60006126ad6126a88461265a565b61263f565b9050828152602081018484840111156126c9576126c86125da565b5b6126d484828561268b565b509392505050565b600082601f8301126126f1576126f06125d5565b5b813561270184826020860161269a565b91505092915050565b60008060008060808587031215612724576127236122b6565b5b600085013567ffffffffffffffff811115612742576127416122bb565b5b61274e878288016126dc565b945050602061275f87828801612503565b93505060406127708782880161244e565b92505060606127818782880161244e565b91505092959194509250565b6000806000606084860312156127a6576127a56122b6565b5b600084013567ffffffffffffffff8111156127c4576127c36122bb565b5b6127d0868287016126dc565b93505060206127e18682870161244e565b92505060406127f28682870161244e565b9150509250925092565b600060208284031215612812576128116122b6565b5b600061282084828501612503565b91505092915050565b6000819050919050565b600061284e61284961284484612490565b612829565b612490565b9050919050565b600061286082612833565b9050919050565b600061287282612855565b9050919050565b61288281612867565b82525050565b600060208201905061289d6000830184612879565b92915050565b6128ac81612345565b81146128b757600080fd5b50565b6000813590506128c9816128a3565b92915050565b600080604083850312156128e6576128e56122b6565b5b60006128f485828601612503565b9250506020612905858286016128ba565b9150509250929050565b600080600080600060a0868803121561292b5761292a6122b6565b5b600061293988828901612503565b955050602086013567ffffffffffffffff81111561295a576129596122bb565b5b612966888289016126dc565b945050604086013567ffffffffffffffff811115612987576129866122bb565b5b612993888289016126dc565b935050606086013567ffffffffffffffff8111156129b4576129b36122bb565b5b6129c0888289016126dc565b92505060806129d18882890161244e565b9150509295509295909350565b600067ffffffffffffffff8211156129f9576129f86125df565b5b612a02826123c1565b9050602081019050919050565b6000612a22612a1d846129de565b61263f565b905082815260208101848484011115612a3e57612a3d6125da565b5b612a4984828561268b565b509392505050565b600082601f830112612a6657612a656125d5565b5b8135612a76848260208601612a0f565b91505092915050565b60008060008060808587031215612a9957612a986122b6565b5b6000612aa787828801612503565b9450506020612ab887828801612503565b9350506040612ac98782880161244e565b925050606085013567ffffffffffffffff811115612aea57612ae96122bb565b5b612af687828801612a51565b91505092959194509250565b600060208284031215612b1857612b176122b6565b5b600082013567ffffffffffffffff811115612b3657612b356122bb565b5b612b42848285016126dc565b91505092915050565b600081519050919050565b600082825260208201905092915050565b6000819050602082019050919050565b600082825260208201905092915050565b6000612b938261237b565b612b9d8185612b77565b9350612bad818560208601612397565b612bb6816123c1565b840191505092915050565b612bca816124b0565b82525050565b612bd98161242d565b82525050565b60006080830160008301518482036000860152612bfc8282612b88565b91505060208301518482036020860152612c168282612b88565b9150506040830151612c2b6040860182612bc1565b506060830151612c3e6060860182612bd0565b508091505092915050565b6000612c558383612bdf565b905092915050565b6000602082019050919050565b6000612c7582612b4b565b612c7f8185612b56565b935083602082028501612c9185612b67565b8060005b85811015612ccd5784840389528151612cae8582612c49565b9450612cb983612c5d565b925060208a01995050600181019050612c95565b50829750879550505050505092915050565b60006020820190508181036000830152612cf98184612c6a565b905092915050565b60008060408385031215612d1857612d176122b6565b5b6000612d2685828601612503565b9250506020612d3785828601612503565b9150509250929050565b7f4e487b7100000000000000000000000000000000000000000000000000000000600052602260045260246000fd5b60006002820490506001821680612d8857607f821691505b602082108103612d9b57612d9a612d41565b5b50919050565b7f4552433732313a20617070726f76616c20746f2063757272656e74206f776e6560008201527f7200000000000000000000000000000000000000000000000000000000000000602082015250565b6000612dfd602183612386565b9150612e0882612da1565b604082019050919050565b60006020820190508181036000830152612e2c81612df0565b9050919050565b7f4552433732313a20617070726f76652063616c6c6572206973206e6f7420746f60008201527f6b656e206f776e6572206f7220617070726f76656420666f7220616c6c000000602082015250565b6000612e8f603d83612386565b9150612e9a82612e33565b604082019050919050565b60006020820190508181036000830152612ebe81612e82565b9050919050565b600081519050612ed481612437565b92915050565b600060208284031215612ef057612eef6122b6565b5b6000612efe84828501612ec5565b91505092915050565b7f4552433732313a2063616c6c6572206973206e6f7420746f6b656e206f776e6560008201527f72206f7220617070726f76656400000000000000000000000000000000000000602082015250565b6000612f63602d83612386565b9150612f6e82612f07565b604082019050919050565b60006020820190508181036000830152612f9281612f56565b9050919050565b600081905092915050565b6000612faf8261237b565b612fb98185612f99565b9350612fc9818560208601612397565b80840191505092915050565b6000612fe18284612fa4565b915081905092915050565b7f4e487b7100000000000000000000000000000000000000000000000000000000600052603260045260246000fd5b7f496e73756666696369656e7420616d6f756e7400000000000000000000000000600082015250565b6000613051601383612386565b915061305c8261301b565b602082019050919050565b6000602082019050818103600083015261308081613044565b9050919050565b7f4e487b7100000000000000000000000000000000000000000000000000000000600052601160045260246000fd5b60006130c18261242d565b91506130cc8361242d565b92508282026130da8161242d565b915082820484148315176130f1576130f0613087565b5b5092915050565b600060408201905061310d60008301856124c2565b61311a6020830184612558565b9392505050565b600081519050613130816128a3565b92915050565b60006020828403121561314c5761314b6122b6565b5b600061315a84828501613121565b91505092915050565b7f4552433732313a20696e76616c696420746f6b656e2049440000000000000000600082015250565b6000613199601883612386565b91506131a482613163565b602082019050919050565b600060208201905081810360008301526131c88161318c565b9050919050565b7f4552433732313a2061646472657373207a65726f206973206e6f74206120766160008201527f6c6964206f776e65720000000000000000000000000000000000000000000000602082015250565b600061322b602983612386565b9150613236826131cf565b604082019050919050565b6000602082019050818103600083015261325a8161321e565b9050919050565b600060608201905061327660008301866124c2565b61328360208301856124c2565b6132906040830184612558565b949350505050565b60008190508160005260206000209050919050565b60006020601f8301049050919050565b600082821b905092915050565b6000600883026132fa7fffffffffffffffffffffffffffffffffffffffffffffffffffffffffffffffff826132bd565b61330486836132bd565b95508019841693508086168417925050509392505050565b600061333761333261332d8461242d565b612829565b61242d565b9050919050565b6000819050919050565b6133518361331c565b61336561335d8261333e565b8484546132ca565b825550505050565b600090565b61337a61336d565b613385818484613348565b505050565b5b818110156133a95761339e600082613372565b60018101905061338b565b5050565b601f8211156133ee576133bf81613298565b6133c8846132ad565b810160208510156133d7578190505b6133eb6133e3856132ad565b83018261338a565b50505b505050565b600082821c905092915050565b6000613411600019846008026133f3565b1980831691505092915050565b600061342a8383613400565b9150826002028217905092915050565b6134438261237b565b67ffffffffffffffff81111561345c5761345b6125df565b5b6134668254612d70565b6134718282856133ad565b600060209050601f8311600181146134a45760008415613492578287015190505b61349c858261341e565b865550613504565b601f1984166134b286613298565b60005b828110156134da578489015182556001820191506020850194506020810190506134b5565b868310156134f757848901516134f3601f891682613400565b8355505b6001600288020188555050505b505050505050565b60006135188285612fa4565b91506135248284612fa4565b91508190509392505050565b7f4f776e61626c653a206e6577206f776e657220697320746865207a65726f206160008201527f6464726573730000000000000000000000000000000000000000000000000000602082015250565b600061358c602683612386565b915061359782613530565b604082019050919050565b600060208201905081810360008301526135bb8161357f565b9050919050565b7f4552433732313a207472616e736665722066726f6d20696e636f72726563742060008201527f6f776e6572000000000000000000000000000000000000000000000000000000602082015250565b600061361e602583612386565b9150613629826135c2565b604082019050919050565b6000602082019050818103600083015261364d81613611565b9050919050565b7f4552433732313a207472616e7366657220746f20746865207a65726f2061646460008201527f7265737300000000000000000000000000000000000000000000000000000000602082015250565b60006136b0602483612386565b91506136bb82613654565b604082019050919050565b600060208201905081810360008301526136df816136a3565b9050919050565b7f4f776e61626c653a2063616c6c6572206973206e6f7420746865206f776e6572600082015250565b600061371c602083612386565b9150613727826136e6565b602082019050919050565b6000602082019050818103600083015261374b8161370f565b9050919050565b7f4552433732313a20617070726f766520746f2063616c6c657200000000000000600082015250565b6000613788601983612386565b915061379382613752565b602082019050919050565b600060208201905081810360008301526137b78161377b565b9050919050565b7f4552433732313a207472616e7366657220746f206e6f6e20455243373231526560008201527f63656976657220696d706c656d656e7465720000000000000000000000000000602082015250565b600061381a603283612386565b9150613825826137be565b604082019050919050565b600060208201905081810360008301526138498161380d565b9050919050565b7f4e487b7100000000000000000000000000000000000000000000000000000000600052601260045260246000fd5b600061388a8261242d565b91506138958361242d565b92508282039050818111156138ad576138ac613087565b5b92915050565b60006138be8261242d565b91506138c98361242d565b92508282019050808211156138e1576138e0613087565b5b92915050565b600081519050919050565b600082825260208201905092915050565b600061390e826138e7565b61391881856138f2565b9350613928818560208601612397565b613931816123c1565b840191505092915050565b600060808201905061395160008301876124c2565b61395e60208301866124c2565b61396b6040830185612558565b818103606083015261397d8184613903565b905095945050505050565b600081519050613997816122ec565b92915050565b6000602082840312156139b3576139b26122b6565b5b60006139c184828501613988565b91505092915050565b7f4552433732313a206d696e7420746f20746865207a65726f2061646472657373600082015250565b6000613a00602083612386565b9150613a0b826139ca565b602082019050919050565b60006020820190508181036000830152613a2f816139f3565b9050919050565b7f4552433732313a20746f6b656e20616c7265616479206d696e74656400000000600082015250565b6000613a6c601c83612386565b9150613a7782613a36565b602082019050919050565b60006020820190508181036000830152613a9b81613a5f565b905091905056fea2646970667358221220026883356b26f25182fd5c94f3720873ed791c91cb3fccafb40701b9dd3f1c6464736f6c63430008110033",
  "immutableReferences": {},
  "source": "// SPDX-License-Identifier: MIT\r\n\r\npragma solidity ^0.8.0;\r\n\r\nimport \"@openzeppelin/contracts/token/ERC20/IERC20.sol\";\r\nimport \"@openzeppelin/contracts/token/ERC721/ERC721.sol\";\r\nimport \"@openzeppelin/contracts/access/Ownable.sol\";\r\nimport \"@openzeppelin/contracts/utils/Counters.sol\";\r\n\r\ncontract MyNft is ERC721, Ownable {\r\n    using Counters for Counters.Counter;\r\n    IERC20 public tokenAddress;\r\n\r\n    struct Product {\r\n        string name;\r\n        string description;\r\n        address owner;\r\n        uint256 price;\r\n    }\r\n\r\n    mapping(string => Product[]) OwnerList;\r\n\r\n    Counters.Counter private _tokenIdCounter;\r\n\r\n    constructor(address _tokenAddress) ERC721(\"MyNft\", \"MTX\") {\r\n        tokenAddress = IERC20(_tokenAddress);\r\n    }\r\n\r\n    function safeMint(\r\n        address _from,\r\n        string memory _owner,\r\n        string memory _name,\r\n        string memory _description,\r\n        uint256 _price\r\n    ) public returns (bool) {\r\n        tokenAddress.transferFrom(_from, address(this), _price * (10**18));\r\n        // tokenAddress.transfer(_from, _price * (10 ** 18));\r\n        Product memory product = Product({\r\n            name: _name,\r\n            description: _description,\r\n            price: _price,\r\n            owner: _from\r\n        });\r\n        OwnerList[_owner].push(product);\r\n        _tokenIdCounter.increment();\r\n        _safeMint(_from, 1);\r\n        return true;\r\n    }\r\n\r\n    function buyProduct(\r\n        string memory owner,\r\n        address _to,\r\n        uint256 indx,\r\n        uint256 val\r\n    ) external returns (bool) {\r\n        Product storage product = OwnerList[owner][indx];\r\n        require(product.price <= val, \"Insufficient amount\");\r\n        product.owner = _to;\r\n        tokenAddress.transfer(_to, val * (10**18));\r\n        return true;\r\n    }\r\n\r\n    function setProductPrice(\r\n        string memory owner,\r\n        uint256 indx,\r\n        uint256 val\r\n    ) external returns (bool) {\r\n        Product storage product = OwnerList[owner][indx];\r\n        product.price = val * (10**18);\r\n        return true;\r\n    }\r\n\r\n    function getProductByUser(string memory _owner)\r\n        external\r\n        view\r\n        returns (Product[] memory)\r\n    {\r\n        return OwnerList[_owner];\r\n    }\r\n\r\n    function getBalance() external view returns (uint256) {\r\n        return tokenAddress.balanceOf(address(this));\r\n    }\r\n}\r\n",
  "sourcePath": "C:\\Users\\balam\\OneDrive\\Documents\\poc\\server\\contracts\\MyNft.sol",
  "compiler": {
    "name": "solc",
    "version": "0.8.17+commit.8df45f5f.Emscripten.clang"
  },
  "schemaVersion": "3.4.11",
  "updatedAt": "2023-01-05T16:14:47.749Z",
  "networkType": "ethereum",
  "devdoc": {
    "kind": "dev",
    "methods": {
      "approve(address,uint256)": {
        "details": "See {IERC721-approve}."
      },
      "balanceOf(address)": {
        "details": "See {IERC721-balanceOf}."
      },
      "getApproved(uint256)": {
        "details": "See {IERC721-getApproved}."
      },
      "isApprovedForAll(address,address)": {
        "details": "See {IERC721-isApprovedForAll}."
      },
      "name()": {
        "details": "See {IERC721Metadata-name}."
      },
      "owner()": {
        "details": "Returns the address of the current owner."
      },
      "ownerOf(uint256)": {
        "details": "See {IERC721-ownerOf}."
      },
      "renounceOwnership()": {
        "details": "Leaves the contract without owner. It will not be possible to call `onlyOwner` functions anymore. Can only be called by the current owner. NOTE: Renouncing ownership will leave the contract without an owner, thereby removing any functionality that is only available to the owner."
      },
      "safeTransferFrom(address,address,uint256)": {
        "details": "See {IERC721-safeTransferFrom}."
      },
      "safeTransferFrom(address,address,uint256,bytes)": {
        "details": "See {IERC721-safeTransferFrom}."
      },
      "setApprovalForAll(address,bool)": {
        "details": "See {IERC721-setApprovalForAll}."
      },
      "supportsInterface(bytes4)": {
        "details": "See {IERC165-supportsInterface}."
      },
      "symbol()": {
        "details": "See {IERC721Metadata-symbol}."
      },
      "tokenURI(uint256)": {
        "details": "See {IERC721Metadata-tokenURI}."
      },
      "transferFrom(address,address,uint256)": {
        "details": "See {IERC721-transferFrom}."
      },
      "transferOwnership(address)": {
        "details": "Transfers ownership of the contract to a new account (`newOwner`). Can only be called by the current owner."
      }
    },
    "version": 1
  },
  "userdoc": {
    "kind": "user",
    "methods": {},
    "version": 1
  }
}