{
  "contractName": "MyNft",
  "abi": [
    {
      "inputs": [
        {
          "internalType": "address",
          "name": "_tokenAddress",
          "type": "address"
        }
      ],
      "stateMutability": "nonpayable",
      "type": "constructor"
    },
    {
      "anonymous": false,
      "inputs": [
        {
          "indexed": true,
          "internalType": "address",
          "name": "owner",
          "type": "address"
        },
        {
          "indexed": true,
          "internalType": "address",
          "name": "approved",
          "type": "address"
        },
        {
          "indexed": true,
          "internalType": "uint256",
          "name": "tokenId",
          "type": "uint256"
        }
      ],
      "name": "Approval",
      "type": "event"
    },
    {
      "anonymous": false,
      "inputs": [
        {
          "indexed": true,
          "internalType": "address",
          "name": "owner",
          "type": "address"
        },
        {
          "indexed": true,
          "internalType": "address",
          "name": "operator",
          "type": "address"
        },
        {
          "indexed": false,
          "internalType": "bool",
          "name": "approved",
          "type": "bool"
        }
      ],
      "name": "ApprovalForAll",
      "type": "event"
    },
    {
      "anonymous": false,
      "inputs": [
        {
          "indexed": true,
          "internalType": "address",
          "name": "previousOwner",
          "type": "address"
        },
        {
          "indexed": true,
          "internalType": "address",
          "name": "newOwner",
          "type": "address"
        }
      ],
      "name": "OwnershipTransferred",
      "type": "event"
    },
    {
      "anonymous": false,
      "inputs": [
        {
          "indexed": true,
          "internalType": "address",
          "name": "from",
          "type": "address"
        },
        {
          "indexed": true,
          "internalType": "address",
          "name": "to",
          "type": "address"
        },
        {
          "indexed": true,
          "internalType": "uint256",
          "name": "tokenId",
          "type": "uint256"
        }
      ],
      "name": "Transfer",
      "type": "event"
    },
    {
      "inputs": [
        {
          "internalType": "address",
          "name": "to",
          "type": "address"
        },
        {
          "internalType": "uint256",
          "name": "tokenId",
          "type": "uint256"
        }
      ],
      "name": "approve",
      "outputs": [],
      "stateMutability": "nonpayable",
      "type": "function"
    },
    {
      "inputs": [
        {
          "internalType": "address",
          "name": "owner",
          "type": "address"
        }
      ],
      "name": "balanceOf",
      "outputs": [
        {
          "internalType": "uint256",
          "name": "",
          "type": "uint256"
        }
      ],
      "stateMutability": "view",
      "type": "function",
      "constant": true
    },
    {
      "inputs": [
        {
          "internalType": "uint256",
          "name": "tokenId",
          "type": "uint256"
        }
      ],
      "name": "getApproved",
      "outputs": [
        {
          "internalType": "address",
          "name": "",
          "type": "address"
        }
      ],
      "stateMutability": "view",
      "type": "function",
      "constant": true
    },
    {
      "inputs": [
        {
          "internalType": "address",
          "name": "owner",
          "type": "address"
        },
        {
          "internalType": "address",
          "name": "operator",
          "type": "address"
        }
      ],
      "name": "isApprovedForAll",
      "outputs": [
        {
          "internalType": "bool",
          "name": "",
          "type": "bool"
        }
      ],
      "stateMutability": "view",
      "type": "function",
      "constant": true
    },
    {
      "inputs": [],
      "name": "name",
      "outputs": [
        {
          "internalType": "string",
          "name": "",
          "type": "string"
        }
      ],
      "stateMutability": "view",
      "type": "function",
      "constant": true
    },
    {
      "inputs": [],
      "name": "owner",
      "outputs": [
        {
          "internalType": "address",
          "name": "",
          "type": "address"
        }
      ],
      "stateMutability": "view",
      "type": "function",
      "constant": true
    },
    {
      "inputs": [
        {
          "internalType": "uint256",
          "name": "tokenId",
          "type": "uint256"
        }
      ],
      "name": "ownerOf",
      "outputs": [
        {
          "internalType": "address",
          "name": "",
          "type": "address"
        }
      ],
      "stateMutability": "view",
      "type": "function",
      "constant": true
    },
    {
      "inputs": [
        {
          "internalType": "uint256",
          "name": "",
          "type": "uint256"
        }
      ],
      "name": "products",
      "outputs": [
        {
          "internalType": "string",
          "name": "name",
          "type": "string"
        },
        {
          "internalType": "string",
          "name": "description",
          "type": "string"
        },
        {
          "internalType": "address",
          "name": "owner",
          "type": "address"
        },
        {
          "internalType": "uint256",
          "name": "price",
          "type": "uint256"
        }
      ],
      "stateMutability": "view",
      "type": "function",
      "constant": true
    },
    {
      "inputs": [],
      "name": "renounceOwnership",
      "outputs": [],
      "stateMutability": "nonpayable",
      "type": "function"
    },
    {
      "inputs": [
        {
          "internalType": "address",
          "name": "from",
          "type": "address"
        },
        {
          "internalType": "address",
          "name": "to",
          "type": "address"
        },
        {
          "internalType": "uint256",
          "name": "tokenId",
          "type": "uint256"
        }
      ],
      "name": "safeTransferFrom",
      "outputs": [],
      "stateMutability": "nonpayable",
      "type": "function"
    },
    {
      "inputs": [
        {
          "internalType": "address",
          "name": "from",
          "type": "address"
        },
        {
          "internalType": "address",
          "name": "to",
          "type": "address"
        },
        {
          "internalType": "uint256",
          "name": "tokenId",
          "type": "uint256"
        },
        {
          "internalType": "bytes",
          "name": "data",
          "type": "bytes"
        }
      ],
      "name": "safeTransferFrom",
      "outputs": [],
      "stateMutability": "nonpayable",
      "type": "function"
    },
    {
      "inputs": [
        {
          "internalType": "address",
          "name": "operator",
          "type": "address"
        },
        {
          "internalType": "bool",
          "name": "approved",
          "type": "bool"
        }
      ],
      "name": "setApprovalForAll",
      "outputs": [],
      "stateMutability": "nonpayable",
      "type": "function"
    },
    {
      "inputs": [
        {
          "internalType": "bytes4",
          "name": "interfaceId",
          "type": "bytes4"
        }
      ],
      "name": "supportsInterface",
      "outputs": [
        {
          "internalType": "bool",
          "name": "",
          "type": "bool"
        }
      ],
      "stateMutability": "view",
      "type": "function",
      "constant": true
    },
    {
      "inputs": [],
      "name": "symbol",
      "outputs": [
        {
          "internalType": "string",
          "name": "",
          "type": "string"
        }
      ],
      "stateMutability": "view",
      "type": "function",
      "constant": true
    },
    {
      "inputs": [],
      "name": "tokenAddress",
      "outputs": [
        {
          "internalType": "contract IERC20",
          "name": "",
          "type": "address"
        }
      ],
      "stateMutability": "view",
      "type": "function",
      "constant": true
    },
    {
      "inputs": [
        {
          "internalType": "uint256",
          "name": "tokenId",
          "type": "uint256"
        }
      ],
      "name": "tokenURI",
      "outputs": [
        {
          "internalType": "string",
          "name": "",
          "type": "string"
        }
      ],
      "stateMutability": "view",
      "type": "function",
      "constant": true
    },
    {
      "inputs": [
        {
          "internalType": "address",
          "name": "from",
          "type": "address"
        },
        {
          "internalType": "address",
          "name": "to",
          "type": "address"
        },
        {
          "internalType": "uint256",
          "name": "tokenId",
          "type": "uint256"
        }
      ],
      "name": "transferFrom",
      "outputs": [],
      "stateMutability": "nonpayable",
      "type": "function"
    },
    {
      "inputs": [
        {
          "internalType": "address",
          "name": "newOwner",
          "type": "address"
        }
      ],
      "name": "transferOwnership",
      "outputs": [],
      "stateMutability": "nonpayable",
      "type": "function"
    },
    {
      "inputs": [
        {
          "internalType": "address",
          "name": "_from",
          "type": "address"
        },
        {
          "internalType": "string",
          "name": "_owner",
          "type": "string"
        },
        {
          "internalType": "string",
          "name": "_name",
          "type": "string"
        },
        {
          "internalType": "string",
          "name": "_description",
          "type": "string"
        },
        {
          "internalType": "uint256",
          "name": "_price",
          "type": "uint256"
        }
      ],
      "name": "safeMint",
      "outputs": [
        {
          "internalType": "bool",
          "name": "",
          "type": "bool"
        }
      ],
      "stateMutability": "nonpayable",
      "type": "function"
    },
    {
      "inputs": [
        {
          "internalType": "string",
          "name": "owner",
          "type": "string"
        },
        {
          "internalType": "uint256",
          "name": "indx",
          "type": "uint256"
        },
        {
          "internalType": "uint256",
          "name": "val",
          "type": "uint256"
        }
      ],
      "name": "setProductPrice",
      "outputs": [
        {
          "internalType": "bool",
          "name": "",
          "type": "bool"
        }
      ],
      "stateMutability": "nonpayable",
      "type": "function"
    },
    {
      "inputs": [
        {
          "internalType": "string",
          "name": "_owner",
          "type": "string"
        }
      ],
      "name": "getProductByUser",
      "outputs": [
        {
          "components": [
            {
              "internalType": "string",
              "name": "name",
              "type": "string"
            },
            {
              "internalType": "string",
              "name": "description",
              "type": "string"
            },
            {
              "internalType": "address",
              "name": "owner",
              "type": "address"
            },
            {
              "internalType": "uint256",
              "name": "price",
              "type": "uint256"
            }
          ],
          "internalType": "struct MyNft.Product[]",
          "name": "",
          "type": "tuple[]"
        }
      ],
      "stateMutability": "view",
      "type": "function",
      "constant": true
    },
    {
      "inputs": [
        {
          "internalType": "uint256",
          "name": "_tokenId",
          "type": "uint256"
        }
      ],
      "name": "getProductByTokenId",
      "outputs": [
        {
          "components": [
            {
              "internalType": "string",
              "name": "name",
              "type": "string"
            },
            {
              "internalType": "string",
              "name": "description",
              "type": "string"
            },
            {
              "internalType": "address",
              "name": "owner",
              "type": "address"
            },
            {
              "internalType": "uint256",
              "name": "price",
              "type": "uint256"
            }
          ],
          "internalType": "struct MyNft.Product",
          "name": "",
          "type": "tuple"
        }
      ],
      "stateMutability": "view",
      "type": "function",
      "constant": true
    },
    {
      "inputs": [
        {
          "internalType": "uint256",
          "name": "_tokenId",
          "type": "uint256"
        },
        {
          "internalType": "address",
          "name": "_toownerAddress",
          "type": "address"
        }
      ],
      "name": "buyProductByTokenId",
      "outputs": [
        {
          "components": [
            {
              "internalType": "string",
              "name": "name",
              "type": "string"
            },
            {
              "internalType": "string",
              "name": "description",
              "type": "string"
            },
            {
              "internalType": "address",
              "name": "owner",
              "type": "address"
            },
            {
              "internalType": "uint256",
              "name": "price",
              "type": "uint256"
            }
          ],
          "internalType": "struct MyNft.Product",
          "name": "",
          "type": "tuple"
        }
      ],
      "stateMutability": "nonpayable",
      "type": "function"
    },
    {
      "inputs": [],
      "name": "listOfPRoducts",
      "outputs": [
        {
          "components": [
            {
              "internalType": "string",
              "name": "name",
              "type": "string"
            },
            {
              "internalType": "string",
              "name": "description",
              "type": "string"
            },
            {
              "internalType": "address",
              "name": "owner",
              "type": "address"
            },
            {
              "internalType": "uint256",
              "name": "price",
              "type": "uint256"
            }
          ],
          "internalType": "struct MyNft.Product[]",
          "name": "",
          "type": "tuple[]"
        }
      ],
      "stateMutability": "view",
      "type": "function",
      "constant": true
    },
    {
      "inputs": [],
      "name": "getBalance",
      "outputs": [
        {
          "internalType": "uint256",
          "name": "",
          "type": "uint256"
        }
      ],
      "stateMutability": "view",
      "type": "function",
      "constant": true
    }
  ],
  "bytecode": "0x60806040523480156200001157600080fd5b506040516200489038038062004890833981810160405281019062000037919062000269565b6040518060400160405280600581526020017f4d794e66740000000000000000000000000000000000000000000000000000008152506040518060400160405280600381526020017f4d545800000000000000000000000000000000000000000000000000000000008152508160009081620000b4919062000515565b508060019081620000c6919062000515565b505050620000e9620000dd6200013160201b60201c565b6200013960201b60201c565b80600760006101000a81548173ffffffffffffffffffffffffffffffffffffffff021916908373ffffffffffffffffffffffffffffffffffffffff16021790555050620005fc565b600033905090565b6000600660009054906101000a900473ffffffffffffffffffffffffffffffffffffffff16905081600660006101000a81548173ffffffffffffffffffffffffffffffffffffffff021916908373ffffffffffffffffffffffffffffffffffffffff1602179055508173ffffffffffffffffffffffffffffffffffffffff168173ffffffffffffffffffffffffffffffffffffffff167f8be0079c531659141344cd1fd0a4f28419497f9722a3daafe3b4186f6b6457e060405160405180910390a35050565b600080fd5b600073ffffffffffffffffffffffffffffffffffffffff82169050919050565b6000620002318262000204565b9050919050565b620002438162000224565b81146200024f57600080fd5b50565b600081519050620002638162000238565b92915050565b600060208284031215620002825762000281620001ff565b5b6000620002928482850162000252565b91505092915050565b600081519050919050565b7f4e487b7100000000000000000000000000000000000000000000000000000000600052604160045260246000fd5b7f4e487b7100000000000000000000000000000000000000000000000000000000600052602260045260246000fd5b600060028204905060018216806200031d57607f821691505b602082108103620003335762000332620002d5565b5b50919050565b60008190508160005260206000209050919050565b60006020601f8301049050919050565b600082821b905092915050565b6000600883026200039d7fffffffffffffffffffffffffffffffffffffffffffffffffffffffffffffffff826200035e565b620003a986836200035e565b95508019841693508086168417925050509392505050565b6000819050919050565b6000819050919050565b6000620003f6620003f0620003ea84620003c1565b620003cb565b620003c1565b9050919050565b6000819050919050565b6200041283620003d5565b6200042a6200042182620003fd565b8484546200036b565b825550505050565b600090565b6200044162000432565b6200044e81848462000407565b505050565b5b8181101562000476576200046a60008262000437565b60018101905062000454565b5050565b601f821115620004c5576200048f8162000339565b6200049a846200034e565b81016020851015620004aa578190505b620004c2620004b9856200034e565b83018262000453565b50505b505050565b600082821c905092915050565b6000620004ea60001984600802620004ca565b1980831691505092915050565b6000620005058383620004d7565b9150826002028217905092915050565b62000520826200029b565b67ffffffffffffffff8111156200053c576200053b620002a6565b5b62000548825462000304565b620005558282856200047a565b600060209050601f8311600181146200058d576000841562000578578287015190505b620005848582620004f7565b865550620005f4565b601f1984166200059d8662000339565b60005b82811015620005c757848901518255600182019150602085019450602081019050620005a0565b86831015620005e75784890151620005e3601f891682620004d7565b8355505b6001600288020188555050505b505050505050565b614284806200060c6000396000f3fe608060405234801561001057600080fd5b50600436106101735760003560e01c8063715018a6116100de578063a22cb46511610097578063c75b7cb611610071578063c75b7cb614610475578063c87b56dd146104a5578063e985e9c5146104d5578063f2fde38b1461050557610173565b8063a22cb4651461040d578063b03ad3b214610429578063b88d4fde1461045957610173565b8063715018a6146103465780637a708d5f146103505780637acc0b20146103805780638da5cb5b146103b357806395d89b41146103d15780639d76ea58146103ef57610173565b806323b872dd1161013057806323b872dd1461026057806342842e0e1461027c5780634b09c5d9146102985780636352211e146102c8578063695425cf146102f857806370a082311461031657610173565b806301ffc9a714610178578063057dfcb1146101a857806306fdde03146101d8578063081812fc146101f6578063095ea7b31461022657806312065fe014610242575b600080fd5b610192600480360381019061018d9190612abd565b610521565b60405161019f9190612b05565b60405180910390f35b6101c260048036038101906101bd9190612b56565b610603565b6040516101cf9190612ccd565b60405180910390f35b6101e06107b4565b6040516101ed9190612d39565b60405180910390f35b610210600480360381019061020b9190612b56565b610846565b60405161021d9190612d6a565b60405180910390f35b610240600480360381019061023b9190612db1565b61088c565b005b61024a6109a3565b6040516102579190612e00565b60405180910390f35b61027a60048036038101906102759190612e1b565b610a46565b005b61029660048036038101906102919190612e1b565b610aa6565b005b6102b260048036038101906102ad9190612fa3565b610ac6565b6040516102bf9190612b05565b60405180910390f35b6102e260048036038101906102dd9190612b56565b610b31565b6040516102ef9190612d6a565b60405180910390f35b610300610bb7565b60405161030d919061313e565b60405180910390f35b610330600480360381019061032b9190613160565b610d9a565b60405161033d9190612e00565b60405180910390f35b61034e610e51565b005b61036a6004803603810190610365919061318d565b610e65565b6040516103779190612ccd565b60405180910390f35b61039a60048036038101906103959190612b56565b611100565b6040516103aa94939291906131cd565b60405180910390f35b6103bb611270565b6040516103c89190612d6a565b60405180910390f35b6103d961129a565b6040516103e69190612d39565b60405180910390f35b6103f761132c565b604051610404919061327f565b60405180910390f35b610427600480360381019061042291906132c6565b611352565b005b610443600480360381019061043e9190613306565b611368565b6040516104509190612b05565b60405180910390f35b610473600480360381019061046e9190613476565b6115db565b005b61048f600480360381019061048a91906134f9565b61163d565b60405161049c919061313e565b60405180910390f35b6104bf60048036038101906104ba9190612b56565b61183e565b6040516104cc9190612d39565b60405180910390f35b6104ef60048036038101906104ea9190613542565b6118a6565b6040516104fc9190612b05565b60405180910390f35b61051f600480360381019061051a9190613160565b61193a565b005b60007f80ac58cd000000000000000000000000000000000000000000000000000000007bffffffffffffffffffffffffffffffffffffffffffffffffffffffff1916827bffffffffffffffffffffffffffffffffffffffffffffffffffffffff191614806105ec57507f5b5e139f000000000000000000000000000000000000000000000000000000007bffffffffffffffffffffffffffffffffffffffffffffffffffffffff1916827bffffffffffffffffffffffffffffffffffffffffffffffffffffffff1916145b806105fc57506105fb826119bd565b5b9050919050565b61060b612a13565b600a6000838152602001908152602001600020604051806080016040529081600082018054610639906135b1565b80601f0160208091040260200160405190810160405280929190818152602001828054610665906135b1565b80156106b25780601f10610687576101008083540402835291602001916106b2565b820191906000526020600020905b81548152906001019060200180831161069557829003601f168201915b505050505081526020016001820180546106cb906135b1565b80601f01602080910402602001604051908101604052809291908181526020018280546106f7906135b1565b80156107445780601f1061071957610100808354040283529160200191610744565b820191906000526020600020905b81548152906001019060200180831161072757829003601f168201915b505050505081526020016002820160009054906101000a900473ffffffffffffffffffffffffffffffffffffffff1673ffffffffffffffffffffffffffffffffffffffff1673ffffffffffffffffffffffffffffffffffffffff1681526020016003820154815250509050919050565b6060600080546107c3906135b1565b80601f01602080910402602001604051908101604052809291908181526020018280546107ef906135b1565b801561083c5780601f106108115761010080835404028352916020019161083c565b820191906000526020600020905b81548152906001019060200180831161081f57829003601f168201915b5050505050905090565b600061085182611a27565b6004600083815260200190815260200160002060009054906101000a900473ffffffffffffffffffffffffffffffffffffffff169050919050565b600061089782610b31565b90508073ffffffffffffffffffffffffffffffffffffffff168373ffffffffffffffffffffffffffffffffffffffff1603610907576040517f08c379a00000000000000000000000000000000000000000000000000000000081526004016108fe90613654565b60405180910390fd5b8073ffffffffffffffffffffffffffffffffffffffff16610926611a72565b73ffffffffffffffffffffffffffffffffffffffff16148061095557506109548161094f611a72565b6118a6565b5b610994576040517f08c379a000000000000000000000000000000000000000000000000000000000815260040161098b906136e6565b60405180910390fd5b61099e8383611a7a565b505050565b6000600760009054906101000a900473ffffffffffffffffffffffffffffffffffffffff1673ffffffffffffffffffffffffffffffffffffffff166370a08231306040518263ffffffff1660e01b8152600401610a009190612d6a565b602060405180830381865afa158015610a1d573d6000803e3d6000fd5b505050506040513d601f19601f82011682018060405250810190610a41919061371b565b905090565b610a57610a51611a72565b82611b33565b610a96576040517f08c379a0000000000000000000000000000000000000000000000000000000008152600401610a8d906137ba565b60405180910390fd5b610aa1838383611bc8565b505050565b610ac1838383604051806020016040528060008152506115db565b505050565b600080600985604051610ad99190613816565b90815260200160405180910390208481548110610af957610af861382d565b5b90600052602060002090600402019050670de0b6b3a764000083610b1d919061388b565b816003018190555060019150509392505050565b600080610b3d83611ec1565b9050600073ffffffffffffffffffffffffffffffffffffffff168173ffffffffffffffffffffffffffffffffffffffff1603610bae576040517f08c379a0000000000000000000000000000000000000000000000000000000008152600401610ba590613919565b60405180910390fd5b80915050919050565b60606008805480602002602001604051908101604052809291908181526020016000905b82821015610d915783829060005260206000209060040201604051806080016040529081600082018054610c0e906135b1565b80601f0160208091040260200160405190810160405280929190818152602001828054610c3a906135b1565b8015610c875780601f10610c5c57610100808354040283529160200191610c87565b820191906000526020600020905b815481529060010190602001808311610c6a57829003601f168201915b50505050508152602001600182018054610ca0906135b1565b80601f0160208091040260200160405190810160405280929190818152602001828054610ccc906135b1565b8015610d195780601f10610cee57610100808354040283529160200191610d19565b820191906000526020600020905b815481529060010190602001808311610cfc57829003601f168201915b505050505081526020016002820160009054906101000a900473ffffffffffffffffffffffffffffffffffffffff1673ffffffffffffffffffffffffffffffffffffffff1673ffffffffffffffffffffffffffffffffffffffff16815260200160038201548152505081526020019060010190610bdb565b50505050905090565b60008073ffffffffffffffffffffffffffffffffffffffff168273ffffffffffffffffffffffffffffffffffffffff1603610e0a576040517f08c379a0000000000000000000000000000000000000000000000000000000008152600401610e01906139ab565b60405180910390fd5b600360008373ffffffffffffffffffffffffffffffffffffffff1673ffffffffffffffffffffffffffffffffffffffff168152602001908152602001600020549050919050565b610e59611efe565b610e636000611f7c565b565b610e6d612a13565b6000600a6000858152602001908152602001600020604051806080016040529081600082018054610e9d906135b1565b80601f0160208091040260200160405190810160405280929190818152602001828054610ec9906135b1565b8015610f165780601f10610eeb57610100808354040283529160200191610f16565b820191906000526020600020905b815481529060010190602001808311610ef957829003601f168201915b50505050508152602001600182018054610f2f906135b1565b80601f0160208091040260200160405190810160405280929190818152602001828054610f5b906135b1565b8015610fa85780601f10610f7d57610100808354040283529160200191610fa8565b820191906000526020600020905b815481529060010190602001808311610f8b57829003601f168201915b505050505081526020016002820160009054906101000a900473ffffffffffffffffffffffffffffffffffffffff1673ffffffffffffffffffffffffffffffffffffffff1673ffffffffffffffffffffffffffffffffffffffff1681526020016003820154815250509050600760009054906101000a900473ffffffffffffffffffffffffffffffffffffffff1673ffffffffffffffffffffffffffffffffffffffff166323b872dd84836040015184606001516040518463ffffffff1660e01b815260040161107a939291906139cb565b6020604051808303816000875af1158015611099573d6000803e3d6000fd5b505050506040513d601f19601f820116820180604052508101906110bd9190613a17565b5082816040019073ffffffffffffffffffffffffffffffffffffffff16908173ffffffffffffffffffffffffffffffffffffffff16815250508091505092915050565b6008818154811061111057600080fd5b9060005260206000209060040201600091509050806000018054611133906135b1565b80601f016020809104026020016040519081016040528092919081815260200182805461115f906135b1565b80156111ac5780601f10611181576101008083540402835291602001916111ac565b820191906000526020600020905b81548152906001019060200180831161118f57829003601f168201915b5050505050908060010180546111c1906135b1565b80601f01602080910402602001604051908101604052809291908181526020018280546111ed906135b1565b801561123a5780601f1061120f5761010080835404028352916020019161123a565b820191906000526020600020905b81548152906001019060200180831161121d57829003601f168201915b5050505050908060020160009054906101000a900473ffffffffffffffffffffffffffffffffffffffff16908060030154905084565b6000600660009054906101000a900473ffffffffffffffffffffffffffffffffffffffff16905090565b6060600180546112a9906135b1565b80601f01602080910402602001604051908101604052809291908181526020018280546112d5906135b1565b80156113225780601f106112f757610100808354040283529160200191611322565b820191906000526020600020905b81548152906001019060200180831161130557829003601f168201915b5050505050905090565b600760009054906101000a900473ffffffffffffffffffffffffffffffffffffffff1681565b61136461135d611a72565b8383612042565b5050565b60008060405180608001604052808681526020018581526020018873ffffffffffffffffffffffffffffffffffffffff1681526020018481525090506009866040516113b49190613816565b908152602001604051809103902081908060018154018082558091505060019003906000526020600020906004020160009091909190915060008201518160000190816114019190613be6565b5060208201518160010190816114179190613be6565b5060408201518160020160006101000a81548173ffffffffffffffffffffffffffffffffffffffff021916908373ffffffffffffffffffffffffffffffffffffffff160217905550606082015181600301555050611475600b6121ae565b6000611481600b6121c4565b905061148d88826121d2565b81600a600083815260200190815260200160002060008201518160000190816114b69190613be6565b5060208201518160010190816114cc9190613be6565b5060408201518160020160006101000a81548173ffffffffffffffffffffffffffffffffffffffff021916908373ffffffffffffffffffffffffffffffffffffffff16021790555060608201518160030155905050600882908060018154018082558091505060019003906000526020600020906004020160009091909190915060008201518160000190816115629190613be6565b5060208201518160010190816115789190613be6565b5060408201518160020160006101000a81548173ffffffffffffffffffffffffffffffffffffffff021916908373ffffffffffffffffffffffffffffffffffffffff16021790555060608201518160030155505060019250505095945050505050565b6115ec6115e6611a72565b83611b33565b61162b576040517f08c379a0000000000000000000000000000000000000000000000000000000008152600401611622906137ba565b60405180910390fd5b611637848484846121f0565b50505050565b606060098260405161164f9190613816565b9081526020016040518091039020805480602002602001604051908101604052809291908181526020016000905b8282101561183357838290600052602060002090600402016040518060800160405290816000820180546116b0906135b1565b80601f01602080910402602001604051908101604052809291908181526020018280546116dc906135b1565b80156117295780601f106116fe57610100808354040283529160200191611729565b820191906000526020600020905b81548152906001019060200180831161170c57829003601f168201915b50505050508152602001600182018054611742906135b1565b80601f016020809104026020016040519081016040528092919081815260200182805461176e906135b1565b80156117bb5780601f10611790576101008083540402835291602001916117bb565b820191906000526020600020905b81548152906001019060200180831161179e57829003601f168201915b505050505081526020016002820160009054906101000a900473ffffffffffffffffffffffffffffffffffffffff1673ffffffffffffffffffffffffffffffffffffffff1673ffffffffffffffffffffffffffffffffffffffff1681526020016003820154815250508152602001906001019061167d565b505050509050919050565b606061184982611a27565b600061185361224c565b90506000815111611873576040518060200160405280600081525061189e565b8061187d84612263565b60405160200161188e929190613cb8565b6040516020818303038152906040525b915050919050565b6000600560008473ffffffffffffffffffffffffffffffffffffffff1673ffffffffffffffffffffffffffffffffffffffff16815260200190815260200160002060008373ffffffffffffffffffffffffffffffffffffffff1673ffffffffffffffffffffffffffffffffffffffff16815260200190815260200160002060009054906101000a900460ff16905092915050565b611942611efe565b600073ffffffffffffffffffffffffffffffffffffffff168173ffffffffffffffffffffffffffffffffffffffff16036119b1576040517f08c379a00000000000000000000000000000000000000000000000000000000081526004016119a890613d4e565b60405180910390fd5b6119ba81611f7c565b50565b60007f01ffc9a7000000000000000000000000000000000000000000000000000000007bffffffffffffffffffffffffffffffffffffffffffffffffffffffff1916827bffffffffffffffffffffffffffffffffffffffffffffffffffffffff1916149050919050565b611a3081612331565b611a6f576040517f08c379a0000000000000000000000000000000000000000000000000000000008152600401611a6690613919565b60405180910390fd5b50565b600033905090565b816004600083815260200190815260200160002060006101000a81548173ffffffffffffffffffffffffffffffffffffffff021916908373ffffffffffffffffffffffffffffffffffffffff160217905550808273ffffffffffffffffffffffffffffffffffffffff16611aed83610b31565b73ffffffffffffffffffffffffffffffffffffffff167f8c5be1e5ebec7d5bd14f71427d1e84f3dd0314c0f7b2291e5b200ac8c7c3b92560405160405180910390a45050565b600080611b3f83610b31565b90508073ffffffffffffffffffffffffffffffffffffffff168473ffffffffffffffffffffffffffffffffffffffff161480611b815750611b8081856118a6565b5b80611bbf57508373ffffffffffffffffffffffffffffffffffffffff16611ba784610846565b73ffffffffffffffffffffffffffffffffffffffff16145b91505092915050565b8273ffffffffffffffffffffffffffffffffffffffff16611be882610b31565b73ffffffffffffffffffffffffffffffffffffffff1614611c3e576040517f08c379a0000000000000000000000000000000000000000000000000000000008152600401611c3590613de0565b60405180910390fd5b600073ffffffffffffffffffffffffffffffffffffffff168273ffffffffffffffffffffffffffffffffffffffff1603611cad576040517f08c379a0000000000000000000000000000000000000000000000000000000008152600401611ca490613e72565b60405180910390fd5b611cba8383836001612372565b8273ffffffffffffffffffffffffffffffffffffffff16611cda82610b31565b73ffffffffffffffffffffffffffffffffffffffff1614611d30576040517f08c379a0000000000000000000000000000000000000000000000000000000008152600401611d2790613de0565b60405180910390fd5b6004600082815260200190815260200160002060006101000a81549073ffffffffffffffffffffffffffffffffffffffff02191690556001600360008573ffffffffffffffffffffffffffffffffffffffff1673ffffffffffffffffffffffffffffffffffffffff168152602001908152602001600020600082825403925050819055506001600360008473ffffffffffffffffffffffffffffffffffffffff1673ffffffffffffffffffffffffffffffffffffffff16815260200190815260200160002060008282540192505081905550816002600083815260200190815260200160002060006101000a81548173ffffffffffffffffffffffffffffffffffffffff021916908373ffffffffffffffffffffffffffffffffffffffff160217905550808273ffffffffffffffffffffffffffffffffffffffff168473ffffffffffffffffffffffffffffffffffffffff167fddf252ad1be2c89b69c2b068fc378daa952ba7f163c4a11628f55a4df523b3ef60405160405180910390a4611ebc8383836001612498565b505050565b60006002600083815260200190815260200160002060009054906101000a900473ffffffffffffffffffffffffffffffffffffffff169050919050565b611f06611a72565b73ffffffffffffffffffffffffffffffffffffffff16611f24611270565b73ffffffffffffffffffffffffffffffffffffffff1614611f7a576040517f08c379a0000000000000000000000000000000000000000000000000000000008152600401611f7190613ede565b60405180910390fd5b565b6000600660009054906101000a900473ffffffffffffffffffffffffffffffffffffffff16905081600660006101000a81548173ffffffffffffffffffffffffffffffffffffffff021916908373ffffffffffffffffffffffffffffffffffffffff1602179055508173ffffffffffffffffffffffffffffffffffffffff168173ffffffffffffffffffffffffffffffffffffffff167f8be0079c531659141344cd1fd0a4f28419497f9722a3daafe3b4186f6b6457e060405160405180910390a35050565b8173ffffffffffffffffffffffffffffffffffffffff168373ffffffffffffffffffffffffffffffffffffffff16036120b0576040517f08c379a00000000000000000000000000000000000000000000000000000000081526004016120a790613f4a565b60405180910390fd5b80600560008573ffffffffffffffffffffffffffffffffffffffff1673ffffffffffffffffffffffffffffffffffffffff16815260200190815260200160002060008473ffffffffffffffffffffffffffffffffffffffff1673ffffffffffffffffffffffffffffffffffffffff16815260200190815260200160002060006101000a81548160ff0219169083151502179055508173ffffffffffffffffffffffffffffffffffffffff168373ffffffffffffffffffffffffffffffffffffffff167f17307eab39ab6107e8899845ad3d59bd9653f200f220920489ca2b5937696c31836040516121a19190612b05565b60405180910390a3505050565b6001816000016000828254019250508190555050565b600081600001549050919050565b6121ec82826040518060200160405280600081525061249e565b5050565b6121fb848484611bc8565b612207848484846124f9565b612246576040517f08c379a000000000000000000000000000000000000000000000000000000000815260040161223d90613fdc565b60405180910390fd5b50505050565b606060405180602001604052806000815250905090565b60606000600161227284612680565b01905060008167ffffffffffffffff81111561229157612290612e78565b5b6040519080825280601f01601f1916602001820160405280156122c35781602001600182028036833780820191505090505b509050600082602001820190505b600115612326578080600190039150507f3031323334353637383961626364656600000000000000000000000000000000600a86061a8153600a858161231a57612319613ffc565b5b049450600085036122d1575b819350505050919050565b60008073ffffffffffffffffffffffffffffffffffffffff1661235383611ec1565b73ffffffffffffffffffffffffffffffffffffffff1614159050919050565b600181111561249257600073ffffffffffffffffffffffffffffffffffffffff168473ffffffffffffffffffffffffffffffffffffffff16146124065780600360008673ffffffffffffffffffffffffffffffffffffffff1673ffffffffffffffffffffffffffffffffffffffff16815260200190815260200160002060008282546123fe919061402b565b925050819055505b600073ffffffffffffffffffffffffffffffffffffffff168373ffffffffffffffffffffffffffffffffffffffff16146124915780600360008573ffffffffffffffffffffffffffffffffffffffff1673ffffffffffffffffffffffffffffffffffffffff1681526020019081526020016000206000828254612489919061405f565b925050819055505b5b50505050565b50505050565b6124a883836127d3565b6124b560008484846124f9565b6124f4576040517f08c379a00000000000000000000000000000000000000000000000000000000081526004016124eb90613fdc565b60405180910390fd5b505050565b600061251a8473ffffffffffffffffffffffffffffffffffffffff166129f0565b15612673578373ffffffffffffffffffffffffffffffffffffffff1663150b7a02612543611a72565b8786866040518563ffffffff1660e01b815260040161256594939291906140e8565b6020604051808303816000875af19250505080156125a157506040513d601f19601f8201168201806040525081019061259e9190614149565b60015b612623573d80600081146125d1576040519150601f19603f3d011682016040523d82523d6000602084013e6125d6565b606091505b50600081510361261b576040517f08c379a000000000000000000000000000000000000000000000000000000000815260040161261290613fdc565b60405180910390fd5b805181602001fd5b63150b7a0260e01b7bffffffffffffffffffffffffffffffffffffffffffffffffffffffff1916817bffffffffffffffffffffffffffffffffffffffffffffffffffffffff191614915050612678565b600190505b949350505050565b600080600090507a184f03e93ff9f4daa797ed6e38ed64bf6a1f01000000000000000083106126de577a184f03e93ff9f4daa797ed6e38ed64bf6a1f01000000000000000083816126d4576126d3613ffc565b5b0492506040810190505b6d04ee2d6d415b85acef8100000000831061271b576d04ee2d6d415b85acef8100000000838161271157612710613ffc565b5b0492506020810190505b662386f26fc10000831061274a57662386f26fc1000083816127405761273f613ffc565b5b0492506010810190505b6305f5e1008310612773576305f5e100838161276957612768613ffc565b5b0492506008810190505b612710831061279857612710838161278e5761278d613ffc565b5b0492506004810190505b606483106127bb57606483816127b1576127b0613ffc565b5b0492506002810190505b600a83106127ca576001810190505b80915050919050565b600073ffffffffffffffffffffffffffffffffffffffff168273ffffffffffffffffffffffffffffffffffffffff1603612842576040517f08c379a0000000000000000000000000000000000000000000000000000000008152600401612839906141c2565b60405180910390fd5b61284b81612331565b1561288b576040517f08c379a00000000000000000000000000000000000000000000000000000000081526004016128829061422e565b60405180910390fd5b612899600083836001612372565b6128a281612331565b156128e2576040517f08c379a00000000000000000000000000000000000000000000000000000000081526004016128d99061422e565b60405180910390fd5b6001600360008473ffffffffffffffffffffffffffffffffffffffff1673ffffffffffffffffffffffffffffffffffffffff16815260200190815260200160002060008282540192505081905550816002600083815260200190815260200160002060006101000a81548173ffffffffffffffffffffffffffffffffffffffff021916908373ffffffffffffffffffffffffffffffffffffffff160217905550808273ffffffffffffffffffffffffffffffffffffffff16600073ffffffffffffffffffffffffffffffffffffffff167fddf252ad1be2c89b69c2b068fc378daa952ba7f163c4a11628f55a4df523b3ef60405160405180910390a46129ec600083836001612498565b5050565b6000808273ffffffffffffffffffffffffffffffffffffffff163b119050919050565b60405180608001604052806060815260200160608152602001600073ffffffffffffffffffffffffffffffffffffffff168152602001600081525090565b6000604051905090565b600080fd5b600080fd5b60007fffffffff0000000000000000000000000000000000000000000000000000000082169050919050565b612a9a81612a65565b8114612aa557600080fd5b50565b600081359050612ab781612a91565b92915050565b600060208284031215612ad357612ad2612a5b565b5b6000612ae184828501612aa8565b91505092915050565b60008115159050919050565b612aff81612aea565b82525050565b6000602082019050612b1a6000830184612af6565b92915050565b6000819050919050565b612b3381612b20565b8114612b3e57600080fd5b50565b600081359050612b5081612b2a565b92915050565b600060208284031215612b6c57612b6b612a5b565b5b6000612b7a84828501612b41565b91505092915050565b600081519050919050565b600082825260208201905092915050565b60005b83811015612bbd578082015181840152602081019050612ba2565b60008484015250505050565b6000601f19601f8301169050919050565b6000612be582612b83565b612bef8185612b8e565b9350612bff818560208601612b9f565b612c0881612bc9565b840191505092915050565b600073ffffffffffffffffffffffffffffffffffffffff82169050919050565b6000612c3e82612c13565b9050919050565b612c4e81612c33565b82525050565b612c5d81612b20565b82525050565b60006080830160008301518482036000860152612c808282612bda565b91505060208301518482036020860152612c9a8282612bda565b9150506040830151612caf6040860182612c45565b506060830151612cc26060860182612c54565b508091505092915050565b60006020820190508181036000830152612ce78184612c63565b905092915050565b600082825260208201905092915050565b6000612d0b82612b83565b612d158185612cef565b9350612d25818560208601612b9f565b612d2e81612bc9565b840191505092915050565b60006020820190508181036000830152612d538184612d00565b905092915050565b612d6481612c33565b82525050565b6000602082019050612d7f6000830184612d5b565b92915050565b612d8e81612c33565b8114612d9957600080fd5b50565b600081359050612dab81612d85565b92915050565b60008060408385031215612dc857612dc7612a5b565b5b6000612dd685828601612d9c565b9250506020612de785828601612b41565b9150509250929050565b612dfa81612b20565b82525050565b6000602082019050612e156000830184612df1565b92915050565b600080600060608486031215612e3457612e33612a5b565b5b6000612e4286828701612d9c565b9350506020612e5386828701612d9c565b9250506040612e6486828701612b41565b9150509250925092565b600080fd5b600080fd5b7f4e487b7100000000000000000000000000000000000000000000000000000000600052604160045260246000fd5b612eb082612bc9565b810181811067ffffffffffffffff82111715612ecf57612ece612e78565b5b80604052505050565b6000612ee2612a51565b9050612eee8282612ea7565b919050565b600067ffffffffffffffff821115612f0e57612f0d612e78565b5b612f1782612bc9565b9050602081019050919050565b82818337600083830152505050565b6000612f46612f4184612ef3565b612ed8565b905082815260208101848484011115612f6257612f61612e73565b5b612f6d848285612f24565b509392505050565b600082601f830112612f8a57612f89612e6e565b5b8135612f9a848260208601612f33565b91505092915050565b600080600060608486031215612fbc57612fbb612a5b565b5b600084013567ffffffffffffffff811115612fda57612fd9612a60565b5b612fe686828701612f75565b9350506020612ff786828701612b41565b925050604061300886828701612b41565b9150509250925092565b600081519050919050565b600082825260208201905092915050565b6000819050602082019050919050565b6000608083016000830151848203600086015261305b8282612bda565b915050602083015184820360208601526130758282612bda565b915050604083015161308a6040860182612c45565b50606083015161309d6060860182612c54565b508091505092915050565b60006130b4838361303e565b905092915050565b6000602082019050919050565b60006130d482613012565b6130de818561301d565b9350836020820285016130f08561302e565b8060005b8581101561312c578484038952815161310d85826130a8565b9450613118836130bc565b925060208a019950506001810190506130f4565b50829750879550505050505092915050565b6000602082019050818103600083015261315881846130c9565b905092915050565b60006020828403121561317657613175612a5b565b5b600061318484828501612d9c565b91505092915050565b600080604083850312156131a4576131a3612a5b565b5b60006131b285828601612b41565b92505060206131c385828601612d9c565b9150509250929050565b600060808201905081810360008301526131e78187612d00565b905081810360208301526131fb8186612d00565b905061320a6040830185612d5b565b6132176060830184612df1565b95945050505050565b6000819050919050565b600061324561324061323b84612c13565b613220565b612c13565b9050919050565b60006132578261322a565b9050919050565b60006132698261324c565b9050919050565b6132798161325e565b82525050565b60006020820190506132946000830184613270565b92915050565b6132a381612aea565b81146132ae57600080fd5b50565b6000813590506132c08161329a565b92915050565b600080604083850312156132dd576132dc612a5b565b5b60006132eb85828601612d9c565b92505060206132fc858286016132b1565b9150509250929050565b600080600080600060a0868803121561332257613321612a5b565b5b600061333088828901612d9c565b955050602086013567ffffffffffffffff81111561335157613350612a60565b5b61335d88828901612f75565b945050604086013567ffffffffffffffff81111561337e5761337d612a60565b5b61338a88828901612f75565b935050606086013567ffffffffffffffff8111156133ab576133aa612a60565b5b6133b788828901612f75565b92505060806133c888828901612b41565b9150509295509295909350565b600067ffffffffffffffff8211156133f0576133ef612e78565b5b6133f982612bc9565b9050602081019050919050565b6000613419613414846133d5565b612ed8565b90508281526020810184848401111561343557613434612e73565b5b613440848285612f24565b509392505050565b600082601f83011261345d5761345c612e6e565b5b813561346d848260208601613406565b91505092915050565b600080600080608085870312156134905761348f612a5b565b5b600061349e87828801612d9c565b94505060206134af87828801612d9c565b93505060406134c087828801612b41565b925050606085013567ffffffffffffffff8111156134e1576134e0612a60565b5b6134ed87828801613448565b91505092959194509250565b60006020828403121561350f5761350e612a5b565b5b600082013567ffffffffffffffff81111561352d5761352c612a60565b5b61353984828501612f75565b91505092915050565b6000806040838503121561355957613558612a5b565b5b600061356785828601612d9c565b925050602061357885828601612d9c565b9150509250929050565b7f4e487b7100000000000000000000000000000000000000000000000000000000600052602260045260246000fd5b600060028204905060018216806135c957607f821691505b6020821081036135dc576135db613582565b5b50919050565b7f4552433732313a20617070726f76616c20746f2063757272656e74206f776e6560008201527f7200000000000000000000000000000000000000000000000000000000000000602082015250565b600061363e602183612cef565b9150613649826135e2565b604082019050919050565b6000602082019050818103600083015261366d81613631565b9050919050565b7f4552433732313a20617070726f76652063616c6c6572206973206e6f7420746f60008201527f6b656e206f776e6572206f7220617070726f76656420666f7220616c6c000000602082015250565b60006136d0603d83612cef565b91506136db82613674565b604082019050919050565b600060208201905081810360008301526136ff816136c3565b9050919050565b60008151905061371581612b2a565b92915050565b60006020828403121561373157613730612a5b565b5b600061373f84828501613706565b91505092915050565b7f4552433732313a2063616c6c6572206973206e6f7420746f6b656e206f776e6560008201527f72206f7220617070726f76656400000000000000000000000000000000000000602082015250565b60006137a4602d83612cef565b91506137af82613748565b604082019050919050565b600060208201905081810360008301526137d381613797565b9050919050565b600081905092915050565b60006137f082612b83565b6137fa81856137da565b935061380a818560208601612b9f565b80840191505092915050565b600061382282846137e5565b915081905092915050565b7f4e487b7100000000000000000000000000000000000000000000000000000000600052603260045260246000fd5b7f4e487b7100000000000000000000000000000000000000000000000000000000600052601160045260246000fd5b600061389682612b20565b91506138a183612b20565b92508282026138af81612b20565b915082820484148315176138c6576138c561385c565b5b5092915050565b7f4552433732313a20696e76616c696420746f6b656e2049440000000000000000600082015250565b6000613903601883612cef565b915061390e826138cd565b602082019050919050565b60006020820190508181036000830152613932816138f6565b9050919050565b7f4552433732313a2061646472657373207a65726f206973206e6f74206120766160008201527f6c6964206f776e65720000000000000000000000000000000000000000000000602082015250565b6000613995602983612cef565b91506139a082613939565b604082019050919050565b600060208201905081810360008301526139c481613988565b9050919050565b60006060820190506139e06000830186612d5b565b6139ed6020830185612d5b565b6139fa6040830184612df1565b949350505050565b600081519050613a118161329a565b92915050565b600060208284031215613a2d57613a2c612a5b565b5b6000613a3b84828501613a02565b91505092915050565b60008190508160005260206000209050919050565b60006020601f8301049050919050565b600082821b905092915050565b600060088302613aa67fffffffffffffffffffffffffffffffffffffffffffffffffffffffffffffffff82613a69565b613ab08683613a69565b95508019841693508086168417925050509392505050565b6000613ae3613ade613ad984612b20565b613220565b612b20565b9050919050565b6000819050919050565b613afd83613ac8565b613b11613b0982613aea565b848454613a76565b825550505050565b600090565b613b26613b19565b613b31818484613af4565b505050565b5b81811015613b5557613b4a600082613b1e565b600181019050613b37565b5050565b601f821115613b9a57613b6b81613a44565b613b7484613a59565b81016020851015613b83578190505b613b97613b8f85613a59565b830182613b36565b50505b505050565b600082821c905092915050565b6000613bbd60001984600802613b9f565b1980831691505092915050565b6000613bd68383613bac565b9150826002028217905092915050565b613bef82612b83565b67ffffffffffffffff811115613c0857613c07612e78565b5b613c1282546135b1565b613c1d828285613b59565b600060209050601f831160018114613c505760008415613c3e578287015190505b613c488582613bca565b865550613cb0565b601f198416613c5e86613a44565b60005b82811015613c8657848901518255600182019150602085019450602081019050613c61565b86831015613ca35784890151613c9f601f891682613bac565b8355505b6001600288020188555050505b505050505050565b6000613cc482856137e5565b9150613cd082846137e5565b91508190509392505050565b7f4f776e61626c653a206e6577206f776e657220697320746865207a65726f206160008201527f6464726573730000000000000000000000000000000000000000000000000000602082015250565b6000613d38602683612cef565b9150613d4382613cdc565b604082019050919050565b60006020820190508181036000830152613d6781613d2b565b9050919050565b7f4552433732313a207472616e736665722066726f6d20696e636f72726563742060008201527f6f776e6572000000000000000000000000000000000000000000000000000000602082015250565b6000613dca602583612cef565b9150613dd582613d6e565b604082019050919050565b60006020820190508181036000830152613df981613dbd565b9050919050565b7f4552433732313a207472616e7366657220746f20746865207a65726f2061646460008201527f7265737300000000000000000000000000000000000000000000000000000000602082015250565b6000613e5c602483612cef565b9150613e6782613e00565b604082019050919050565b60006020820190508181036000830152613e8b81613e4f565b9050919050565b7f4f776e61626c653a2063616c6c6572206973206e6f7420746865206f776e6572600082015250565b6000613ec8602083612cef565b9150613ed382613e92565b602082019050919050565b60006020820190508181036000830152613ef781613ebb565b9050919050565b7f4552433732313a20617070726f766520746f2063616c6c657200000000000000600082015250565b6000613f34601983612cef565b9150613f3f82613efe565b602082019050919050565b60006020820190508181036000830152613f6381613f27565b9050919050565b7f4552433732313a207472616e7366657220746f206e6f6e20455243373231526560008201527f63656976657220696d706c656d656e7465720000000000000000000000000000602082015250565b6000613fc6603283612cef565b9150613fd182613f6a565b604082019050919050565b60006020820190508181036000830152613ff581613fb9565b9050919050565b7f4e487b7100000000000000000000000000000000000000000000000000000000600052601260045260246000fd5b600061403682612b20565b915061404183612b20565b92508282039050818111156140595761405861385c565b5b92915050565b600061406a82612b20565b915061407583612b20565b925082820190508082111561408d5761408c61385c565b5b92915050565b600081519050919050565b600082825260208201905092915050565b60006140ba82614093565b6140c4818561409e565b93506140d4818560208601612b9f565b6140dd81612bc9565b840191505092915050565b60006080820190506140fd6000830187612d5b565b61410a6020830186612d5b565b6141176040830185612df1565b818103606083015261412981846140af565b905095945050505050565b60008151905061414381612a91565b92915050565b60006020828403121561415f5761415e612a5b565b5b600061416d84828501614134565b91505092915050565b7f4552433732313a206d696e7420746f20746865207a65726f2061646472657373600082015250565b60006141ac602083612cef565b91506141b782614176565b602082019050919050565b600060208201905081810360008301526141db8161419f565b9050919050565b7f4552433732313a20746f6b656e20616c7265616479206d696e74656400000000600082015250565b6000614218601c83612cef565b9150614223826141e2565b602082019050919050565b600060208201905081810360008301526142478161420b565b905091905056fea2646970667358221220ad3893a2078a48d145d2827830c8f348deb81843f2cc4816a011964edc416cd364736f6c63430008110033",
  "immutableReferences": {},
  "source": "// SPDX-License-Identifier: MIT\r\n\r\npragma solidity ^0.8.0;\r\n\r\nimport \"@openzeppelin/contracts/token/ERC20/IERC20.sol\";\r\nimport \"@openzeppelin/contracts/token/ERC721/ERC721.sol\";\r\nimport \"@openzeppelin/contracts/access/Ownable.sol\";\r\nimport \"@openzeppelin/contracts/utils/Counters.sol\";\r\n\r\ncontract MyNft is ERC721, Ownable {\r\n    using Counters for Counters.Counter;\r\n    IERC20 public tokenAddress;\r\n\r\n    struct Product {\r\n        string name;\r\n        string description;\r\n        address owner;\r\n        uint256 price;\r\n    }\r\n\r\n    Product[] public products;\r\n\r\n    mapping(string => Product[]) OwnerList;\r\n\r\n    mapping(uint256 => Product) MintedNFT;\r\n\r\n    Counters.Counter private _tokenIdCounter;\r\n\r\n    constructor(address _tokenAddress) ERC721(\"MyNft\", \"MTX\") {\r\n        tokenAddress = IERC20(_tokenAddress);\r\n    }\r\n\r\n    function safeMint(\r\n        address _from,\r\n        string memory _owner,\r\n        string memory _name,\r\n        string memory _description,\r\n        uint256 _price\r\n    ) public returns (bool) {\r\n        // tokenAddress.transferFrom(_from, address(this), _price * (10**18));\r\n        // tokenAddress.transfer(_from, _price * (10 ** 18));\r\n        Product memory product = Product({\r\n            name: _name,\r\n            description: _description,\r\n            price: _price,\r\n            owner: _from\r\n        });\r\n        OwnerList[_owner].push(product);\r\n        _tokenIdCounter.increment();\r\n        uint256 tokenId = _tokenIdCounter.current();\r\n        _safeMint(_from, tokenId);\r\n        MintedNFT[tokenId] = product;\r\n        products.push(product);\r\n        return true;\r\n    }\r\n\r\n    // function buyProduct(\r\n    //     string memory owner,\r\n    //     address _to,\r\n    //     uint256 _tokenId,\r\n    //     uint256 val\r\n    // ) external returns (bool) {\r\n    //     Product storage product = MintedNFT[_tokenId];\r\n    //     require(product.price <= val, \"Insufficient amount\");\r\n    //     tokenAddress.transfer(_to, address(this), val * (10**18));\r\n    //     product.owner = _to;\r\n    //     return true;\r\n    // }\r\n\r\n    function setProductPrice(\r\n        string memory owner,\r\n        uint256 indx,\r\n        uint256 val\r\n    ) external returns (bool) {\r\n        Product storage product = OwnerList[owner][indx];\r\n        product.price = val * (10**18);\r\n        return true;\r\n    }\r\n\r\n    function getProductByUser(string memory _owner)\r\n        external\r\n        view\r\n        returns (Product[] memory)\r\n    {\r\n        return OwnerList[_owner];\r\n    }\r\n\r\n    function getProductByTokenId(uint256 _tokenId)\r\n        external\r\n        view\r\n        returns (Product memory)\r\n    {\r\n        return MintedNFT[_tokenId];\r\n    }\r\n\r\n    function buyProductByTokenId(uint256 _tokenId, address _toownerAddress)\r\n        external\r\n        returns (Product memory)\r\n    {\r\n        Product memory product = MintedNFT[_tokenId];\r\n        tokenAddress.transferFrom(\r\n            _toownerAddress,\r\n            product.owner,\r\n            product.price\r\n        );\r\n        product.owner = _toownerAddress;\r\n        return product;\r\n    }\r\n\r\n    function listOfPRoducts() external view returns (Product[] memory) {\r\n        return products;\r\n    }\r\n\r\n    function getBalance() external view returns (uint256) {\r\n        return tokenAddress.balanceOf(address(this));\r\n    }\r\n}\r\n",
  "sourcePath": "C:\\Users\\balam\\OneDrive\\Documents\\poc\\server\\contracts\\MyNft.sol",
  "compiler": {
    "name": "solc",
    "version": "0.8.17+commit.8df45f5f.Emscripten.clang"
  },
  "schemaVersion": "3.4.11",
  "updatedAt": "2023-01-10T09:28:27.068Z",
  "networkType": "ethereum",
  "devdoc": {
    "kind": "dev",
    "methods": {
      "approve(address,uint256)": {
        "details": "See {IERC721-approve}."
      },
      "balanceOf(address)": {
        "details": "See {IERC721-balanceOf}."
      },
      "getApproved(uint256)": {
        "details": "See {IERC721-getApproved}."
      },
      "isApprovedForAll(address,address)": {
        "details": "See {IERC721-isApprovedForAll}."
      },
      "name()": {
        "details": "See {IERC721Metadata-name}."
      },
      "owner()": {
        "details": "Returns the address of the current owner."
      },
      "ownerOf(uint256)": {
        "details": "See {IERC721-ownerOf}."
      },
      "renounceOwnership()": {
        "details": "Leaves the contract without owner. It will not be possible to call `onlyOwner` functions anymore. Can only be called by the current owner. NOTE: Renouncing ownership will leave the contract without an owner, thereby removing any functionality that is only available to the owner."
      },
      "safeTransferFrom(address,address,uint256)": {
        "details": "See {IERC721-safeTransferFrom}."
      },
      "safeTransferFrom(address,address,uint256,bytes)": {
        "details": "See {IERC721-safeTransferFrom}."
      },
      "setApprovalForAll(address,bool)": {
        "details": "See {IERC721-setApprovalForAll}."
      },
      "supportsInterface(bytes4)": {
        "details": "See {IERC165-supportsInterface}."
      },
      "symbol()": {
        "details": "See {IERC721Metadata-symbol}."
      },
      "tokenURI(uint256)": {
        "details": "See {IERC721Metadata-tokenURI}."
      },
      "transferFrom(address,address,uint256)": {
        "details": "See {IERC721-transferFrom}."
      },
      "transferOwnership(address)": {
        "details": "Transfers ownership of the contract to a new account (`newOwner`). Can only be called by the current owner."
      }
    },
    "version": 1
  },
  "userdoc": {
    "kind": "user",
    "methods": {},
    "version": 1
  }
}